{"abi":[{"type":"constructor","inputs":[{"name":"name","type":"string","internalType":"string"},{"name":"symbol","type":"string","internalType":"string"},{"name":"baseTokenURI","type":"string","internalType":"string"}],"stateMutability":"nonpayable"},{"type":"function","name":"activePolicies","inputs":[{"name":"","type":"uint256","internalType":"uint256"}],"outputs":[{"name":"","type":"bool","internalType":"bool"}],"stateMutability":"view"},{"type":"function","name":"approve","inputs":[{"name":"to","type":"address","internalType":"address"},{"name":"tokenId","type":"uint256","internalType":"uint256"}],"outputs":[],"stateMutability":"nonpayable"},{"type":"function","name":"assetRegistry","inputs":[],"outputs":[{"name":"","type":"address","internalType":"address"}],"stateMutability":"view"},{"type":"function","name":"balanceOf","inputs":[{"name":"owner","type":"address","internalType":"address"}],"outputs":[{"name":"","type":"uint256","internalType":"uint256"}],"stateMutability":"view"},{"type":"function","name":"cancelPolicy","inputs":[{"name":"tokenId","type":"uint256","internalType":"uint256"}],"outputs":[],"stateMutability":"nonpayable"},{"type":"function","name":"createPolicy","inputs":[{"name":"policyholder","type":"address","internalType":"address"},{"name":"assetId","type":"uint256","internalType":"uint256"},{"name":"coverageAmount","type":"uint256","internalType":"uint256"},{"name":"premiumAmount","type":"uint256","internalType":"uint256"},{"name":"duration","type":"uint256","internalType":"uint256"},{"name":"metadataURI","type":"string","internalType":"string"}],"outputs":[{"name":"","type":"uint256","internalType":"uint256"}],"stateMutability":"nonpayable"},{"type":"function","name":"expirePolicy","inputs":[{"name":"tokenId","type":"uint256","internalType":"uint256"}],"outputs":[],"stateMutability":"nonpayable"},{"type":"function","name":"getApproved","inputs":[{"name":"tokenId","type":"uint256","internalType":"uint256"}],"outputs":[{"name":"","type":"address","internalType":"address"}],"stateMutability":"view"},{"type":"function","name":"getPolicy","inputs":[{"name":"tokenId","type":"uint256","internalType":"uint256"}],"outputs":[{"name":"","type":"tuple","internalType":"struct InsurancePolicyNFT.Policy","components":[{"name":"assetId","type":"uint256","internalType":"uint256"},{"name":"policyholder","type":"address","internalType":"address"},{"name":"coverageAmount","type":"uint256","internalType":"uint256"},{"name":"premiumAmount","type":"uint256","internalType":"uint256"},{"name":"startDate","type":"uint256","internalType":"uint256"},{"name":"endDate","type":"uint256","internalType":"uint256"},{"name":"lastPremiumPaid","type":"uint256","internalType":"uint256"},{"name":"status","type":"uint8","internalType":"enum InsurancePolicyNFT.PolicyStatus"},{"name":"metadataURI","type":"string","internalType":"string"}]}],"stateMutability":"view"},{"type":"function","name":"getUserPolicies","inputs":[{"name":"user","type":"address","internalType":"address"}],"outputs":[{"name":"","type":"uint256[]","internalType":"uint256[]"}],"stateMutability":"view"},{"type":"function","name":"insuranceManager","inputs":[],"outputs":[{"name":"","type":"address","internalType":"address"}],"stateMutability":"view"},{"type":"function","name":"isApprovedForAll","inputs":[{"name":"owner","type":"address","internalType":"address"},{"name":"operator","type":"address","internalType":"address"}],"outputs":[{"name":"","type":"bool","internalType":"bool"}],"stateMutability":"view"},{"type":"function","name":"isPolicyActive","inputs":[{"name":"tokenId","type":"uint256","internalType":"uint256"}],"outputs":[{"name":"","type":"bool","internalType":"bool"}],"stateMutability":"view"},{"type":"function","name":"isPremiumOverdue","inputs":[{"name":"tokenId","type":"uint256","internalType":"uint256"},{"name":"gracePeriod","type":"uint256","internalType":"uint256"}],"outputs":[{"name":"","type":"bool","internalType":"bool"}],"stateMutability":"view"},{"type":"function","name":"name","inputs":[],"outputs":[{"name":"","type":"string","internalType":"string"}],"stateMutability":"view"},{"type":"function","name":"owner","inputs":[],"outputs":[{"name":"","type":"address","internalType":"address"}],"stateMutability":"view"},{"type":"function","name":"ownerOf","inputs":[{"name":"tokenId","type":"uint256","internalType":"uint256"}],"outputs":[{"name":"","type":"address","internalType":"address"}],"stateMutability":"view"},{"type":"function","name":"pause","inputs":[],"outputs":[],"stateMutability":"nonpayable"},{"type":"function","name":"paused","inputs":[],"outputs":[{"name":"","type":"bool","internalType":"bool"}],"stateMutability":"view"},{"type":"function","name":"policies","inputs":[{"name":"","type":"uint256","internalType":"uint256"}],"outputs":[{"name":"assetId","type":"uint256","internalType":"uint256"},{"name":"policyholder","type":"address","internalType":"address"},{"name":"coverageAmount","type":"uint256","internalType":"uint256"},{"name":"premiumAmount","type":"uint256","internalType":"uint256"},{"name":"startDate","type":"uint256","internalType":"uint256"},{"name":"endDate","type":"uint256","internalType":"uint256"},{"name":"lastPremiumPaid","type":"uint256","internalType":"uint256"},{"name":"status","type":"uint8","internalType":"enum InsurancePolicyNFT.PolicyStatus"},{"name":"metadataURI","type":"string","internalType":"string"}],"stateMutability":"view"},{"type":"function","name":"processClaim","inputs":[{"name":"tokenId","type":"uint256","internalType":"uint256"},{"name":"claimAmount","type":"uint256","internalType":"uint256"}],"outputs":[],"stateMutability":"nonpayable"},{"type":"function","name":"recordPremiumPayment","inputs":[{"name":"tokenId","type":"uint256","internalType":"uint256"}],"outputs":[],"stateMutability":"nonpayable"},{"type":"function","name":"renounceOwnership","inputs":[],"outputs":[],"stateMutability":"nonpayable"},{"type":"function","name":"safeTransferFrom","inputs":[{"name":"from","type":"address","internalType":"address"},{"name":"to","type":"address","internalType":"address"},{"name":"tokenId","type":"uint256","internalType":"uint256"}],"outputs":[],"stateMutability":"nonpayable"},{"type":"function","name":"safeTransferFrom","inputs":[{"name":"from","type":"address","internalType":"address"},{"name":"to","type":"address","internalType":"address"},{"name":"tokenId","type":"uint256","internalType":"uint256"},{"name":"data","type":"bytes","internalType":"bytes"}],"outputs":[],"stateMutability":"nonpayable"},{"type":"function","name":"setApprovalForAll","inputs":[{"name":"operator","type":"address","internalType":"address"},{"name":"approved","type":"bool","internalType":"bool"}],"outputs":[],"stateMutability":"nonpayable"},{"type":"function","name":"setAssetRegistry","inputs":[{"name":"_assetRegistry","type":"address","internalType":"address"}],"outputs":[],"stateMutability":"nonpayable"},{"type":"function","name":"setBaseURI","inputs":[{"name":"baseTokenURI","type":"string","internalType":"string"}],"outputs":[],"stateMutability":"nonpayable"},{"type":"function","name":"setInsuranceManager","inputs":[{"name":"_insuranceManager","type":"address","internalType":"address"}],"outputs":[],"stateMutability":"nonpayable"},{"type":"function","name":"supportsInterface","inputs":[{"name":"interfaceId","type":"bytes4","internalType":"bytes4"}],"outputs":[{"name":"","type":"bool","internalType":"bool"}],"stateMutability":"view"},{"type":"function","name":"symbol","inputs":[],"outputs":[{"name":"","type":"string","internalType":"string"}],"stateMutability":"view"},{"type":"function","name":"tokenURI","inputs":[{"name":"tokenId","type":"uint256","internalType":"uint256"}],"outputs":[{"name":"","type":"string","internalType":"string"}],"stateMutability":"view"},{"type":"function","name":"transferFrom","inputs":[{"name":"from","type":"address","internalType":"address"},{"name":"to","type":"address","internalType":"address"},{"name":"tokenId","type":"uint256","internalType":"uint256"}],"outputs":[],"stateMutability":"nonpayable"},{"type":"function","name":"transferOwnership","inputs":[{"name":"newOwner","type":"address","internalType":"address"}],"outputs":[],"stateMutability":"nonpayable"},{"type":"function","name":"unpause","inputs":[],"outputs":[],"stateMutability":"nonpayable"},{"type":"function","name":"userPolicies","inputs":[{"name":"","type":"address","internalType":"address"},{"name":"","type":"uint256","internalType":"uint256"}],"outputs":[{"name":"","type":"uint256","internalType":"uint256"}],"stateMutability":"view"},{"type":"event","name":"Approval","inputs":[{"name":"owner","type":"address","indexed":true,"internalType":"address"},{"name":"approved","type":"address","indexed":true,"internalType":"address"},{"name":"tokenId","type":"uint256","indexed":true,"internalType":"uint256"}],"anonymous":false},{"type":"event","name":"ApprovalForAll","inputs":[{"name":"owner","type":"address","indexed":true,"internalType":"address"},{"name":"operator","type":"address","indexed":true,"internalType":"address"},{"name":"approved","type":"bool","indexed":false,"internalType":"bool"}],"anonymous":false},{"type":"event","name":"OwnershipTransferred","inputs":[{"name":"previousOwner","type":"address","indexed":true,"internalType":"address"},{"name":"newOwner","type":"address","indexed":true,"internalType":"address"}],"anonymous":false},{"type":"event","name":"Paused","inputs":[{"name":"account","type":"address","indexed":false,"internalType":"address"}],"anonymous":false},{"type":"event","name":"PolicyCancelled","inputs":[{"name":"tokenId","type":"uint256","indexed":true,"internalType":"uint256"}],"anonymous":false},{"type":"event","name":"PolicyClaimed","inputs":[{"name":"tokenId","type":"uint256","indexed":true,"internalType":"uint256"},{"name":"claimAmount","type":"uint256","indexed":false,"internalType":"uint256"}],"anonymous":false},{"type":"event","name":"PolicyCreated","inputs":[{"name":"tokenId","type":"uint256","indexed":true,"internalType":"uint256"},{"name":"policyholder","type":"address","indexed":true,"internalType":"address"},{"name":"assetId","type":"uint256","indexed":false,"internalType":"uint256"}],"anonymous":false},{"type":"event","name":"PolicyExpired","inputs":[{"name":"tokenId","type":"uint256","indexed":true,"internalType":"uint256"}],"anonymous":false},{"type":"event","name":"PremiumPaid","inputs":[{"name":"tokenId","type":"uint256","indexed":true,"internalType":"uint256"},{"name":"amount","type":"uint256","indexed":false,"internalType":"uint256"}],"anonymous":false},{"type":"event","name":"Transfer","inputs":[{"name":"from","type":"address","indexed":true,"internalType":"address"},{"name":"to","type":"address","indexed":true,"internalType":"address"},{"name":"tokenId","type":"uint256","indexed":true,"internalType":"uint256"}],"anonymous":false},{"type":"event","name":"Unpaused","inputs":[{"name":"account","type":"address","indexed":false,"internalType":"address"}],"anonymous":false},{"type":"error","name":"ERC721IncorrectOwner","inputs":[{"name":"sender","type":"address","internalType":"address"},{"name":"tokenId","type":"uint256","internalType":"uint256"},{"name":"owner","type":"address","internalType":"address"}]},{"type":"error","name":"ERC721InsufficientApproval","inputs":[{"name":"operator","type":"address","internalType":"address"},{"name":"tokenId","type":"uint256","internalType":"uint256"}]},{"type":"error","name":"ERC721InvalidApprover","inputs":[{"name":"approver","type":"address","internalType":"address"}]},{"type":"error","name":"ERC721InvalidOperator","inputs":[{"name":"operator","type":"address","internalType":"address"}]},{"type":"error","name":"ERC721InvalidOwner","inputs":[{"name":"owner","type":"address","internalType":"address"}]},{"type":"error","name":"ERC721InvalidReceiver","inputs":[{"name":"receiver","type":"address","internalType":"address"}]},{"type":"error","name":"ERC721InvalidSender","inputs":[{"name":"sender","type":"address","internalType":"address"}]},{"type":"error","name":"ERC721NonexistentToken","inputs":[{"name":"tokenId","type":"uint256","internalType":"uint256"}]},{"type":"error","name":"EnforcedPause","inputs":[]},{"type":"error","name":"ExpectedPause","inputs":[]},{"type":"error","name":"OwnableInvalidOwner","inputs":[{"name":"owner","type":"address","internalType":"address"}]},{"type":"error","name":"OwnableUnauthorizedAccount","inputs":[{"name":"account","type":"address","internalType":"address"}]}],"bytecode":{"object":"0x608060405234801561000f575f5ffd5b50604051614a2e380380614a2e83398181016040528101906100319190610317565b338383815f908161004291906105cb565b50806001908161005291906105cb565b5050505f73ffffffffffffffffffffffffffffffffffffffff168173ffffffffffffffffffffffffffffffffffffffff16036100c5575f6040517f1e4fbdf70000000000000000000000000000000000000000000000000000000081526004016100bc91906106d9565b60405180910390fd5b6100d48161010760201b60201c565b505f600660146101000a81548160ff02191690831515021790555080600d90816100fe91906105cb565b505050506106f2565b5f60065f9054906101000a900473ffffffffffffffffffffffffffffffffffffffff1690508160065f6101000a81548173ffffffffffffffffffffffffffffffffffffffff021916908373ffffffffffffffffffffffffffffffffffffffff1602179055508173ffffffffffffffffffffffffffffffffffffffff168173ffffffffffffffffffffffffffffffffffffffff167f8be0079c531659141344cd1fd0a4f28419497f9722a3daafe3b4186f6b6457e060405160405180910390a35050565b5f604051905090565b5f5ffd5b5f5ffd5b5f5ffd5b5f5ffd5b5f601f19601f8301169050919050565b7f4e487b71000000000000000000000000000000000000000000000000000000005f52604160045260245ffd5b610229826101e3565b810181811067ffffffffffffffff82111715610248576102476101f3565b5b80604052505050565b5f61025a6101ca565b90506102668282610220565b919050565b5f67ffffffffffffffff821115610285576102846101f3565b5b61028e826101e3565b9050602081019050919050565b8281835e5f83830152505050565b5f6102bb6102b68461026b565b610251565b9050828152602081018484840111156102d7576102d66101df565b5b6102e284828561029b565b509392505050565b5f82601f8301126102fe576102fd6101db565b5b815161030e8482602086016102a9565b91505092915050565b5f5f5f6060848603121561032e5761032d6101d3565b5b5f84015167ffffffffffffffff81111561034b5761034a6101d7565b5b610357868287016102ea565b935050602084015167ffffffffffffffff811115610378576103776101d7565b5b610384868287016102ea565b925050604084015167ffffffffffffffff8111156103a5576103a46101d7565b5b6103b1868287016102ea565b9150509250925092565b5f81519050919050565b7f4e487b71000000000000000000000000000000000000000000000000000000005f52602260045260245ffd5b5f600282049050600182168061040957607f821691505b60208210810361041c5761041b6103c5565b5b50919050565b5f819050815f5260205f209050919050565b5f6020601f8301049050919050565b5f82821b905092915050565b5f6008830261047e7fffffffffffffffffffffffffffffffffffffffffffffffffffffffffffffffff82610443565b6104888683610443565b95508019841693508086168417925050509392505050565b5f819050919050565b5f819050919050565b5f6104cc6104c76104c2846104a0565b6104a9565b6104a0565b9050919050565b5f819050919050565b6104e5836104b2565b6104f96104f1826104d3565b84845461044f565b825550505050565b5f5f905090565b610510610501565b61051b8184846104dc565b505050565b5b8181101561053e576105335f82610508565b600181019050610521565b5050565b601f8211156105835761055481610422565b61055d84610434565b8101602085101561056c578190505b61058061057885610434565b830182610520565b50505b505050565b5f82821c905092915050565b5f6105a35f1984600802610588565b1980831691505092915050565b5f6105bb8383610594565b9150826002028217905092915050565b6105d4826103bb565b67ffffffffffffffff8111156105ed576105ec6101f3565b5b6105f782546103f2565b610602828285610542565b5f60209050601f831160018114610633575f8415610621578287015190505b61062b85826105b0565b865550610692565b601f19841661064186610422565b5f5b8281101561066857848901518255600182019150602085019450602081019050610643565b868310156106855784890151610681601f891682610594565b8355505b6001600288020188555050505b505050505050565b5f73ffffffffffffffffffffffffffffffffffffffff82169050919050565b5f6106c38261069a565b9050919050565b6106d3816106b9565b82525050565b5f6020820190506106ec5f8301846106ca565b92915050565b61432f806106ff5f395ff3fe608060405234801561000f575f5ffd5b506004361061021a575f3560e01c806370a0823111610123578063b88d4fde116100ab578063d3e894831161007a578063d3e8948314610646578063e84d033c1461067e578063e985e9c51461069a578063f2fde38b146106ca578063f3523fa4146106e65761021a565b8063b88d4fde146105ae578063bd8afa46146105ca578063bf3b818e146105fa578063c87b56dd146106165761021a565b806395d89b41116100f257806395d89b411461051e578063979d7e861461053c578063a22cb4651461055a578063b20e8bcc14610576578063b51386f4146105925761021a565b806370a08231146104bc578063715018a6146104ec5780638456cb59146104f65780638da5cb5b146105005761021a565b80633d36adc5116101a657806355f804b31161017557806355f804b3146103f25780635af099c91461040e5780635c975abb1461043e5780636352211e1461045c5780636a0d34d61461048c5761021a565b80633d36adc5146103805780633f4ba83a146103b057806342842e0e146103ba57806347daf366146103d65761021a565b806319ac4614116101ed57806319ac4614146102b857806323b872dd146102e85780632ac45f04146103045780632b07fce3146103345780633037e4cd146103645761021a565b806301ffc9a71461021e57806306fdde031461024e578063081812fc1461026c578063095ea7b31461029c575b5f5ffd5b61023860048036038101906102339190613142565b610704565b6040516102459190613187565b60405180910390f35b6102566107e5565b6040516102639190613210565b60405180910390f35b61028660048036038101906102819190613263565b610874565b60405161029391906132cd565b60405180910390f35b6102b660048036038101906102b19190613310565b61088f565b005b6102d260048036038101906102cd919061334e565b6108a5565b6040516102df9190613430565b60405180910390f35b61030260048036038101906102fd9190613450565b610938565b005b61031e600480360381019061031991906134a0565b610a37565b60405161032b9190613187565b60405180910390f35b61034e60048036038101906103499190613263565b610ad8565b60405161035b919061366a565b60405180910390f35b61037e60048036038101906103799190613263565b610cd4565b005b61039a60048036038101906103959190613310565b610efb565b6040516103a79190613699565b60405180910390f35b6103b8610f26565b005b6103d460048036038101906103cf9190613450565b610f38565b005b6103f060048036038101906103eb91906134a0565b610f57565b005b61040c600480360381019061040791906137de565b6111e1565b005b61042860048036038101906104239190613263565b6111fc565b6040516104359190613187565b60405180910390f35b610446611219565b6040516104539190613187565b60405180910390f35b61047660048036038101906104719190613263565b61122f565b60405161048391906132cd565b60405180910390f35b6104a660048036038101906104a19190613825565b611240565b6040516104b39190613699565b60405180910390f35b6104d660048036038101906104d1919061334e565b611539565b6040516104e39190613699565b60405180910390f35b6104f46115ef565b005b6104fe611602565b005b610508611614565b60405161051591906132cd565b60405180910390f35b61052661163c565b6040516105339190613210565b60405180910390f35b6105446116cc565b60405161055191906132cd565b60405180910390f35b610574600480360381019061056f91906138f4565b6116f1565b005b610590600480360381019061058b9190613263565b611707565b005b6105ac60048036038101906105a7919061334e565b61196c565b005b6105c860048036038101906105c391906139d0565b6119b7565b005b6105e460048036038101906105df9190613263565b6119dc565b6040516105f19190613187565b60405180910390f35b610614600480360381019061060f9190613263565b611a51565b005b610630600480360381019061062b9190613263565b611c4c565b60405161063d9190613210565b60405180910390f35b610660600480360381019061065b9190613263565b611de9565b60405161067599989796959493929190613a5f565b60405180910390f35b6106986004803603810190610693919061334e565b611ee4565b005b6106b460048036038101906106af9190613af1565b611f2f565b6040516106c19190613187565b60405180910390f35b6106e460048036038101906106df919061334e565b611fbd565b005b6106ee612041565b6040516106fb91906132cd565b60405180910390f35b5f7f80ac58cd000000000000000000000000000000000000000000000000000000007bffffffffffffffffffffffffffffffffffffffffffffffffffffffff1916827bffffffffffffffffffffffffffffffffffffffffffffffffffffffff191614806107ce57507f5b5e139f000000000000000000000000000000000000000000000000000000007bffffffffffffffffffffffffffffffffffffffffffffffffffffffff1916827bffffffffffffffffffffffffffffffffffffffffffffffffffffffff1916145b806107de57506107dd82612066565b5b9050919050565b60605f80546107f390613b5c565b80601f016020809104026020016040519081016040528092919081815260200182805461081f90613b5c565b801561086a5780601f106108415761010080835404028352916020019161086a565b820191905f5260205f20905b81548152906001019060200180831161084d57829003601f168201915b5050505050905090565b5f61087e826120cf565b5061088882612155565b9050919050565b6108a1828261089c61218e565b612195565b5050565b606060095f8373ffffffffffffffffffffffffffffffffffffffff1673ffffffffffffffffffffffffffffffffffffffff1681526020019081526020015f2080548060200260200160405190810160405280929190818152602001828054801561092c57602002820191905f5260205f20905b815481526020019060010190808311610918575b50505050509050919050565b5f73ffffffffffffffffffffffffffffffffffffffff168273ffffffffffffffffffffffffffffffffffffffff16036109a8575f6040517f64a0ae9200000000000000000000000000000000000000000000000000000000815260040161099f91906132cd565b60405180910390fd5b5f6109bb83836109b661218e565b6121a7565b90508373ffffffffffffffffffffffffffffffffffffffff168173ffffffffffffffffffffffffffffffffffffffff1614610a31578382826040517f64283d7b000000000000000000000000000000000000000000000000000000008152600401610a2893929190613b8c565b60405180910390fd5b50505050565b5f5f73ffffffffffffffffffffffffffffffffffffffff16610a58846123b2565b73ffffffffffffffffffffffffffffffffffffffff1603610aae576040517f08c379a0000000000000000000000000000000000000000000000000000000008152600401610aa590613c0b565b60405180910390fd5b8160085f8581526020019081526020015f2060060154610ace9190613c56565b4211905092915050565b610ae0613070565b5f73ffffffffffffffffffffffffffffffffffffffff16610b00836123b2565b73ffffffffffffffffffffffffffffffffffffffff1603610b56576040517f08c379a0000000000000000000000000000000000000000000000000000000008152600401610b4d90613c0b565b60405180910390fd5b60085f8381526020019081526020015f20604051806101200160405290815f8201548152602001600182015f9054906101000a900473ffffffffffffffffffffffffffffffffffffffff1673ffffffffffffffffffffffffffffffffffffffff1673ffffffffffffffffffffffffffffffffffffffff1681526020016002820154815260200160038201548152602001600482015481526020016005820154815260200160068201548152602001600782015f9054906101000a900460ff166003811115610c2757610c266134ed565b5b6003811115610c3957610c386134ed565b5b8152602001600882018054610c4d90613b5c565b80601f0160208091040260200160405190810160405280929190818152602001828054610c7990613b5c565b8015610cc45780601f10610c9b57610100808354040283529160200191610cc4565b820191905f5260205f20905b815481529060010190602001808311610ca757829003601f168201915b5050505050815250509050919050565b600b5f9054906101000a900473ffffffffffffffffffffffffffffffffffffffff1673ffffffffffffffffffffffffffffffffffffffff163373ffffffffffffffffffffffffffffffffffffffff1614610d63576040517f08c379a0000000000000000000000000000000000000000000000000000000008152600401610d5a90613cf9565b60405180910390fd5b610d6b6123eb565b5f73ffffffffffffffffffffffffffffffffffffffff16610d8b826123b2565b73ffffffffffffffffffffffffffffffffffffffff1603610de1576040517f08c379a0000000000000000000000000000000000000000000000000000000008152600401610dd890613c0b565b60405180910390fd5b5f6003811115610df457610df36134ed565b5b60085f8381526020019081526020015f206007015f9054906101000a900460ff166003811115610e2757610e266134ed565b5b14610e67576040517f08c379a0000000000000000000000000000000000000000000000000000000008152600401610e5e90613d61565b60405180910390fd5b600260085f8381526020019081526020015f206007015f6101000a81548160ff02191690836003811115610e9e57610e9d6134ed565b5b02179055505f600a5f8381526020019081526020015f205f6101000a81548160ff021916908315150217905550807fb22aa541487fc93d989bb5b17d1e3a967f649c4979cfd658c0849e070ae0dca060405160405180910390a250565b6009602052815f5260405f208181548110610f14575f80fd5b905f5260205f20015f91509150505481565b610f2e61242c565b610f366124b3565b565b610f5283838360405180602001604052805f8152506119b7565b505050565b600b5f9054906101000a900473ffffffffffffffffffffffffffffffffffffffff1673ffffffffffffffffffffffffffffffffffffffff163373ffffffffffffffffffffffffffffffffffffffff1614610fe6576040517f08c379a0000000000000000000000000000000000000000000000000000000008152600401610fdd90613cf9565b60405180910390fd5b610fee6123eb565b5f73ffffffffffffffffffffffffffffffffffffffff1661100e836123b2565b73ffffffffffffffffffffffffffffffffffffffff1603611064576040517f08c379a000000000000000000000000000000000000000000000000000000000815260040161105b90613c0b565b60405180910390fd5b5f6003811115611077576110766134ed565b5b60085f8481526020019081526020015f206007015f9054906101000a900460ff1660038111156110aa576110a96134ed565b5b146110ea576040517f08c379a00000000000000000000000000000000000000000000000000000000081526004016110e190613d61565b60405180910390fd5b60085f8381526020019081526020015f2060020154811115611141576040517f08c379a000000000000000000000000000000000000000000000000000000000815260040161113890613dc9565b60405180910390fd5b600160085f8481526020019081526020015f206007015f6101000a81548160ff02191690836003811115611178576111776134ed565b5b02179055505f600a5f8481526020019081526020015f205f6101000a81548160ff021916908315150217905550817fc9d92d603dc7645c578a271dc9dec46855d3c0cdbdc48d00399a438907cfa1cb826040516111d59190613699565b60405180910390a25050565b6111e961242c565b80600d90816111f89190613f87565b5050565b600a602052805f5260405f205f915054906101000a900460ff1681565b5f600660149054906101000a900460ff16905090565b5f611239826120cf565b9050919050565b5f600b5f9054906101000a900473ffffffffffffffffffffffffffffffffffffffff1673ffffffffffffffffffffffffffffffffffffffff163373ffffffffffffffffffffffffffffffffffffffff16146112d0576040517f08c379a00000000000000000000000000000000000000000000000000000000081526004016112c790613cf9565b60405180910390fd5b6112d86123eb565b5f60075f8154809291906112eb90614056565b9190505590505f4290505f85826113029190613c56565b90506040518061012001604052808a81526020018b73ffffffffffffffffffffffffffffffffffffffff1681526020018981526020018881526020018381526020018281526020018381526020015f6003811115611363576113626134ed565b5b81526020018681525060085f8581526020019081526020015f205f820151815f01556020820151816001015f6101000a81548173ffffffffffffffffffffffffffffffffffffffff021916908373ffffffffffffffffffffffffffffffffffffffff16021790555060408201518160020155606082015181600301556080820151816004015560a0820151816005015560c0820151816006015560e0820151816007015f6101000a81548160ff02191690836003811115611427576114266134ed565b5b02179055506101008201518160080190816114429190613f87565b509050506001600a5f8581526020019081526020015f205f6101000a81548160ff02191690831515021790555060095f8b73ffffffffffffffffffffffffffffffffffffffff1673ffffffffffffffffffffffffffffffffffffffff1681526020019081526020015f2083908060018154018082558091505060019003905f5260205f20015f90919091909150556114da8a84612515565b8973ffffffffffffffffffffffffffffffffffffffff16837f601882301d3e3fce7fe3a99d4bb17ef5b6699b417bdd29f2bfb82e19fcbcb6608b6040516115219190613699565b60405180910390a38293505050509695505050505050565b5f5f73ffffffffffffffffffffffffffffffffffffffff168273ffffffffffffffffffffffffffffffffffffffff16036115aa575f6040517f89c62b640000000000000000000000000000000000000000000000000000000081526004016115a191906132cd565b60405180910390fd5b60035f8373ffffffffffffffffffffffffffffffffffffffff1673ffffffffffffffffffffffffffffffffffffffff1681526020019081526020015f20549050919050565b6115f761242c565b6116005f612608565b565b61160a61242c565b6116126126cb565b565b5f60065f9054906101000a900473ffffffffffffffffffffffffffffffffffffffff16905090565b60606001805461164b90613b5c565b80601f016020809104026020016040519081016040528092919081815260200182805461167790613b5c565b80156116c25780601f10611699576101008083540402835291602001916116c2565b820191905f5260205f20905b8154815290600101906020018083116116a557829003601f168201915b5050505050905090565b600c5f9054906101000a900473ffffffffffffffffffffffffffffffffffffffff1681565b6117036116fc61218e565b838361272e565b5050565b61170f6123eb565b5f73ffffffffffffffffffffffffffffffffffffffff1661172f826123b2565b73ffffffffffffffffffffffffffffffffffffffff1603611785576040517f08c379a000000000000000000000000000000000000000000000000000000000815260040161177c90613c0b565b60405180910390fd5b3373ffffffffffffffffffffffffffffffffffffffff166117a58261122f565b73ffffffffffffffffffffffffffffffffffffffff1614806118135750600b5f9054906101000a900473ffffffffffffffffffffffffffffffffffffffff1673ffffffffffffffffffffffffffffffffffffffff163373ffffffffffffffffffffffffffffffffffffffff16145b611852576040517f08c379a0000000000000000000000000000000000000000000000000000000008152600401611849906140e7565b60405180910390fd5b5f6003811115611865576118646134ed565b5b60085f8381526020019081526020015f206007015f9054906101000a900460ff166003811115611898576118976134ed565b5b146118d8576040517f08c379a00000000000000000000000000000000000000000000000000000000081526004016118cf90613d61565b60405180910390fd5b600360085f8381526020019081526020015f206007015f6101000a81548160ff0219169083600381111561190f5761190e6134ed565b5b02179055505f600a5f8381526020019081526020015f205f6101000a81548160ff021916908315150217905550807fbb1ae509b65d9486a686f3f1b0435353031b5607109dc80aa4d063887e10f3e860405160405180910390a250565b61197461242c565b80600b5f6101000a81548173ffffffffffffffffffffffffffffffffffffffff021916908373ffffffffffffffffffffffffffffffffffffffff16021790555050565b6119c2848484610938565b6119d66119cd61218e565b85858585612897565b50505050565b5f600a5f8381526020019081526020015f205f9054906101000a900460ff168015611a4a57505f6003811115611a1557611a146134ed565b5b60085f8481526020019081526020015f206007015f9054906101000a900460ff166003811115611a4857611a476134ed565b5b145b9050919050565b600b5f9054906101000a900473ffffffffffffffffffffffffffffffffffffffff1673ffffffffffffffffffffffffffffffffffffffff163373ffffffffffffffffffffffffffffffffffffffff1614611ae0576040517f08c379a0000000000000000000000000000000000000000000000000000000008152600401611ad790613cf9565b60405180910390fd5b611ae86123eb565b5f73ffffffffffffffffffffffffffffffffffffffff16611b08826123b2565b73ffffffffffffffffffffffffffffffffffffffff1603611b5e576040517f08c379a0000000000000000000000000000000000000000000000000000000008152600401611b5590613c0b565b60405180910390fd5b5f6003811115611b7157611b706134ed565b5b60085f8381526020019081526020015f206007015f9054906101000a900460ff166003811115611ba457611ba36134ed565b5b14611be4576040517f08c379a0000000000000000000000000000000000000000000000000000000008152600401611bdb90613d61565b60405180910390fd5b4260085f8381526020019081526020015f2060060181905550807f7d285524823001f1a9e0eec4efb8c6350708012b991049fd6dd9250f89c8b25860085f8481526020019081526020015f2060030154604051611c419190613699565b60405180910390a250565b60605f73ffffffffffffffffffffffffffffffffffffffff16611c6e836123b2565b73ffffffffffffffffffffffffffffffffffffffff1603611cc4576040517f08c379a0000000000000000000000000000000000000000000000000000000008152600401611cbb9061414f565b60405180910390fd5b5f60085f8481526020019081526020015f206008018054611ce490613b5c565b90501115611d8e5760085f8381526020019081526020015f206008018054611d0b90613b5c565b80601f0160208091040260200160405190810160405280929190818152602001828054611d3790613b5c565b8015611d825780601f10611d5957610100808354040283529160200191611d82565b820191905f5260205f20905b815481529060010190602001808311611d6557829003601f168201915b50505050509050611de4565b5f611d97612a43565b90505f815111611db55760405180602001604052805f815250611de0565b80611dbf84612ad3565b604051602001611dd09291906141a7565b6040516020818303038152906040525b9150505b919050565b6008602052805f5260405f205f91509050805f015490806001015f9054906101000a900473ffffffffffffffffffffffffffffffffffffffff1690806002015490806003015490806004015490806005015490806006015490806007015f9054906101000a900460ff1690806008018054611e6390613b5c565b80601f0160208091040260200160405190810160405280929190818152602001828054611e8f90613b5c565b8015611eda5780601f10611eb157610100808354040283529160200191611eda565b820191905f5260205f20905b815481529060010190602001808311611ebd57829003601f168201915b5050505050905089565b611eec61242c565b80600c5f6101000a81548173ffffffffffffffffffffffffffffffffffffffff021916908373ffffffffffffffffffffffffffffffffffffffff16021790555050565b5f60055f8473ffffffffffffffffffffffffffffffffffffffff1673ffffffffffffffffffffffffffffffffffffffff1681526020019081526020015f205f8373ffffffffffffffffffffffffffffffffffffffff1673ffffffffffffffffffffffffffffffffffffffff1681526020019081526020015f205f9054906101000a900460ff16905092915050565b611fc561242c565b5f73ffffffffffffffffffffffffffffffffffffffff168173ffffffffffffffffffffffffffffffffffffffff1603612035575f6040517f1e4fbdf700000000000000000000000000000000000000000000000000000000815260040161202c91906132cd565b60405180910390fd5b61203e81612608565b50565b600b5f9054906101000a900473ffffffffffffffffffffffffffffffffffffffff1681565b5f7f01ffc9a7000000000000000000000000000000000000000000000000000000007bffffffffffffffffffffffffffffffffffffffffffffffffffffffff1916827bffffffffffffffffffffffffffffffffffffffffffffffffffffffff1916149050919050565b5f5f6120da836123b2565b90505f73ffffffffffffffffffffffffffffffffffffffff168173ffffffffffffffffffffffffffffffffffffffff160361214c57826040517f7e2732890000000000000000000000000000000000000000000000000000000081526004016121439190613699565b60405180910390fd5b80915050919050565b5f60045f8381526020019081526020015f205f9054906101000a900473ffffffffffffffffffffffffffffffffffffffff169050919050565b5f33905090565b6121a28383836001612b9d565b505050565b5f5f6121b2846123b2565b90505f73ffffffffffffffffffffffffffffffffffffffff168373ffffffffffffffffffffffffffffffffffffffff16146121f3576121f2818486612d5c565b5b5f73ffffffffffffffffffffffffffffffffffffffff168173ffffffffffffffffffffffffffffffffffffffff161461227e576122325f855f5f612b9d565b600160035f8373ffffffffffffffffffffffffffffffffffffffff1673ffffffffffffffffffffffffffffffffffffffff1681526020019081526020015f205f82825403925050819055505b5f73ffffffffffffffffffffffffffffffffffffffff168573ffffffffffffffffffffffffffffffffffffffff16146122fd57600160035f8773ffffffffffffffffffffffffffffffffffffffff1673ffffffffffffffffffffffffffffffffffffffff1681526020019081526020015f205f82825401925050819055505b8460025f8681526020019081526020015f205f6101000a81548173ffffffffffffffffffffffffffffffffffffffff021916908373ffffffffffffffffffffffffffffffffffffffff160217905550838573ffffffffffffffffffffffffffffffffffffffff168273ffffffffffffffffffffffffffffffffffffffff167fddf252ad1be2c89b69c2b068fc378daa952ba7f163c4a11628f55a4df523b3ef60405160405180910390a4809150509392505050565b5f60025f8381526020019081526020015f205f9054906101000a900473ffffffffffffffffffffffffffffffffffffffff169050919050565b6123f3611219565b1561242a576040517fd93c066500000000000000000000000000000000000000000000000000000000815260040160405180910390fd5b565b61243461218e565b73ffffffffffffffffffffffffffffffffffffffff16612452611614565b73ffffffffffffffffffffffffffffffffffffffff16146124b15761247561218e565b6040517f118cdaa70000000000000000000000000000000000000000000000000000000081526004016124a891906132cd565b60405180910390fd5b565b6124bb612e1f565b5f600660146101000a81548160ff0219169083151502179055507f5db9ee0a495bf2e6ff9c91a7834c1ba4fdd244a5e8aa4e537bd38aeae4b073aa6124fe61218e565b60405161250b91906132cd565b60405180910390a1565b5f73ffffffffffffffffffffffffffffffffffffffff168273ffffffffffffffffffffffffffffffffffffffff1603612585575f6040517f64a0ae9200000000000000000000000000000000000000000000000000000000815260040161257c91906132cd565b60405180910390fd5b5f61259183835f6121a7565b90505f73ffffffffffffffffffffffffffffffffffffffff168173ffffffffffffffffffffffffffffffffffffffff1614612603575f6040517f73c6ac6e0000000000000000000000000000000000000000000000000000000081526004016125fa91906132cd565b60405180910390fd5b505050565b5f60065f9054906101000a900473ffffffffffffffffffffffffffffffffffffffff1690508160065f6101000a81548173ffffffffffffffffffffffffffffffffffffffff021916908373ffffffffffffffffffffffffffffffffffffffff1602179055508173ffffffffffffffffffffffffffffffffffffffff168173ffffffffffffffffffffffffffffffffffffffff167f8be0079c531659141344cd1fd0a4f28419497f9722a3daafe3b4186f6b6457e060405160405180910390a35050565b6126d36123eb565b6001600660146101000a81548160ff0219169083151502179055507f62e78cea01bee320cd4e420270b5ea74000d11b0c9f74754ebdbfc544b05a25861271761218e565b60405161272491906132cd565b60405180910390a1565b5f73ffffffffffffffffffffffffffffffffffffffff168273ffffffffffffffffffffffffffffffffffffffff160361279e57816040517f5b08ba1800000000000000000000000000000000000000000000000000000000815260040161279591906132cd565b60405180910390fd5b8060055f8573ffffffffffffffffffffffffffffffffffffffff1673ffffffffffffffffffffffffffffffffffffffff1681526020019081526020015f205f8473ffffffffffffffffffffffffffffffffffffffff1673ffffffffffffffffffffffffffffffffffffffff1681526020019081526020015f205f6101000a81548160ff0219169083151502179055508173ffffffffffffffffffffffffffffffffffffffff168373ffffffffffffffffffffffffffffffffffffffff167f17307eab39ab6107e8899845ad3d59bd9653f200f220920489ca2b5937696c318360405161288a9190613187565b60405180910390a3505050565b5f8373ffffffffffffffffffffffffffffffffffffffff163b1115612a3c578273ffffffffffffffffffffffffffffffffffffffff1663150b7a02868685856040518563ffffffff1660e01b81526004016128f5949392919061421c565b6020604051808303815f875af192505050801561293057506040513d601f19601f8201168201806040525081019061292d919061427a565b60015b6129b1573d805f811461295e576040519150601f19603f3d011682016040523d82523d5f602084013e612963565b606091505b505f8151036129a957836040517f64a0ae920000000000000000000000000000000000000000000000000000000081526004016129a091906132cd565b60405180910390fd5b805181602001fd5b63150b7a0260e01b7bffffffffffffffffffffffffffffffffffffffffffffffffffffffff1916817bffffffffffffffffffffffffffffffffffffffffffffffffffffffff191614612a3a57836040517f64a0ae92000000000000000000000000000000000000000000000000000000008152600401612a3191906132cd565b60405180910390fd5b505b5050505050565b6060600d8054612a5290613b5c565b80601f0160208091040260200160405190810160405280929190818152602001828054612a7e90613b5c565b8015612ac95780601f10612aa057610100808354040283529160200191612ac9565b820191905f5260205f20905b815481529060010190602001808311612aac57829003601f168201915b5050505050905090565b60605f6001612ae184612e5f565b0190505f8167ffffffffffffffff811115612aff57612afe6136ba565b5b6040519080825280601f01601f191660200182016040528015612b315781602001600182028036833780820191505090505b5090505f82602001820190505b600115612b92578080600190039150507f3031323334353637383961626364656600000000000000000000000000000000600a86061a8153600a8581612b8757612b866142a5565b5b0494505f8503612b3e575b819350505050919050565b8080612bd557505f73ffffffffffffffffffffffffffffffffffffffff168273ffffffffffffffffffffffffffffffffffffffff1614155b15612d07575f612be4846120cf565b90505f73ffffffffffffffffffffffffffffffffffffffff168373ffffffffffffffffffffffffffffffffffffffff1614158015612c4e57508273ffffffffffffffffffffffffffffffffffffffff168173ffffffffffffffffffffffffffffffffffffffff1614155b8015612c615750612c5f8184611f2f565b155b15612ca357826040517fa9fbf51f000000000000000000000000000000000000000000000000000000008152600401612c9a91906132cd565b60405180910390fd5b8115612d0557838573ffffffffffffffffffffffffffffffffffffffff168273ffffffffffffffffffffffffffffffffffffffff167f8c5be1e5ebec7d5bd14f71427d1e84f3dd0314c0f7b2291e5b200ac8c7c3b92560405160405180910390a45b505b8360045f8581526020019081526020015f205f6101000a81548173ffffffffffffffffffffffffffffffffffffffff021916908373ffffffffffffffffffffffffffffffffffffffff16021790555050505050565b612d67838383612fb0565b612e1a575f73ffffffffffffffffffffffffffffffffffffffff168373ffffffffffffffffffffffffffffffffffffffff1603612ddb57806040517f7e273289000000000000000000000000000000000000000000000000000000008152600401612dd29190613699565b60405180910390fd5b81816040517f177e802f000000000000000000000000000000000000000000000000000000008152600401612e119291906142d2565b60405180910390fd5b505050565b612e27611219565b612e5d576040517f8dfc202b00000000000000000000000000000000000000000000000000000000815260040160405180910390fd5b565b5f5f5f90507a184f03e93ff9f4daa797ed6e38ed64bf6a1f0100000000000000008310612ebb577a184f03e93ff9f4daa797ed6e38ed64bf6a1f0100000000000000008381612eb157612eb06142a5565b5b0492506040810190505b6d04ee2d6d415b85acef81000000008310612ef8576d04ee2d6d415b85acef81000000008381612eee57612eed6142a5565b5b0492506020810190505b662386f26fc100008310612f2757662386f26fc100008381612f1d57612f1c6142a5565b5b0492506010810190505b6305f5e1008310612f50576305f5e1008381612f4657612f456142a5565b5b0492506008810190505b6127108310612f75576127108381612f6b57612f6a6142a5565b5b0492506004810190505b60648310612f985760648381612f8e57612f8d6142a5565b5b0492506002810190505b600a8310612fa7576001810190505b80915050919050565b5f5f73ffffffffffffffffffffffffffffffffffffffff168373ffffffffffffffffffffffffffffffffffffffff161415801561306757508273ffffffffffffffffffffffffffffffffffffffff168473ffffffffffffffffffffffffffffffffffffffff16148061302857506130278484611f2f565b5b8061306657508273ffffffffffffffffffffffffffffffffffffffff1661304e83612155565b73ffffffffffffffffffffffffffffffffffffffff16145b5b90509392505050565b6040518061012001604052805f81526020015f73ffffffffffffffffffffffffffffffffffffffff1681526020015f81526020015f81526020015f81526020015f81526020015f81526020015f60038111156130cf576130ce6134ed565b5b8152602001606081525090565b5f604051905090565b5f5ffd5b5f5ffd5b5f7fffffffff0000000000000000000000000000000000000000000000000000000082169050919050565b613121816130ed565b811461312b575f5ffd5b50565b5f8135905061313c81613118565b92915050565b5f60208284031215613157576131566130e5565b5b5f6131648482850161312e565b91505092915050565b5f8115159050919050565b6131818161316d565b82525050565b5f60208201905061319a5f830184613178565b92915050565b5f81519050919050565b5f82825260208201905092915050565b8281835e5f83830152505050565b5f601f19601f8301169050919050565b5f6131e2826131a0565b6131ec81856131aa565b93506131fc8185602086016131ba565b613205816131c8565b840191505092915050565b5f6020820190508181035f83015261322881846131d8565b905092915050565b5f819050919050565b61324281613230565b811461324c575f5ffd5b50565b5f8135905061325d81613239565b92915050565b5f60208284031215613278576132776130e5565b5b5f6132858482850161324f565b91505092915050565b5f73ffffffffffffffffffffffffffffffffffffffff82169050919050565b5f6132b78261328e565b9050919050565b6132c7816132ad565b82525050565b5f6020820190506132e05f8301846132be565b92915050565b6132ef816132ad565b81146132f9575f5ffd5b50565b5f8135905061330a816132e6565b92915050565b5f5f60408385031215613326576133256130e5565b5b5f613333858286016132fc565b92505060206133448582860161324f565b9150509250929050565b5f60208284031215613363576133626130e5565b5b5f613370848285016132fc565b91505092915050565b5f81519050919050565b5f82825260208201905092915050565b5f819050602082019050919050565b6133ab81613230565b82525050565b5f6133bc83836133a2565b60208301905092915050565b5f602082019050919050565b5f6133de82613379565b6133e88185613383565b93506133f383613393565b805f5b8381101561342357815161340a88826133b1565b9750613415836133c8565b9250506001810190506133f6565b5085935050505092915050565b5f6020820190508181035f83015261344881846133d4565b905092915050565b5f5f5f60608486031215613467576134666130e5565b5b5f613474868287016132fc565b9350506020613485868287016132fc565b92505060406134968682870161324f565b9150509250925092565b5f5f604083850312156134b6576134b56130e5565b5b5f6134c38582860161324f565b92505060206134d48582860161324f565b9150509250929050565b6134e7816132ad565b82525050565b7f4e487b71000000000000000000000000000000000000000000000000000000005f52602160045260245ffd5b6004811061352b5761352a6134ed565b5b50565b5f81905061353b8261351a565b919050565b5f61354a8261352e565b9050919050565b61355a81613540565b82525050565b5f82825260208201905092915050565b5f61357a826131a0565b6135848185613560565b93506135948185602086016131ba565b61359d816131c8565b840191505092915050565b5f61012083015f8301516135be5f8601826133a2565b5060208301516135d160208601826134de565b5060408301516135e460408601826133a2565b5060608301516135f760608601826133a2565b50608083015161360a60808601826133a2565b5060a083015161361d60a08601826133a2565b5060c083015161363060c08601826133a2565b5060e083015161364360e0860182613551565b5061010083015184820361010086015261365d8282613570565b9150508091505092915050565b5f6020820190508181035f83015261368281846135a8565b905092915050565b61369381613230565b82525050565b5f6020820190506136ac5f83018461368a565b92915050565b5f5ffd5b5f5ffd5b7f4e487b71000000000000000000000000000000000000000000000000000000005f52604160045260245ffd5b6136f0826131c8565b810181811067ffffffffffffffff8211171561370f5761370e6136ba565b5b80604052505050565b5f6137216130dc565b905061372d82826136e7565b919050565b5f67ffffffffffffffff82111561374c5761374b6136ba565b5b613755826131c8565b9050602081019050919050565b828183375f83830152505050565b5f61378261377d84613732565b613718565b90508281526020810184848401111561379e5761379d6136b6565b5b6137a9848285613762565b509392505050565b5f82601f8301126137c5576137c46136b2565b5b81356137d5848260208601613770565b91505092915050565b5f602082840312156137f3576137f26130e5565b5b5f82013567ffffffffffffffff8111156138105761380f6130e9565b5b61381c848285016137b1565b91505092915050565b5f5f5f5f5f5f60c0878903121561383f5761383e6130e5565b5b5f61384c89828a016132fc565b965050602061385d89828a0161324f565b955050604061386e89828a0161324f565b945050606061387f89828a0161324f565b935050608061389089828a0161324f565b92505060a087013567ffffffffffffffff8111156138b1576138b06130e9565b5b6138bd89828a016137b1565b9150509295509295509295565b6138d38161316d565b81146138dd575f5ffd5b50565b5f813590506138ee816138ca565b92915050565b5f5f6040838503121561390a576139096130e5565b5b5f613917858286016132fc565b9250506020613928858286016138e0565b9150509250929050565b5f67ffffffffffffffff82111561394c5761394b6136ba565b5b613955826131c8565b9050602081019050919050565b5f61397461396f84613932565b613718565b9050828152602081018484840111156139905761398f6136b6565b5b61399b848285613762565b509392505050565b5f82601f8301126139b7576139b66136b2565b5b81356139c7848260208601613962565b91505092915050565b5f5f5f5f608085870312156139e8576139e76130e5565b5b5f6139f5878288016132fc565b9450506020613a06878288016132fc565b9350506040613a178782880161324f565b925050606085013567ffffffffffffffff811115613a3857613a376130e9565b5b613a44878288016139a3565b91505092959194509250565b613a5981613540565b82525050565b5f61012082019050613a735f83018c61368a565b613a80602083018b6132be565b613a8d604083018a61368a565b613a9a606083018961368a565b613aa7608083018861368a565b613ab460a083018761368a565b613ac160c083018661368a565b613ace60e0830185613a50565b818103610100830152613ae181846131d8565b90509a9950505050505050505050565b5f5f60408385031215613b0757613b066130e5565b5b5f613b14858286016132fc565b9250506020613b25858286016132fc565b9150509250929050565b7f4e487b71000000000000000000000000000000000000000000000000000000005f52602260045260245ffd5b5f6002820490506001821680613b7357607f821691505b602082108103613b8657613b85613b2f565b5b50919050565b5f606082019050613b9f5f8301866132be565b613bac602083018561368a565b613bb960408301846132be565b949350505050565b7f506f6c69637920646f6573206e6f7420657869737400000000000000000000005f82015250565b5f613bf56015836131aa565b9150613c0082613bc1565b602082019050919050565b5f6020820190508181035f830152613c2281613be9565b9050919050565b7f4e487b71000000000000000000000000000000000000000000000000000000005f52601160045260245ffd5b5f613c6082613230565b9150613c6b83613230565b9250828201905080821115613c8357613c82613c29565b5b92915050565b7f4f6e6c7920696e737572616e6365206d616e616765722063616e2063616c6c205f8201527f7468697300000000000000000000000000000000000000000000000000000000602082015250565b5f613ce36024836131aa565b9150613cee82613c89565b604082019050919050565b5f6020820190508181035f830152613d1081613cd7565b9050919050565b7f506f6c696379206973206e6f74206163746976650000000000000000000000005f82015250565b5f613d4b6014836131aa565b9150613d5682613d17565b602082019050919050565b5f6020820190508181035f830152613d7881613d3f565b9050919050565b7f436c61696d206578636565647320636f766572616765000000000000000000005f82015250565b5f613db36016836131aa565b9150613dbe82613d7f565b602082019050919050565b5f6020820190508181035f830152613de081613da7565b9050919050565b5f819050815f5260205f209050919050565b5f6020601f8301049050919050565b5f82821b905092915050565b5f60088302613e437fffffffffffffffffffffffffffffffffffffffffffffffffffffffffffffffff82613e08565b613e4d8683613e08565b95508019841693508086168417925050509392505050565b5f819050919050565b5f613e88613e83613e7e84613230565b613e65565b613230565b9050919050565b5f819050919050565b613ea183613e6e565b613eb5613ead82613e8f565b848454613e14565b825550505050565b5f5f905090565b613ecc613ebd565b613ed7818484613e98565b505050565b5b81811015613efa57613eef5f82613ec4565b600181019050613edd565b5050565b601f821115613f3f57613f1081613de7565b613f1984613df9565b81016020851015613f28578190505b613f3c613f3485613df9565b830182613edc565b50505b505050565b5f82821c905092915050565b5f613f5f5f1984600802613f44565b1980831691505092915050565b5f613f778383613f50565b9150826002028217905092915050565b613f90826131a0565b67ffffffffffffffff811115613fa957613fa86136ba565b5b613fb38254613b5c565b613fbe828285613efe565b5f60209050601f831160018114613fef575f8415613fdd578287015190505b613fe78582613f6c565b86555061404e565b601f198416613ffd86613de7565b5f5b8281101561402457848901518255600182019150602085019450602081019050613fff565b86831015614041578489015161403d601f891682613f50565b8355505b6001600288020188555050505b505050505050565b5f61406082613230565b91507fffffffffffffffffffffffffffffffffffffffffffffffffffffffffffffffff820361409257614091613c29565b5b600182019050919050565b7f4e6f7420617574686f72697a65640000000000000000000000000000000000005f82015250565b5f6140d1600e836131aa565b91506140dc8261409d565b602082019050919050565b5f6020820190508181035f8301526140fe816140c5565b9050919050565b7f55524920717565727920666f72206e6f6e6578697374656e7420746f6b656e005f82015250565b5f614139601f836131aa565b915061414482614105565b602082019050919050565b5f6020820190508181035f8301526141668161412d565b9050919050565b5f81905092915050565b5f614181826131a0565b61418b818561416d565b935061419b8185602086016131ba565b80840191505092915050565b5f6141b28285614177565b91506141be8284614177565b91508190509392505050565b5f81519050919050565b5f82825260208201905092915050565b5f6141ee826141ca565b6141f881856141d4565b93506142088185602086016131ba565b614211816131c8565b840191505092915050565b5f60808201905061422f5f8301876132be565b61423c60208301866132be565b614249604083018561368a565b818103606083015261425b81846141e4565b905095945050505050565b5f8151905061427481613118565b92915050565b5f6020828403121561428f5761428e6130e5565b5b5f61429c84828501614266565b91505092915050565b7f4e487b71000000000000000000000000000000000000000000000000000000005f52601260045260245ffd5b5f6040820190506142e55f8301856132be565b6142f2602083018461368a565b939250505056fea26469706673582212209beb907ec945e80cc5abba85efddde5170b0b0a9811fe9e6243f50b106f2485664736f6c634300081e0033","linkReferences":{}},"methodIdentifiers":{"activePolicies(uint256)":"5af099c9","approve(address,uint256)":"095ea7b3","assetRegistry()":"979d7e86","balanceOf(address)":"70a08231","cancelPolicy(uint256)":"b20e8bcc","createPolicy(address,uint256,uint256,uint256,uint256,string)":"6a0d34d6","expirePolicy(uint256)":"3037e4cd","getApproved(uint256)":"081812fc","getPolicy(uint256)":"2b07fce3","getUserPolicies(address)":"19ac4614","insuranceManager()":"f3523fa4","isApprovedForAll(address,address)":"e985e9c5","isPolicyActive(uint256)":"bd8afa46","isPremiumOverdue(uint256,uint256)":"2ac45f04","name()":"06fdde03","owner()":"8da5cb5b","ownerOf(uint256)":"6352211e","pause()":"8456cb59","paused()":"5c975abb","policies(uint256)":"d3e89483","processClaim(uint256,uint256)":"47daf366","recordPremiumPayment(uint256)":"bf3b818e","renounceOwnership()":"715018a6","safeTransferFrom(address,address,uint256)":"42842e0e","safeTransferFrom(address,address,uint256,bytes)":"b88d4fde","setApprovalForAll(address,bool)":"a22cb465","setAssetRegistry(address)":"e84d033c","setBaseURI(string)":"55f804b3","setInsuranceManager(address)":"b51386f4","supportsInterface(bytes4)":"01ffc9a7","symbol()":"95d89b41","tokenURI(uint256)":"c87b56dd","transferFrom(address,address,uint256)":"23b872dd","transferOwnership(address)":"f2fde38b","unpause()":"3f4ba83a","userPolicies(address,uint256)":"3d36adc5"},"id":47}