{"abi":[{"type":"constructor","inputs":[{"name":"_paymentToken","type":"address","internalType":"address"}],"stateMutability":"nonpayable"},{"type":"function","name":"BASIS_POINTS","inputs":[],"outputs":[{"name":"","type":"uint256","internalType":"uint256"}],"stateMutability":"view"},{"type":"function","name":"authorizeExecutor","inputs":[{"name":"executor","type":"address","internalType":"address"}],"outputs":[],"stateMutability":"nonpayable"},{"type":"function","name":"authorizedExecutors","inputs":[{"name":"","type":"address","internalType":"address"}],"outputs":[{"name":"","type":"bool","internalType":"bool"}],"stateMutability":"view"},{"type":"function","name":"batchExecutePayments","inputs":[{"name":"subscriptionIds","type":"uint256[]","internalType":"uint256[]"}],"outputs":[],"stateMutability":"nonpayable"},{"type":"function","name":"cancelSubscription","inputs":[{"name":"subscriptionId","type":"uint256","internalType":"uint256"}],"outputs":[],"stateMutability":"nonpayable"},{"type":"function","name":"createSubscription","inputs":[{"name":"recipient","type":"address","internalType":"address"},{"name":"amount","type":"uint256","internalType":"uint256"},{"name":"period","type":"uint256","internalType":"uint256"},{"name":"duration","type":"uint256","internalType":"uint256"},{"name":"policyId","type":"uint256","internalType":"uint256"}],"outputs":[{"name":"","type":"uint256","internalType":"uint256"}],"stateMutability":"nonpayable"},{"type":"function","name":"executePayment","inputs":[{"name":"subscriptionId","type":"uint256","internalType":"uint256"}],"outputs":[],"stateMutability":"nonpayable"},{"type":"function","name":"executorRewardPercent","inputs":[],"outputs":[{"name":"","type":"uint256","internalType":"uint256"}],"stateMutability":"view"},{"type":"function","name":"getDuePayments","inputs":[{"name":"limit","type":"uint256","internalType":"uint256"}],"outputs":[{"name":"","type":"uint256[]","internalType":"uint256[]"}],"stateMutability":"view"},{"type":"function","name":"getSubscription","inputs":[{"name":"subscriptionId","type":"uint256","internalType":"uint256"}],"outputs":[{"name":"","type":"tuple","internalType":"struct PremiumSubscription.Subscription","components":[{"name":"subscriptionId","type":"uint256","internalType":"uint256"},{"name":"subscriber","type":"address","internalType":"address"},{"name":"recipient","type":"address","internalType":"address"},{"name":"amount","type":"uint256","internalType":"uint256"},{"name":"period","type":"uint256","internalType":"uint256"},{"name":"startTime","type":"uint256","internalType":"uint256"},{"name":"nextPayment","type":"uint256","internalType":"uint256"},{"name":"endTime","type":"uint256","internalType":"uint256"},{"name":"status","type":"uint8","internalType":"enum PremiumSubscription.SubscriptionStatus"},{"name":"policyId","type":"uint256","internalType":"uint256"},{"name":"totalPaid","type":"uint256","internalType":"uint256"},{"name":"paymentCount","type":"uint256","internalType":"uint256"}]}],"stateMutability":"view"},{"type":"function","name":"getSubscriptionStats","inputs":[],"outputs":[{"name":"totalSubscriptions","type":"uint256","internalType":"uint256"},{"name":"activeSubscriptions","type":"uint256","internalType":"uint256"},{"name":"totalPaymentVolume","type":"uint256","internalType":"uint256"}],"stateMutability":"view"},{"type":"function","name":"getUserSubscriptions","inputs":[{"name":"user","type":"address","internalType":"address"}],"outputs":[{"name":"","type":"uint256[]","internalType":"uint256[]"}],"stateMutability":"view"},{"type":"function","name":"gracePeriod","inputs":[],"outputs":[{"name":"","type":"uint256","internalType":"uint256"}],"stateMutability":"view"},{"type":"function","name":"isPaymentDue","inputs":[{"name":"subscriptionId","type":"uint256","internalType":"uint256"}],"outputs":[{"name":"","type":"bool","internalType":"bool"}],"stateMutability":"view"},{"type":"function","name":"isSubscriptionOverdue","inputs":[{"name":"subscriptionId","type":"uint256","internalType":"uint256"}],"outputs":[{"name":"","type":"bool","internalType":"bool"}],"stateMutability":"view"},{"type":"function","name":"owner","inputs":[],"outputs":[{"name":"","type":"address","internalType":"address"}],"stateMutability":"view"},{"type":"function","name":"pause","inputs":[],"outputs":[],"stateMutability":"nonpayable"},{"type":"function","name":"pauseSubscription","inputs":[{"name":"subscriptionId","type":"uint256","internalType":"uint256"}],"outputs":[],"stateMutability":"nonpayable"},{"type":"function","name":"paused","inputs":[],"outputs":[{"name":"","type":"bool","internalType":"bool"}],"stateMutability":"view"},{"type":"function","name":"paymentToken","inputs":[],"outputs":[{"name":"","type":"address","internalType":"contract IERC20"}],"stateMutability":"view"},{"type":"function","name":"policySubscriptions","inputs":[{"name":"","type":"uint256","internalType":"uint256"}],"outputs":[{"name":"","type":"uint256","internalType":"uint256"}],"stateMutability":"view"},{"type":"function","name":"renounceOwnership","inputs":[],"outputs":[],"stateMutability":"nonpayable"},{"type":"function","name":"resumeSubscription","inputs":[{"name":"subscriptionId","type":"uint256","internalType":"uint256"}],"outputs":[],"stateMutability":"nonpayable"},{"type":"function","name":"revokeExecutor","inputs":[{"name":"executor","type":"address","internalType":"address"}],"outputs":[],"stateMutability":"nonpayable"},{"type":"function","name":"subscriptions","inputs":[{"name":"","type":"uint256","internalType":"uint256"}],"outputs":[{"name":"subscriptionId","type":"uint256","internalType":"uint256"},{"name":"subscriber","type":"address","internalType":"address"},{"name":"recipient","type":"address","internalType":"address"},{"name":"amount","type":"uint256","internalType":"uint256"},{"name":"period","type":"uint256","internalType":"uint256"},{"name":"startTime","type":"uint256","internalType":"uint256"},{"name":"nextPayment","type":"uint256","internalType":"uint256"},{"name":"endTime","type":"uint256","internalType":"uint256"},{"name":"status","type":"uint8","internalType":"enum PremiumSubscription.SubscriptionStatus"},{"name":"policyId","type":"uint256","internalType":"uint256"},{"name":"totalPaid","type":"uint256","internalType":"uint256"},{"name":"paymentCount","type":"uint256","internalType":"uint256"}],"stateMutability":"view"},{"type":"function","name":"transferOwnership","inputs":[{"name":"newOwner","type":"address","internalType":"address"}],"outputs":[],"stateMutability":"nonpayable"},{"type":"function","name":"unpause","inputs":[],"outputs":[],"stateMutability":"nonpayable"},{"type":"function","name":"updateExecutorReward","inputs":[{"name":"newRewardPercent","type":"uint256","internalType":"uint256"}],"outputs":[],"stateMutability":"nonpayable"},{"type":"function","name":"updateGracePeriod","inputs":[{"name":"newGracePeriod","type":"uint256","internalType":"uint256"}],"outputs":[],"stateMutability":"nonpayable"},{"type":"function","name":"userSubscriptions","inputs":[{"name":"","type":"address","internalType":"address"},{"name":"","type":"uint256","internalType":"uint256"}],"outputs":[{"name":"","type":"uint256","internalType":"uint256"}],"stateMutability":"view"},{"type":"event","name":"OwnershipTransferred","inputs":[{"name":"previousOwner","type":"address","indexed":true,"internalType":"address"},{"name":"newOwner","type":"address","indexed":true,"internalType":"address"}],"anonymous":false},{"type":"event","name":"Paused","inputs":[{"name":"account","type":"address","indexed":false,"internalType":"address"}],"anonymous":false},{"type":"event","name":"PaymentExecuted","inputs":[{"name":"subscriptionId","type":"uint256","indexed":true,"internalType":"uint256"},{"name":"amount","type":"uint256","indexed":false,"internalType":"uint256"},{"name":"executor","type":"address","indexed":false,"internalType":"address"},{"name":"nextPayment","type":"uint256","indexed":false,"internalType":"uint256"}],"anonymous":false},{"type":"event","name":"SubscriptionCancelled","inputs":[{"name":"subscriptionId","type":"uint256","indexed":true,"internalType":"uint256"}],"anonymous":false},{"type":"event","name":"SubscriptionCreated","inputs":[{"name":"subscriptionId","type":"uint256","indexed":true,"internalType":"uint256"},{"name":"subscriber","type":"address","indexed":true,"internalType":"address"},{"name":"recipient","type":"address","indexed":true,"internalType":"address"},{"name":"amount","type":"uint256","indexed":false,"internalType":"uint256"},{"name":"period","type":"uint256","indexed":false,"internalType":"uint256"}],"anonymous":false},{"type":"event","name":"SubscriptionExpired","inputs":[{"name":"subscriptionId","type":"uint256","indexed":true,"internalType":"uint256"}],"anonymous":false},{"type":"event","name":"SubscriptionPaused","inputs":[{"name":"subscriptionId","type":"uint256","indexed":true,"internalType":"uint256"}],"anonymous":false},{"type":"event","name":"SubscriptionResumed","inputs":[{"name":"subscriptionId","type":"uint256","indexed":true,"internalType":"uint256"}],"anonymous":false},{"type":"event","name":"Unpaused","inputs":[{"name":"account","type":"address","indexed":false,"internalType":"address"}],"anonymous":false},{"type":"error","name":"EnforcedPause","inputs":[]},{"type":"error","name":"ExpectedPause","inputs":[]},{"type":"error","name":"OwnableInvalidOwner","inputs":[{"name":"owner","type":"address","internalType":"address"}]},{"type":"error","name":"OwnableUnauthorizedAccount","inputs":[{"name":"account","type":"address","internalType":"address"}]},{"type":"error","name":"ReentrancyGuardReentrantCall","inputs":[]}],"bytecode":{"object":"0x60a0604052603260075562093a8060085534801561001b575f5ffd5b50604051613c48380380613c48833981810160405281019061003d919061028c565b335f73ffffffffffffffffffffffffffffffffffffffff168173ffffffffffffffffffffffffffffffffffffffff16036100ae575f6040517f1e4fbdf70000000000000000000000000000000000000000000000000000000081526004016100a591906102c6565b60405180910390fd5b6100bd8161016d60201b60201c565b505f5f60146101000a81548160ff021916908315150217905550600180819055508073ffffffffffffffffffffffffffffffffffffffff1660808173ffffffffffffffffffffffffffffffffffffffff1681525050600160065f3373ffffffffffffffffffffffffffffffffffffffff1673ffffffffffffffffffffffffffffffffffffffff1681526020019081526020015f205f6101000a81548160ff021916908315150217905550506102df565b5f5f5f9054906101000a900473ffffffffffffffffffffffffffffffffffffffff169050815f5f6101000a81548173ffffffffffffffffffffffffffffffffffffffff021916908373ffffffffffffffffffffffffffffffffffffffff1602179055508173ffffffffffffffffffffffffffffffffffffffff168173ffffffffffffffffffffffffffffffffffffffff167f8be0079c531659141344cd1fd0a4f28419497f9722a3daafe3b4186f6b6457e060405160405180910390a35050565b5f5ffd5b5f73ffffffffffffffffffffffffffffffffffffffff82169050919050565b5f61025b82610232565b9050919050565b61026b81610251565b8114610275575f5ffd5b50565b5f8151905061028681610262565b92915050565b5f602082840312156102a1576102a061022e565b5b5f6102ae84828501610278565b91505092915050565b6102c081610251565b82525050565b5f6020820190506102d95f8301846102b7565b92915050565b6080516139436103055f395f8181610a5d01528181610c6201526110ea01526139435ff3fe608060405234801561000f575f5ffd5b50600436106101d8575f3560e01c8063715018a611610102578063bef649e8116100a0578063dc311dd31161006f578063dc311dd314610537578063e1f1c4a714610567578063e816e87f14610585578063f2fde38b146105b5576101d8565b8063bef649e81461049f578063c95d6edc146104cf578063d2cba11d146104ff578063d51012511461051b576101d8565b80638da5cb5b116100dc5780638da5cb5b14610417578063986ac0e914610435578063a06db7dc14610451578063a72f44de1461046f576101d8565b8063715018a6146103d35780637b6f0bc0146103dd5780638456cb591461040d576101d8565b80633f4ba83a1161017a5780635c975abb116101495780635c975abb14610349578063643590f914610367578063679d86a7146103835780636cbb8671146103b3576101d8565b80633f4ba83a146102e957806341f23f0a146102f3578063591a7aa91461030f5780635ab98d5a1461032d576101d8565b8063286002a8116101b6578063286002a8146102305780632d5bbf60146102605780632e6ca5881461029b5780633013ce29146102cb576101d8565b8063023a584e146101dc578063162a0cf8146101f85780632123508314610214575b5f5ffd5b6101f660048036038101906101f19190612882565b6105d1565b005b610212600480360381019061020d9190612882565b610799565b005b61022e60048036038101906102299190612882565b610d4c565b005b61024a60048036038101906102459190612882565b610f9a565b60405161025791906128bc565b60405180910390f35b61027a60048036038101906102759190612882565b610faf565b6040516102929c9b9a99989796959493929190612987565b60405180910390f35b6102b560048036038101906102b09190612a69565b611055565b6040516102c29190612b4b565b60405180910390f35b6102d36110e8565b6040516102e09190612bc6565b60405180910390f35b6102f161110c565b005b61030d60048036038101906103089190612882565b61111e565b005b610317611296565b60405161032491906128bc565b60405180910390f35b61034760048036038101906103429190612882565b61129c565b005b6103516112f4565b60405161035e9190612bf9565b60405180910390f35b610381600480360381019061037c9190612a69565b611309565b005b61039d60048036038101906103989190612a69565b611369565b6040516103aa9190612bf9565b60405180910390f35b6103bb611386565b6040516103ca93929190612c12565b60405180910390f35b6103db611576565b005b6103f760048036038101906103f29190612882565b611589565b6040516104049190612b4b565b60405180910390f35b6104156118b2565b005b61041f6118c4565b60405161042c9190612c47565b60405180910390f35b61044f600480360381019061044a9190612882565b6118eb565b005b610459611942565b60405161046691906128bc565b60405180910390f35b61048960048036038101906104849190612c60565b611948565b60405161049691906128bc565b60405180910390f35b6104b960048036038101906104b49190612882565b611dab565b6040516104c69190612bf9565b60405180910390f35b6104e960048036038101906104e49190612cd7565b611f59565b6040516104f691906128bc565b60405180910390f35b61051960048036038101906105149190612e65565b611f84565b005b61053560048036038101906105309190612a69565b6120a8565b005b610551600480360381019061054c9190612882565b612107565b60405161055e9190612fbe565b60405180910390f35b61056f612270565b60405161057c91906128bc565b60405180910390f35b61059f600480360381019061059a9190612882565b612276565b6040516105ac9190612bf9565b60405180910390f35b6105cf60048036038101906105ca9190612a69565b612445565b005b5f60035f8381526020019081526020015f2090503373ffffffffffffffffffffffffffffffffffffffff16816001015f9054906101000a900473ffffffffffffffffffffffffffffffffffffffff1673ffffffffffffffffffffffffffffffffffffffff1614610676576040517f08c379a000000000000000000000000000000000000000000000000000000000815260040161066d90613032565b60405180910390fd5b6001600381111561068a57610689612914565b5b816008015f9054906101000a900460ff1660038111156106ad576106ac612914565b5b146106ed576040517f08c379a00000000000000000000000000000000000000000000000000000000081526004016106e49061309a565b60405180910390fd5b8060070154421115610734576040517f08c379a000000000000000000000000000000000000000000000000000000000815260040161072b90613102565b60405180910390fd5b4281600601819055505f816008015f6101000a81548160ff0219169083600381111561076357610762612914565b5b0217905550817ff3b82d5c7a305b507ab38c962ac94c1b16fc8eacd7de23d749e18ebadcf0a11d60405160405180910390a25050565b60065f3373ffffffffffffffffffffffffffffffffffffffff1673ffffffffffffffffffffffffffffffffffffffff1681526020019081526020015f205f9054906101000a900460ff16610822576040517f08c379a00000000000000000000000000000000000000000000000000000000081526004016108199061316a565b60405180910390fd5b61082a6124c9565b61083261250a565b5f60035f8381526020019081526020015f2090505f73ffffffffffffffffffffffffffffffffffffffff16816001015f9054906101000a900473ffffffffffffffffffffffffffffffffffffffff1673ffffffffffffffffffffffffffffffffffffffff16036108d7576040517f08c379a00000000000000000000000000000000000000000000000000000000081526004016108ce906131d2565b60405180910390fd5b5f60038111156108ea576108e9612914565b5b816008015f9054906101000a900460ff16600381111561090d5761090c612914565b5b1461094d576040517f08c379a00000000000000000000000000000000000000000000000000000000081526004016109449061323a565b60405180910390fd5b8060060154421015610994576040517f08c379a000000000000000000000000000000000000000000000000000000000815260040161098b906132a2565b60405180910390fd5b80600701544211156109db576040517f08c379a00000000000000000000000000000000000000000000000000000000081526004016109d290613102565b60405180910390fd5b60085481600601546109ed91906132ed565b421115610a53576003816008015f6101000a81548160ff02191690836003811115610a1b57610a1a612914565b5b0217905550817f3ba88dbd17f56b4d283dc25a121073c946c9052c9829a3c4147dcc1841ce068e60405160405180910390a250610d41565b5f816003015490507f000000000000000000000000000000000000000000000000000000000000000073ffffffffffffffffffffffffffffffffffffffff166323b872dd836001015f9054906101000a900473ffffffffffffffffffffffffffffffffffffffff16846002015f9054906101000a900473ffffffffffffffffffffffffffffffffffffffff16846040518463ffffffff1660e01b8152600401610afe93929190613320565b6020604051808303815f875af1158015610b1a573d5f5f3e3d5ffd5b505050506040513d601f19601f82011682018060405250810190610b3e919061337f565b610b7d576040517f08c379a0000000000000000000000000000000000000000000000000000000008152600401610b74906133f4565b60405180910390fd5b8082600a015f828254610b9091906132ed565b92505081905550600182600b015f828254610bab91906132ed565b925050819055508160040154826006015f828254610bc991906132ed565b92505081905550816007015482600601541115610c3a576003826008015f6101000a81548160ff02191690836003811115610c0757610c06612914565b5b0217905550827f3ba88dbd17f56b4d283dc25a121073c946c9052c9829a3c4147dcc1841ce068e60405160405180910390a25b5f61271060075483610c4c9190613412565b610c569190613480565b90505f811115610cfd577f000000000000000000000000000000000000000000000000000000000000000073ffffffffffffffffffffffffffffffffffffffff1663a9059cbb33836040518363ffffffff1660e01b8152600401610cbb9291906134b0565b6020604051808303815f875af1158015610cd7573d5f5f3e3d5ffd5b505050506040513d601f19601f82011682018060405250810190610cfb919061337f565b505b837f2228f8cbb17a09a722723c4196bb32d5506e02b64960ae2f03f04c43f63d5cac83338660060154604051610d35939291906134d7565b60405180910390a25050505b610d49612550565b50565b610d546124c9565b5f60035f8381526020019081526020015f2090505f73ffffffffffffffffffffffffffffffffffffffff16816001015f9054906101000a900473ffffffffffffffffffffffffffffffffffffffff1673ffffffffffffffffffffffffffffffffffffffff1603610df9576040517f08c379a0000000000000000000000000000000000000000000000000000000008152600401610df0906131d2565b60405180910390fd5b3373ffffffffffffffffffffffffffffffffffffffff16816001015f9054906101000a900473ffffffffffffffffffffffffffffffffffffffff1673ffffffffffffffffffffffffffffffffffffffff161480610e8857503373ffffffffffffffffffffffffffffffffffffffff16610e706118c4565b73ffffffffffffffffffffffffffffffffffffffff16145b610ec7576040517f08c379a0000000000000000000000000000000000000000000000000000000008152600401610ebe90613556565b60405180910390fd5b5f6003811115610eda57610ed9612914565b5b816008015f9054906101000a900460ff166003811115610efd57610efc612914565b5b14610f3d576040517f08c379a0000000000000000000000000000000000000000000000000000000008152600401610f349061323a565b60405180910390fd5b6002816008015f6101000a81548160ff02191690836003811115610f6457610f63612914565b5b0217905550817fbd2bcea75d16a85f005cd83447e0de57341bf926fe7419e6d553663e91ab4da760405160405180910390a25050565b6005602052805f5260405f205f915090505481565b6003602052805f5260405f205f91509050805f015490806001015f9054906101000a900473ffffffffffffffffffffffffffffffffffffffff1690806002015f9054906101000a900473ffffffffffffffffffffffffffffffffffffffff1690806003015490806004015490806005015490806006015490806007015490806008015f9054906101000a900460ff169080600901549080600a01549080600b015490508c565b606060045f8373ffffffffffffffffffffffffffffffffffffffff1673ffffffffffffffffffffffffffffffffffffffff1681526020019081526020015f208054806020026020016040519081016040528092919081815260200182805480156110dc57602002820191905f5260205f20905b8154815260200190600101908083116110c8575b50505050509050919050565b7f000000000000000000000000000000000000000000000000000000000000000081565b611114612559565b61111c6125e0565b565b5f60035f8381526020019081526020015f2090503373ffffffffffffffffffffffffffffffffffffffff16816001015f9054906101000a900473ffffffffffffffffffffffffffffffffffffffff1673ffffffffffffffffffffffffffffffffffffffff16146111c3576040517f08c379a00000000000000000000000000000000000000000000000000000000081526004016111ba90613032565b60405180910390fd5b5f60038111156111d6576111d5612914565b5b816008015f9054906101000a900460ff1660038111156111f9576111f8612914565b5b14611239576040517f08c379a00000000000000000000000000000000000000000000000000000000081526004016112309061323a565b60405180910390fd5b6001816008015f6101000a81548160ff021916908360038111156112605761125f612914565b5b0217905550817fbae5b137562fc2bbc1b14485b2812e506122725b29b6ccdae366ce8d6f99a26260405160405180910390a25050565b60075481565b6112a4612559565b62278d008111156112ea576040517f08c379a00000000000000000000000000000000000000000000000000000000081526004016112e1906135be565b60405180910390fd5b8060088190555050565b5f5f60149054906101000a900460ff16905090565b611311612559565b600160065f8373ffffffffffffffffffffffffffffffffffffffff1673ffffffffffffffffffffffffffffffffffffffff1681526020019081526020015f205f6101000a81548160ff02191690831515021790555050565b6006602052805f5260405f205f915054906101000a900460ff1681565b5f5f5f5f5f90505f5f90505f600190505b6002548111611563575f60035f8381526020019081526020015f20604051806101800160405290815f8201548152602001600182015f9054906101000a900473ffffffffffffffffffffffffffffffffffffffff1673ffffffffffffffffffffffffffffffffffffffff1673ffffffffffffffffffffffffffffffffffffffff168152602001600282015f9054906101000a900473ffffffffffffffffffffffffffffffffffffffff1673ffffffffffffffffffffffffffffffffffffffff1673ffffffffffffffffffffffffffffffffffffffff1681526020016003820154815260200160048201548152602001600582015481526020016006820154815260200160078201548152602001600882015f9054906101000a900460ff1660038111156114c7576114c6612914565b5b60038111156114d9576114d8612914565b5b815260200160098201548152602001600a8201548152602001600b8201548152505090505f60038111156115105761150f612914565b5b816101000151600381111561152857611527612914565b5b0361153c578380611538906135dc565b9450505b8061014001518361154d91906132ed565b925050808061155b906135dc565b915050611397565b5060025482829450945094505050909192565b61157e612559565b6115875f612641565b565b60605f8267ffffffffffffffff8111156115a6576115a5612d29565b5b6040519080825280602002602001820160405280156115d45781602001602082028036833780820191505090505b5090505f5f90505f600190505b60025481111580156115f257508482105b15611805575f60035f8381526020019081526020015f20604051806101800160405290815f8201548152602001600182015f9054906101000a900473ffffffffffffffffffffffffffffffffffffffff1673ffffffffffffffffffffffffffffffffffffffff1673ffffffffffffffffffffffffffffffffffffffff168152602001600282015f9054906101000a900473ffffffffffffffffffffffffffffffffffffffff1673ffffffffffffffffffffffffffffffffffffffff1673ffffffffffffffffffffffffffffffffffffffff1681526020016003820154815260200160048201548152602001600582015481526020016006820154815260200160078201548152602001600882015f9054906101000a900460ff16600381111561171e5761171d612914565b5b60038111156117305761172f612914565b5b815260200160098201548152602001600a8201548152602001600b8201548152505090505f600381111561176757611766612914565b5b816101000151600381111561177f5761177e612914565b5b14801561179057508060c001514210155b80156117a057508060e001514211155b80156117bd57506008548160c001516117b991906132ed565b4211155b156117f157818484815181106117d6576117d5613623565b5b60200260200101818152505082806117ed906135dc565b9350505b5080806117fd906135dc565b9150506115e1565b505f8167ffffffffffffffff81111561182157611820612d29565b5b60405190808252806020026020018201604052801561184f5781602001602082028036833780820191505090505b5090505f5f90505b828110156118a65783818151811061187257611871613623565b5b602002602001015182828151811061188d5761188c613623565b5b6020026020010181815250508080600101915050611857565b50809350505050919050565b6118ba612559565b6118c2612702565b565b5f5f5f9054906101000a900473ffffffffffffffffffffffffffffffffffffffff16905090565b6118f3612559565b6101f4811115611938576040517f08c379a000000000000000000000000000000000000000000000000000000000815260040161192f9061369a565b60405180910390fd5b8060078190555050565b60085481565b5f6119516124c9565b5f73ffffffffffffffffffffffffffffffffffffffff168673ffffffffffffffffffffffffffffffffffffffff16036119bf576040517f08c379a00000000000000000000000000000000000000000000000000000000081526004016119b690613702565b60405180910390fd5b5f8511611a01576040517f08c379a00000000000000000000000000000000000000000000000000000000081526004016119f89061376a565b60405180910390fd5b5f8411611a43576040517f08c379a0000000000000000000000000000000000000000000000000000000008152600401611a3a906137d2565b60405180910390fd5b838311611a85576040517f08c379a0000000000000000000000000000000000000000000000000000000008152600401611a7c90613860565b60405180910390fd5b5f60055f8481526020019081526020015f205414611ad8576040517f08c379a0000000000000000000000000000000000000000000000000000000008152600401611acf906138c8565b60405180910390fd5b5f60025f8154611ae7906135dc565b91905081905590505f4290505f8582611b0091906132ed565b90506040518061018001604052808481526020013373ffffffffffffffffffffffffffffffffffffffff1681526020018a73ffffffffffffffffffffffffffffffffffffffff1681526020018981526020018881526020018381526020018381526020018281526020015f6003811115611b7d57611b7c612914565b5b81526020018681526020015f81526020015f81525060035f8581526020019081526020015f205f820151815f01556020820151816001015f6101000a81548173ffffffffffffffffffffffffffffffffffffffff021916908373ffffffffffffffffffffffffffffffffffffffff1602179055506040820151816002015f6101000a81548173ffffffffffffffffffffffffffffffffffffffff021916908373ffffffffffffffffffffffffffffffffffffffff160217905550606082015181600301556080820151816004015560a0820151816005015560c0820151816006015560e08201518160070155610100820151816008015f6101000a81548160ff02191690836003811115611c9457611c93612914565b5b0217905550610120820151816009015561014082015181600a015561016082015181600b015590505060045f3373ffffffffffffffffffffffffffffffffffffffff1673ffffffffffffffffffffffffffffffffffffffff1681526020019081526020015f2083908060018154018082558091505060019003905f5260205f20015f90919091909150558260055f8781526020019081526020015f20819055508873ffffffffffffffffffffffffffffffffffffffff163373ffffffffffffffffffffffffffffffffffffffff16847f11a7acdb40f12388db0682ce7cdb5ffb4d01939a9b0cf653f7c1af7c2f238ad88b8b604051611d949291906138e6565b60405180910390a482935050505095945050505050565b5f5f60035f8481526020019081526020015f20604051806101800160405290815f8201548152602001600182015f9054906101000a900473ffffffffffffffffffffffffffffffffffffffff1673ffffffffffffffffffffffffffffffffffffffff1673ffffffffffffffffffffffffffffffffffffffff168152602001600282015f9054906101000a900473ffffffffffffffffffffffffffffffffffffffff1673ffffffffffffffffffffffffffffffffffffffff1673ffffffffffffffffffffffffffffffffffffffff1681526020016003820154815260200160048201548152602001600582015481526020016006820154815260200160078201548152602001600882015f9054906101000a900460ff166003811115611ed357611ed2612914565b5b6003811115611ee557611ee4612914565b5b815260200160098201548152602001600a8201548152602001600b8201548152505090505f6003811115611f1c57611f1b612914565b5b8161010001516003811115611f3457611f33612914565b5b148015611f5157506008548160c00151611f4e91906132ed565b42115b915050919050565b6004602052815f5260405f208181548110611f72575f80fd5b905f5260205f20015f91509150505481565b60065f3373ffffffffffffffffffffffffffffffffffffffff1673ffffffffffffffffffffffffffffffffffffffff1681526020019081526020015f205f9054906101000a900460ff1661200d576040517f08c379a00000000000000000000000000000000000000000000000000000000081526004016120049061316a565b60405180910390fd5b5f5f90505b81518110156120a4573073ffffffffffffffffffffffffffffffffffffffff1663162a0cf883838151811061204a57612049613623565b5b60200260200101516040518263ffffffff1660e01b815260040161206e91906128bc565b5f604051808303815f87803b158015612085575f5ffd5b505af1925050508015612096575060015b508080600101915050612012565b5050565b6120b0612559565b5f60065f8373ffffffffffffffffffffffffffffffffffffffff1673ffffffffffffffffffffffffffffffffffffffff1681526020019081526020015f205f6101000a81548160ff02191690831515021790555050565b61210f6127ab565b60035f8381526020019081526020015f20604051806101800160405290815f8201548152602001600182015f9054906101000a900473ffffffffffffffffffffffffffffffffffffffff1673ffffffffffffffffffffffffffffffffffffffff1673ffffffffffffffffffffffffffffffffffffffff168152602001600282015f9054906101000a900473ffffffffffffffffffffffffffffffffffffffff1673ffffffffffffffffffffffffffffffffffffffff1673ffffffffffffffffffffffffffffffffffffffff1681526020016003820154815260200160048201548152602001600582015481526020016006820154815260200160078201548152602001600882015f9054906101000a900460ff16600381111561223557612234612914565b5b600381111561224757612246612914565b5b815260200160098201548152602001600a8201548152602001600b820154815250509050919050565b61271081565b5f5f60035f8481526020019081526020015f20604051806101800160405290815f8201548152602001600182015f9054906101000a900473ffffffffffffffffffffffffffffffffffffffff1673ffffffffffffffffffffffffffffffffffffffff1673ffffffffffffffffffffffffffffffffffffffff168152602001600282015f9054906101000a900473ffffffffffffffffffffffffffffffffffffffff1673ffffffffffffffffffffffffffffffffffffffff1673ffffffffffffffffffffffffffffffffffffffff1681526020016003820154815260200160048201548152602001600582015481526020016006820154815260200160078201548152602001600882015f9054906101000a900460ff16600381111561239e5761239d612914565b5b60038111156123b0576123af612914565b5b815260200160098201548152602001600a8201548152602001600b8201548152505090505f60038111156123e7576123e6612914565b5b81610100015160038111156123ff576123fe612914565b5b14801561241057508060c001514210155b801561242057508060e001514211155b801561243d57506008548160c0015161243991906132ed565b4211155b915050919050565b61244d612559565b5f73ffffffffffffffffffffffffffffffffffffffff168173ffffffffffffffffffffffffffffffffffffffff16036124bd575f6040517f1e4fbdf70000000000000000000000000000000000000000000000000000000081526004016124b49190612c47565b60405180910390fd5b6124c681612641565b50565b6124d16112f4565b15612508576040517fd93c066500000000000000000000000000000000000000000000000000000000815260040160405180910390fd5b565b600260015403612546576040517f3ee5aeb500000000000000000000000000000000000000000000000000000000815260040160405180910390fd5b6002600181905550565b60018081905550565b612561612764565b73ffffffffffffffffffffffffffffffffffffffff1661257f6118c4565b73ffffffffffffffffffffffffffffffffffffffff16146125de576125a2612764565b6040517f118cdaa70000000000000000000000000000000000000000000000000000000081526004016125d59190612c47565b60405180910390fd5b565b6125e861276b565b5f5f60146101000a81548160ff0219169083151502179055507f5db9ee0a495bf2e6ff9c91a7834c1ba4fdd244a5e8aa4e537bd38aeae4b073aa61262a612764565b6040516126379190612c47565b60405180910390a1565b5f5f5f9054906101000a900473ffffffffffffffffffffffffffffffffffffffff169050815f5f6101000a81548173ffffffffffffffffffffffffffffffffffffffff021916908373ffffffffffffffffffffffffffffffffffffffff1602179055508173ffffffffffffffffffffffffffffffffffffffff168173ffffffffffffffffffffffffffffffffffffffff167f8be0079c531659141344cd1fd0a4f28419497f9722a3daafe3b4186f6b6457e060405160405180910390a35050565b61270a6124c9565b60015f60146101000a81548160ff0219169083151502179055507f62e78cea01bee320cd4e420270b5ea74000d11b0c9f74754ebdbfc544b05a25861274d612764565b60405161275a9190612c47565b60405180910390a1565b5f33905090565b6127736112f4565b6127a9576040517f8dfc202b00000000000000000000000000000000000000000000000000000000815260040160405180910390fd5b565b6040518061018001604052805f81526020015f73ffffffffffffffffffffffffffffffffffffffff1681526020015f73ffffffffffffffffffffffffffffffffffffffff1681526020015f81526020015f81526020015f81526020015f81526020015f81526020015f600381111561282657612825612914565b5b81526020015f81526020015f81526020015f81525090565b5f604051905090565b5f5ffd5b5f5ffd5b5f819050919050565b6128618161284f565b811461286b575f5ffd5b50565b5f8135905061287c81612858565b92915050565b5f6020828403121561289757612896612847565b5b5f6128a48482850161286e565b91505092915050565b6128b68161284f565b82525050565b5f6020820190506128cf5f8301846128ad565b92915050565b5f73ffffffffffffffffffffffffffffffffffffffff82169050919050565b5f6128fe826128d5565b9050919050565b61290e816128f4565b82525050565b7f4e487b71000000000000000000000000000000000000000000000000000000005f52602160045260245ffd5b6004811061295257612951612914565b5b50565b5f81905061296282612941565b919050565b5f61297182612955565b9050919050565b61298181612967565b82525050565b5f6101808201905061299b5f83018f6128ad565b6129a8602083018e612905565b6129b5604083018d612905565b6129c2606083018c6128ad565b6129cf608083018b6128ad565b6129dc60a083018a6128ad565b6129e960c08301896128ad565b6129f660e08301886128ad565b612a04610100830187612978565b612a126101208301866128ad565b612a206101408301856128ad565b612a2e6101608301846128ad565b9d9c50505050505050505050505050565b612a48816128f4565b8114612a52575f5ffd5b50565b5f81359050612a6381612a3f565b92915050565b5f60208284031215612a7e57612a7d612847565b5b5f612a8b84828501612a55565b91505092915050565b5f81519050919050565b5f82825260208201905092915050565b5f819050602082019050919050565b612ac68161284f565b82525050565b5f612ad78383612abd565b60208301905092915050565b5f602082019050919050565b5f612af982612a94565b612b038185612a9e565b9350612b0e83612aae565b805f5b83811015612b3e578151612b258882612acc565b9750612b3083612ae3565b925050600181019050612b11565b5085935050505092915050565b5f6020820190508181035f830152612b638184612aef565b905092915050565b5f819050919050565b5f612b8e612b89612b84846128d5565b612b6b565b6128d5565b9050919050565b5f612b9f82612b74565b9050919050565b5f612bb082612b95565b9050919050565b612bc081612ba6565b82525050565b5f602082019050612bd95f830184612bb7565b92915050565b5f8115159050919050565b612bf381612bdf565b82525050565b5f602082019050612c0c5f830184612bea565b92915050565b5f606082019050612c255f8301866128ad565b612c3260208301856128ad565b612c3f60408301846128ad565b949350505050565b5f602082019050612c5a5f830184612905565b92915050565b5f5f5f5f5f60a08688031215612c7957612c78612847565b5b5f612c8688828901612a55565b9550506020612c978882890161286e565b9450506040612ca88882890161286e565b9350506060612cb98882890161286e565b9250506080612cca8882890161286e565b9150509295509295909350565b5f5f60408385031215612ced57612cec612847565b5b5f612cfa85828601612a55565b9250506020612d0b8582860161286e565b9150509250929050565b5f5ffd5b5f601f19601f8301169050919050565b7f4e487b71000000000000000000000000000000000000000000000000000000005f52604160045260245ffd5b612d5f82612d19565b810181811067ffffffffffffffff82111715612d7e57612d7d612d29565b5b80604052505050565b5f612d9061283e565b9050612d9c8282612d56565b919050565b5f67ffffffffffffffff821115612dbb57612dba612d29565b5b602082029050602081019050919050565b5f5ffd5b5f612de2612ddd84612da1565b612d87565b90508083825260208201905060208402830185811115612e0557612e04612dcc565b5b835b81811015612e2e5780612e1a888261286e565b845260208401935050602081019050612e07565b5050509392505050565b5f82601f830112612e4c57612e4b612d15565b5b8135612e5c848260208601612dd0565b91505092915050565b5f60208284031215612e7a57612e79612847565b5b5f82013567ffffffffffffffff811115612e9757612e9661284b565b5b612ea384828501612e38565b91505092915050565b612eb5816128f4565b82525050565b612ec481612967565b82525050565b61018082015f820151612edf5f850182612abd565b506020820151612ef26020850182612eac565b506040820151612f056040850182612eac565b506060820151612f186060850182612abd565b506080820151612f2b6080850182612abd565b5060a0820151612f3e60a0850182612abd565b5060c0820151612f5160c0850182612abd565b5060e0820151612f6460e0850182612abd565b50610100820151612f79610100850182612ebb565b50610120820151612f8e610120850182612abd565b50610140820151612fa3610140850182612abd565b50610160820151612fb8610160850182612abd565b50505050565b5f61018082019050612fd25f830184612eca565b92915050565b5f82825260208201905092915050565b7f4e6f7420737562736372696265720000000000000000000000000000000000005f82015250565b5f61301c600e83612fd8565b915061302782612fe8565b602082019050919050565b5f6020820190508181035f83015261304981613010565b9050919050565b7f537562736372697074696f6e206e6f74207061757365640000000000000000005f82015250565b5f613084601783612fd8565b915061308f82613050565b602082019050919050565b5f6020820190508181035f8301526130b181613078565b9050919050565b7f537562736372697074696f6e20657870697265640000000000000000000000005f82015250565b5f6130ec601483612fd8565b91506130f7826130b8565b602082019050919050565b5f6020820190508181035f830152613119816130e0565b9050919050565b7f4e6f7420617574686f72697a6564206578656375746f720000000000000000005f82015250565b5f613154601783612fd8565b915061315f82613120565b602082019050919050565b5f6020820190508181035f83015261318181613148565b9050919050565b7f537562736372697074696f6e20646f6573206e6f7420657869737400000000005f82015250565b5f6131bc601b83612fd8565b91506131c782613188565b602082019050919050565b5f6020820190508181035f8301526131e9816131b0565b9050919050565b7f537562736372697074696f6e206e6f74206163746976650000000000000000005f82015250565b5f613224601783612fd8565b915061322f826131f0565b602082019050919050565b5f6020820190508181035f83015261325181613218565b9050919050565b7f5061796d656e74206e6f742064756520796574000000000000000000000000005f82015250565b5f61328c601383612fd8565b915061329782613258565b602082019050919050565b5f6020820190508181035f8301526132b981613280565b9050919050565b7f4e487b71000000000000000000000000000000000000000000000000000000005f52601160045260245ffd5b5f6132f78261284f565b91506133028361284f565b925082820190508082111561331a576133196132c0565b5b92915050565b5f6060820190506133335f830186612905565b6133406020830185612905565b61334d60408301846128ad565b949350505050565b61335e81612bdf565b8114613368575f5ffd5b50565b5f8151905061337981613355565b92915050565b5f6020828403121561339457613393612847565b5b5f6133a18482850161336b565b91505092915050565b7f5061796d656e74207472616e73666572206661696c65640000000000000000005f82015250565b5f6133de601783612fd8565b91506133e9826133aa565b602082019050919050565b5f6020820190508181035f83015261340b816133d2565b9050919050565b5f61341c8261284f565b91506134278361284f565b92508282026134358161284f565b9150828204841483151761344c5761344b6132c0565b5b5092915050565b7f4e487b71000000000000000000000000000000000000000000000000000000005f52601260045260245ffd5b5f61348a8261284f565b91506134958361284f565b9250826134a5576134a4613453565b5b828204905092915050565b5f6040820190506134c35f830185612905565b6134d060208301846128ad565b9392505050565b5f6060820190506134ea5f8301866128ad565b6134f76020830185612905565b61350460408301846128ad565b949350505050565b7f4e6f7420617574686f72697a656420746f2063616e63656c00000000000000005f82015250565b5f613540601883612fd8565b915061354b8261350c565b602082019050919050565b5f6020820190508181035f83015261356d81613534565b9050919050565b7f477261636520706572696f6420746f6f206c6f6e6700000000000000000000005f82015250565b5f6135a8601583612fd8565b91506135b382613574565b602082019050919050565b5f6020820190508181035f8301526135d58161359c565b9050919050565b5f6135e68261284f565b91507fffffffffffffffffffffffffffffffffffffffffffffffffffffffffffffffff8203613618576136176132c0565b5b600182019050919050565b7f4e487b71000000000000000000000000000000000000000000000000000000005f52603260045260245ffd5b7f52657761726420746f6f206869676800000000000000000000000000000000005f82015250565b5f613684600f83612fd8565b915061368f82613650565b602082019050919050565b5f6020820190508181035f8301526136b181613678565b9050919050565b7f496e76616c696420726563697069656e740000000000000000000000000000005f82015250565b5f6136ec601183612fd8565b91506136f7826136b8565b602082019050919050565b5f6020820190508181035f830152613719816136e0565b9050919050565b7f416d6f756e74206d7573742062652067726561746572207468616e20300000005f82015250565b5f613754601d83612fd8565b915061375f82613720565b602082019050919050565b5f6020820190508181035f83015261378181613748565b9050919050565b7f506572696f64206d7573742062652067726561746572207468616e20300000005f82015250565b5f6137bc601d83612fd8565b91506137c782613788565b602082019050919050565b5f6020820190508181035f8301526137e9816137b0565b9050919050565b7f4475726174696f6e206d7573742062652067726561746572207468616e2070655f8201527f72696f6400000000000000000000000000000000000000000000000000000000602082015250565b5f61384a602483612fd8565b9150613855826137f0565b604082019050919050565b5f6020820190508181035f8301526138778161383e565b9050919050565b7f506f6c69637920616c72656164792068617320737562736372697074696f6e005f82015250565b5f6138b2601f83612fd8565b91506138bd8261387e565b602082019050919050565b5f6020820190508181035f8301526138df816138a6565b9050919050565b5f6040820190506138f95f8301856128ad565b61390660208301846128ad565b939250505056fea26469706673582212206a62a67caf26a03f3fe799ddd3a0c579094b7b3b5a3fbf15e6a52bcef45c785b64736f6c634300081e0033","linkReferences":{}},"methodIdentifiers":{"BASIS_POINTS()":"e1f1c4a7","authorizeExecutor(address)":"643590f9","authorizedExecutors(address)":"679d86a7","batchExecutePayments(uint256[])":"d2cba11d","cancelSubscription(uint256)":"21235083","createSubscription(address,uint256,uint256,uint256,uint256)":"a72f44de","executePayment(uint256)":"162a0cf8","executorRewardPercent()":"591a7aa9","getDuePayments(uint256)":"7b6f0bc0","getSubscription(uint256)":"dc311dd3","getSubscriptionStats()":"6cbb8671","getUserSubscriptions(address)":"2e6ca588","gracePeriod()":"a06db7dc","isPaymentDue(uint256)":"e816e87f","isSubscriptionOverdue(uint256)":"bef649e8","owner()":"8da5cb5b","pause()":"8456cb59","pauseSubscription(uint256)":"41f23f0a","paused()":"5c975abb","paymentToken()":"3013ce29","policySubscriptions(uint256)":"286002a8","renounceOwnership()":"715018a6","resumeSubscription(uint256)":"023a584e","revokeExecutor(address)":"d5101251","subscriptions(uint256)":"2d5bbf60","transferOwnership(address)":"f2fde38b","unpause()":"3f4ba83a","updateExecutorReward(uint256)":"986ac0e9","updateGracePeriod(uint256)":"5ab98d5a","userSubscriptions(address,uint256)":"c95d6edc"},"id":48}