{"abi":[{"type":"constructor","inputs":[{"name":"_paymentToken","type":"address","internalType":"address"},{"name":"_policyNFT","type":"address","internalType":"address"},{"name":"_assetRegistry","type":"address","internalType":"address"},{"name":"_treasury","type":"address","internalType":"address"}],"stateMutability":"nonpayable"},{"type":"function","name":"BASIS_POINTS","inputs":[],"outputs":[{"name":"","type":"uint256","internalType":"uint256"}],"stateMutability":"view"},{"type":"function","name":"GRACE_PERIOD","inputs":[],"outputs":[{"name":"","type":"uint256","internalType":"uint256"}],"stateMutability":"view"},{"type":"function","name":"PREMIUM_PERIOD","inputs":[],"outputs":[{"name":"","type":"uint256","internalType":"uint256"}],"stateMutability":"view"},{"type":"function","name":"assessorStake","inputs":[{"name":"","type":"address","internalType":"address"}],"outputs":[{"name":"","type":"uint256","internalType":"uint256"}],"stateMutability":"view"},{"type":"function","name":"assetRegistry","inputs":[],"outputs":[{"name":"","type":"address","internalType":"contract AssetRegistry"}],"stateMutability":"view"},{"type":"function","name":"authorizeAssessor","inputs":[{"name":"assessor","type":"address","internalType":"address"},{"name":"stakeAmount","type":"uint256","internalType":"uint256"}],"outputs":[],"stateMutability":"nonpayable"},{"type":"function","name":"authorizedAssessors","inputs":[{"name":"","type":"address","internalType":"address"}],"outputs":[{"name":"","type":"bool","internalType":"bool"}],"stateMutability":"view"},{"type":"function","name":"baseRiskMultiplier","inputs":[{"name":"","type":"string","internalType":"string"}],"outputs":[{"name":"","type":"uint256","internalType":"uint256"}],"stateMutability":"view"},{"type":"function","name":"calculatePremium","inputs":[{"name":"assetType","type":"string","internalType":"string"},{"name":"coverageAmount","type":"uint256","internalType":"uint256"},{"name":"riskLevel","type":"uint8","internalType":"enum InsuranceManager.RiskLevel"}],"outputs":[{"name":"","type":"uint256","internalType":"uint256"}],"stateMutability":"view"},{"type":"function","name":"claims","inputs":[{"name":"","type":"uint256","internalType":"uint256"}],"outputs":[{"name":"policyId","type":"uint256","internalType":"uint256"},{"name":"claimant","type":"address","internalType":"address"},{"name":"claimAmount","type":"uint256","internalType":"uint256"},{"name":"description","type":"string","internalType":"string"},{"name":"evidenceHash","type":"string","internalType":"string"},{"name":"status","type":"uint8","internalType":"enum InsuranceManager.ClaimStatus"},{"name":"assessor","type":"address","internalType":"address"},{"name":"submitDate","type":"uint256","internalType":"uint256"},{"name":"processDate","type":"uint256","internalType":"uint256"}],"stateMutability":"view"},{"type":"function","name":"emergencyWithdraw","inputs":[{"name":"amount","type":"uint256","internalType":"uint256"}],"outputs":[],"stateMutability":"nonpayable"},{"type":"function","name":"expireOverduePolicies","inputs":[{"name":"policyIds","type":"uint256[]","internalType":"uint256[]"}],"outputs":[],"stateMutability":"nonpayable"},{"type":"function","name":"getPlatformStats","inputs":[],"outputs":[{"name":"totalPremiums","type":"uint256","internalType":"uint256"},{"name":"totalClaims","type":"uint256","internalType":"uint256"},{"name":"activeBalance","type":"uint256","internalType":"uint256"},{"name":"platformBalance","type":"uint256","internalType":"uint256"}],"stateMutability":"view"},{"type":"function","name":"minimumAssessorStake","inputs":[],"outputs":[{"name":"","type":"uint256","internalType":"uint256"}],"stateMutability":"view"},{"type":"function","name":"owner","inputs":[],"outputs":[{"name":"","type":"address","internalType":"address"}],"stateMutability":"view"},{"type":"function","name":"pause","inputs":[],"outputs":[],"stateMutability":"nonpayable"},{"type":"function","name":"paused","inputs":[],"outputs":[{"name":"","type":"bool","internalType":"bool"}],"stateMutability":"view"},{"type":"function","name":"payPremium","inputs":[{"name":"policyId","type":"uint256","internalType":"uint256"}],"outputs":[],"stateMutability":"nonpayable"},{"type":"function","name":"paymentToken","inputs":[],"outputs":[{"name":"","type":"address","internalType":"contract IERC20"}],"stateMutability":"view"},{"type":"function","name":"platformFeePercent","inputs":[],"outputs":[{"name":"","type":"uint256","internalType":"uint256"}],"stateMutability":"view"},{"type":"function","name":"policyNFT","inputs":[],"outputs":[{"name":"","type":"address","internalType":"contract InsurancePolicyNFT"}],"stateMutability":"view"},{"type":"function","name":"processClaim","inputs":[{"name":"claimId","type":"uint256","internalType":"uint256"},{"name":"approved","type":"bool","internalType":"bool"},{"name":"payoutAmount","type":"uint256","internalType":"uint256"}],"outputs":[],"stateMutability":"nonpayable"},{"type":"function","name":"purchasePolicy","inputs":[{"name":"assetId","type":"uint256","internalType":"uint256"},{"name":"coverageAmount","type":"uint256","internalType":"uint256"},{"name":"duration","type":"uint256","internalType":"uint256"},{"name":"riskLevel","type":"uint8","internalType":"enum InsuranceManager.RiskLevel"}],"outputs":[{"name":"","type":"uint256","internalType":"uint256"}],"stateMutability":"nonpayable"},{"type":"function","name":"renounceOwnership","inputs":[],"outputs":[],"stateMutability":"nonpayable"},{"type":"function","name":"riskPremiumMultiplier","inputs":[{"name":"","type":"uint8","internalType":"enum InsuranceManager.RiskLevel"}],"outputs":[{"name":"","type":"uint256","internalType":"uint256"}],"stateMutability":"view"},{"type":"function","name":"submitClaim","inputs":[{"name":"policyId","type":"uint256","internalType":"uint256"},{"name":"claimAmount","type":"uint256","internalType":"uint256"},{"name":"description","type":"string","internalType":"string"},{"name":"evidenceHash","type":"string","internalType":"string"}],"outputs":[{"name":"","type":"uint256","internalType":"uint256"}],"stateMutability":"nonpayable"},{"type":"function","name":"totalClaimsPaid","inputs":[],"outputs":[{"name":"","type":"uint256","internalType":"uint256"}],"stateMutability":"view"},{"type":"function","name":"totalPremiumCollected","inputs":[],"outputs":[{"name":"","type":"uint256","internalType":"uint256"}],"stateMutability":"view"},{"type":"function","name":"transferOwnership","inputs":[{"name":"newOwner","type":"address","internalType":"address"}],"outputs":[],"stateMutability":"nonpayable"},{"type":"function","name":"treasury","inputs":[],"outputs":[{"name":"","type":"address","internalType":"address"}],"stateMutability":"view"},{"type":"function","name":"unpause","inputs":[],"outputs":[],"stateMutability":"nonpayable"},{"type":"function","name":"updatePlatformFee","inputs":[{"name":"newFeePercent","type":"uint256","internalType":"uint256"}],"outputs":[],"stateMutability":"nonpayable"},{"type":"function","name":"updateTreasury","inputs":[{"name":"newTreasury","type":"address","internalType":"address"}],"outputs":[],"stateMutability":"nonpayable"},{"type":"event","name":"AssessorAuthorized","inputs":[{"name":"assessor","type":"address","indexed":true,"internalType":"address"},{"name":"stakeAmount","type":"uint256","indexed":false,"internalType":"uint256"}],"anonymous":false},{"type":"event","name":"ClaimProcessed","inputs":[{"name":"claimId","type":"uint256","indexed":true,"internalType":"uint256"},{"name":"status","type":"uint8","indexed":false,"internalType":"enum InsuranceManager.ClaimStatus"},{"name":"payoutAmount","type":"uint256","indexed":false,"internalType":"uint256"}],"anonymous":false},{"type":"event","name":"ClaimSubmitted","inputs":[{"name":"claimId","type":"uint256","indexed":true,"internalType":"uint256"},{"name":"policyId","type":"uint256","indexed":true,"internalType":"uint256"},{"name":"amount","type":"uint256","indexed":false,"internalType":"uint256"}],"anonymous":false},{"type":"event","name":"OwnershipTransferred","inputs":[{"name":"previousOwner","type":"address","indexed":true,"internalType":"address"},{"name":"newOwner","type":"address","indexed":true,"internalType":"address"}],"anonymous":false},{"type":"event","name":"Paused","inputs":[{"name":"account","type":"address","indexed":false,"internalType":"address"}],"anonymous":false},{"type":"event","name":"PlatformFeeUpdated","inputs":[{"name":"newFeePercent","type":"uint256","indexed":false,"internalType":"uint256"}],"anonymous":false},{"type":"event","name":"PolicyPurchased","inputs":[{"name":"policyId","type":"uint256","indexed":true,"internalType":"uint256"},{"name":"policyholder","type":"address","indexed":true,"internalType":"address"},{"name":"assetId","type":"uint256","indexed":false,"internalType":"uint256"}],"anonymous":false},{"type":"event","name":"PremiumPaid","inputs":[{"name":"policyId","type":"uint256","indexed":true,"internalType":"uint256"},{"name":"amount","type":"uint256","indexed":false,"internalType":"uint256"},{"name":"dueDate","type":"uint256","indexed":false,"internalType":"uint256"}],"anonymous":false},{"type":"event","name":"Unpaused","inputs":[{"name":"account","type":"address","indexed":false,"internalType":"address"}],"anonymous":false},{"type":"error","name":"EnforcedPause","inputs":[]},{"type":"error","name":"ExpectedPause","inputs":[]},{"type":"error","name":"OwnableInvalidOwner","inputs":[{"name":"owner","type":"address","internalType":"address"}]},{"type":"error","name":"OwnableUnauthorizedAccount","inputs":[{"name":"account","type":"address","internalType":"address"}]},{"type":"error","name":"ReentrancyGuardReentrantCall","inputs":[]}],"bytecode":{"object":"0x60e06040526064600455683635c9adc5dea00000600c55348015610021575f5ffd5b50604051614ffa380380614ffa83398181016040528101906100439190610485565b335f73ffffffffffffffffffffffffffffffffffffffff168173ffffffffffffffffffffffffffffffffffffffff16036100b4575f6040517f1e4fbdf70000000000000000000000000000000000000000000000000000000081526004016100ab91906104f8565b60405180910390fd5b6100c38161036660201b60201c565b505f5f60146101000a81548160ff021916908315150217905550600180819055508373ffffffffffffffffffffffffffffffffffffffff1660808173ffffffffffffffffffffffffffffffffffffffff16815250508273ffffffffffffffffffffffffffffffffffffffff1660a08173ffffffffffffffffffffffffffffffffffffffff16815250508173ffffffffffffffffffffffffffffffffffffffff1660c08173ffffffffffffffffffffffffffffffffffffffff16815250508060055f6101000a81548173ffffffffffffffffffffffffffffffffffffffff021916908373ffffffffffffffffffffffffffffffffffffffff16021790555060c860026040516101d090610565565b9081526020016040518091039020819055506101f460026040516101f3906105c3565b90815260200160405180910390208190555061012c600260405161021690610621565b90815260200160405180910390208190555061019060026040516102399061067f565b908152602001604051809103902081905550610258600260405161025c906106dd565b908152602001604051809103902081905550606460035f5f6003811115610286576102856106f1565b5b6003811115610298576102976106f1565b5b81526020019081526020015f2081905550609660035f600160038111156102c2576102c16106f1565b5b60038111156102d4576102d36106f1565b5b81526020019081526020015f208190555060c860035f600260038111156102fe576102fd6106f1565b5b60038111156103105761030f6106f1565b5b81526020019081526020015f208190555061012c60035f60038081111561033a576103396106f1565b5b600381111561034c5761034b6106f1565b5b81526020019081526020015f20819055505050505061071e565b5f5f5f9054906101000a900473ffffffffffffffffffffffffffffffffffffffff169050815f5f6101000a81548173ffffffffffffffffffffffffffffffffffffffff021916908373ffffffffffffffffffffffffffffffffffffffff1602179055508173ffffffffffffffffffffffffffffffffffffffff168173ffffffffffffffffffffffffffffffffffffffff167f8be0079c531659141344cd1fd0a4f28419497f9722a3daafe3b4186f6b6457e060405160405180910390a35050565b5f5ffd5b5f73ffffffffffffffffffffffffffffffffffffffff82169050919050565b5f6104548261042b565b9050919050565b6104648161044a565b811461046e575f5ffd5b50565b5f8151905061047f8161045b565b92915050565b5f5f5f5f6080858703121561049d5761049c610427565b5b5f6104aa87828801610471565b94505060206104bb87828801610471565b93505060406104cc87828801610471565b92505060606104dd87828801610471565b91505092959194509250565b6104f28161044a565b82525050565b5f60208201905061050b5f8301846104e9565b92915050565b5f81905092915050565b7f7265616c5f6573746174650000000000000000000000000000000000000000005f82015250565b5f61054f600b83610511565b915061055a8261051b565b600b82019050919050565b5f61056f82610543565b9150819050919050565b7f76656869636c65000000000000000000000000000000000000000000000000005f82015250565b5f6105ad600783610511565b91506105b882610579565b600782019050919050565b5f6105cd826105a1565b9150819050919050565b7f617274776f726b000000000000000000000000000000000000000000000000005f82015250565b5f61060b600783610511565b9150610616826105d7565b600782019050919050565b5f61062b826105ff565b9150819050919050565b7f6a6577656c7279000000000000000000000000000000000000000000000000005f82015250565b5f610669600783610511565b915061067482610635565b600782019050919050565b5f6106898261065d565b9150819050919050565b7f656c656374726f6e6963730000000000000000000000000000000000000000005f82015250565b5f6106c7600b83610511565b91506106d282610693565b600b82019050919050565b5f6106e7826106bb565b9150819050919050565b7f4e487b71000000000000000000000000000000000000000000000000000000005f52602160045260245ffd5b60805160a05160c0516147e76108135f395f818161072a0152818161080201528181610aea0152818161106b015281816111a80152611e0501525f8181610a4701528181610fdf015281816110a7015281816114a10152818161158f01528181611667015281816117e401528181611cca01528181611d6c01528181612058015281816122ca015281816123b801528181612490015261257401525f81816106730152818161096a01528181610ba801528181610ccb01528181610ee2015281816112730152818161131301528181611704015281816118a8015281816119c601528181611aa001526120de01526147e75ff3fe608060405234801561000f575f5ffd5b50600436106101f9575f3560e01c80638c639a8511610118578063bd4dffa1116100ab578063d677bf7f1161007a578063d677bf7f14610572578063d6a9b3e4146105a2578063e1f1c4a7146105d2578063f2fde38b146105f0578063f7164fc71461060c576101f9565b8063bd4dffa1146104d8578063c1a287e2146104f4578063d291babd14610512578063d5370d2514610542576101f9565b8063a888c2cd116100e7578063a888c2cd14610436578063aa0b59881461046e578063af02808a1461048a578063af8ccfc9146104a8576101f9565b80638c639a85146103c05780638da5cb5b146103de57806390915ebb146103fc578063979d7e8614610418576101f9565b80635c975abb11610190578063701a43aa1161015f578063701a43aa14610372578063715018a6146103905780637f51bb1f1461039a5780638456cb59146103b6576101f9565b80635c975abb146102fa57806361d027b3146103185780636532ccf5146103365780636bab30b714610354576101f9565b80633ab979d8116101cc5780633ab979d81461029c5780633f4ba83a146102b85780634364b26e146102c25780635312ea8e146102de576101f9565b806301ba862e146101fd578063136d88831461022d5780632fabef7e1461024e5780633013ce291461027e575b5f5ffd5b61021760048036038101906102129190612e2a565b61062a565b6040516102249190612e89565b60405180910390f35b610235610657565b6040516102459493929190612ea2565b60405180910390f35b61026860048036038101906102639190612f32565b610717565b6040516102759190612e89565b60405180910390f35b610286610cc9565b6040516102939190613010565b60405180910390f35b6102b660048036038101906102b1919061305e565b610ced565b005b6102c0611466565b005b6102dc60048036038101906102d791906130ae565b611478565b005b6102f860048036038101906102f391906130ae565b6119bc565b005b610302611b44565b60405161030f91906130e8565b60405180910390f35b610320611b59565b60405161032d9190613121565b60405180910390f35b61033e611b7e565b60405161034b9190612e89565b60405180910390f35b61035c611b84565b6040516103699190612e89565b60405180910390f35b61037a611b8b565b6040516103879190612e89565b60405180910390f35b610398611b91565b005b6103b460048036038101906103af9190613164565b611ba4565b005b6103be611c5d565b005b6103c8611c6f565b6040516103d59190612e89565b60405180910390f35b6103e6611c75565b6040516103f39190613121565b60405180910390f35b61041660048036038101906104119190613253565b611c9c565b005b610420611e03565b60405161042d91906132ba565b60405180910390f35b610450600480360381019061044b91906130ae565b611e27565b604051610465999897969594939291906133a6565b60405180910390f35b610488600480360381019061048391906130ae565b611fc8565b005b610492612056565b60405161049f919061345f565b60405180910390f35b6104c260048036038101906104bd9190613478565b61207a565b6040516104cf9190612e89565b60405180910390f35b6104f260048036038101906104ed91906134a3565b61208f565b005b6104fc6122a1565b6040516105099190612e89565b60405180910390f35b61052c600480360381019061052791906134e1565b6122a8565b6040516105399190612e89565b60405180910390f35b61055c60048036038101906105579190613164565b61284f565b60405161056991906130e8565b60405180910390f35b61058c60048036038101906105879190613164565b61286c565b6040516105999190612e89565b60405180910390f35b6105bc60048036038101906105b7919061357d565b612881565b6040516105c99190612e89565b60405180910390f35b6105da61296b565b6040516105e79190612e89565b60405180910390f35b61060a60048036038101906106059190613164565b612971565b005b6106146129f5565b6040516106219190612e89565b60405180910390f35b6002818051602081018201805184825260208301602085012081835280955050505050505f915090505481565b5f5f5f5f6006546007546007546006546106719190613616565b7f000000000000000000000000000000000000000000000000000000000000000073ffffffffffffffffffffffffffffffffffffffff166370a08231306040518263ffffffff1660e01b81526004016106ca9190613121565b602060405180830381865afa1580156106e5573d5f5f3e3d5ffd5b505050506040513d601f19601f82011682018060405250810190610709919061365d565b935093509350935090919293565b5f6107206129fb565b610728612a3c565b7f000000000000000000000000000000000000000000000000000000000000000073ffffffffffffffffffffffffffffffffffffffff16636b9f299b866040518263ffffffff1660e01b81526004016107819190612e89565b602060405180830381865afa15801561079c573d5f5f3e3d5ffd5b505050506040513d601f19601f820116820180604052508101906107c0919061369c565b6107ff576040517f08c379a00000000000000000000000000000000000000000000000000000000081526004016107f690613711565b60405180910390fd5b5f7f000000000000000000000000000000000000000000000000000000000000000073ffffffffffffffffffffffffffffffffffffffff1663eac8f5b8876040518263ffffffff1660e01b81526004016108599190612e89565b5f60405180830381865afa158015610873573d5f5f3e3d5ffd5b505050506040513d5f823e3d601f19601f8201168201806040525081019061089b919061396b565b90503373ffffffffffffffffffffffffffffffffffffffff16816020015173ffffffffffffffffffffffffffffffffffffffff161461090f576040517f08c379a0000000000000000000000000000000000000000000000000000000008152600401610906906139fc565b60405180910390fd5b8060800151851115610956576040517f08c379a000000000000000000000000000000000000000000000000000000000815260040161094d90613a64565b60405180910390fd5b5f61096682604001518786612881565b90507f000000000000000000000000000000000000000000000000000000000000000073ffffffffffffffffffffffffffffffffffffffff166323b872dd3330846040518463ffffffff1660e01b81526004016109c593929190613a82565b6020604051808303815f875af11580156109e1573d5f5f3e3d5ffd5b505050506040513d601f19601f82011682018060405250810190610a05919061369c565b610a44576040517f08c379a0000000000000000000000000000000000000000000000000000000008152600401610a3b90613b01565b60405180910390fd5b5f7f000000000000000000000000000000000000000000000000000000000000000073ffffffffffffffffffffffffffffffffffffffff16636a0d34d6338a8a868b6040518663ffffffff1660e01b8152600401610aa6959493929190613b42565b6020604051808303815f875af1158015610ac2573d5f5f3e3d5ffd5b505050506040513d601f19601f82011682018060405250810190610ae6919061365d565b90507f000000000000000000000000000000000000000000000000000000000000000073ffffffffffffffffffffffffffffffffffffffff166301d6659789836040518363ffffffff1660e01b8152600401610b43929190613ba6565b5f604051808303815f87803b158015610b5a575f5ffd5b505af1158015610b6c573d5f5f3e3d5ffd5b505050508160065f828254610b819190613bcd565b925050819055505f61271060045484610b9a9190613c00565b610ba49190613c6e565b90507f000000000000000000000000000000000000000000000000000000000000000073ffffffffffffffffffffffffffffffffffffffff1663a9059cbb60055f9054906101000a900473ffffffffffffffffffffffffffffffffffffffff16836040518363ffffffff1660e01b8152600401610c22929190613c9e565b6020604051808303815f875af1158015610c3e573d5f5f3e3d5ffd5b505050506040513d601f19601f82011682018060405250810190610c62919061369c565b503373ffffffffffffffffffffffffffffffffffffffff16827f95b12f586a70e031f18e62742c53fbfce9f4f2951ed9686b8aab253fc7cc39968b604051610caa9190612e89565b60405180910390a381945050505050610cc1612a82565b949350505050565b7f000000000000000000000000000000000000000000000000000000000000000081565b600a5f3373ffffffffffffffffffffffffffffffffffffffff1673ffffffffffffffffffffffffffffffffffffffff1681526020019081526020015f205f9054906101000a900460ff16610d76576040517f08c379a0000000000000000000000000000000000000000000000000000000008152600401610d6d90613d0f565b60405180910390fd5b610d7e6129fb565b610d86612a3c565b5f60085f8581526020019081526020015f2090505f6003811115610dad57610dac613333565b5b816005015f9054906101000a900460ff166003811115610dd057610dcf613333565b5b14610e10576040517f08c379a0000000000000000000000000000000000000000000000000000000008152600401610e0790613d77565b60405180910390fd5b8060020154821115610e57576040517f08c379a0000000000000000000000000000000000000000000000000000000008152600401610e4e90613ddf565b60405180910390fd5b338160050160016101000a81548173ffffffffffffffffffffffffffffffffffffffff021916908373ffffffffffffffffffffffffffffffffffffffff160217905550428160070181905550828015610eaf57505f82115b156113e1576001816005015f6101000a81548160ff02191690836003811115610edb57610eda613333565b5b02179055507f000000000000000000000000000000000000000000000000000000000000000073ffffffffffffffffffffffffffffffffffffffff1663a9059cbb826001015f9054906101000a900473ffffffffffffffffffffffffffffffffffffffff16846040518363ffffffff1660e01b8152600401610f5e929190613c9e565b6020604051808303815f875af1158015610f7a573d5f5f3e3d5ffd5b505050506040513d601f19601f82011682018060405250810190610f9e919061369c565b610fdd576040517f08c379a0000000000000000000000000000000000000000000000000000000008152600401610fd490613e47565b60405180910390fd5b7f000000000000000000000000000000000000000000000000000000000000000073ffffffffffffffffffffffffffffffffffffffff166347daf366825f0154846040518363ffffffff1660e01b815260040161103b929190613ba6565b5f604051808303815f87803b158015611052575f5ffd5b505af1158015611064573d5f5f3e3d5ffd5b505050505f7f000000000000000000000000000000000000000000000000000000000000000073ffffffffffffffffffffffffffffffffffffffff1663eac8f5b87f000000000000000000000000000000000000000000000000000000000000000073ffffffffffffffffffffffffffffffffffffffff16632b07fce3855f01546040518263ffffffff1660e01b81526004016111019190612e89565b5f60405180830381865afa15801561111b573d5f5f3e3d5ffd5b505050506040513d5f823e3d601f19601f820116820180604052508101906111439190613f81565b5f01516040518263ffffffff1660e01b81526004016111629190612e89565b5f60405180830381865afa15801561117c573d5f5f3e3d5ffd5b505050506040513d5f823e3d601f19601f820116820180604052508101906111a4919061396b565b90507f000000000000000000000000000000000000000000000000000000000000000073ffffffffffffffffffffffffffffffffffffffff1663e376b7d9825f0151856040518363ffffffff1660e01b8152600401611204929190613ba6565b5f604051808303815f87803b15801561121b575f5ffd5b505af115801561122d573d5f5f3e3d5ffd5b505050508260075f8282546112429190613bcd565b925050819055505f61271060328561125a9190613c00565b6112649190613c6e565b90505f8111801561130c5750807f000000000000000000000000000000000000000000000000000000000000000073ffffffffffffffffffffffffffffffffffffffff166370a08231306040518263ffffffff1660e01b81526004016112ca9190613121565b602060405180830381865afa1580156112e5573d5f5f3e3d5ffd5b505050506040513d601f19601f82011682018060405250810190611309919061365d565b10155b156113ae577f000000000000000000000000000000000000000000000000000000000000000073ffffffffffffffffffffffffffffffffffffffff1663a9059cbb33836040518363ffffffff1660e01b815260040161136c929190613c9e565b6020604051808303815f875af1158015611388573d5f5f3e3d5ffd5b505050506040513d601f19601f820116820180604052508101906113ac919061369c565b505b6003836005015f6101000a81548160ff021916908360038111156113d5576113d4613333565b5b0217905550505061140e565b6002816005015f6101000a81548160ff0219169083600381111561140857611407613333565b5b02179055505b837f131884885e3b15c22fcaa4e2b49df807c03ab9e54bc149f6447e3c9166ce8814826005015f9054906101000a900460ff1684604051611450929190613fc8565b60405180910390a250611461612a82565b505050565b61146e612a8b565b611476612b12565b565b6114806129fb565b611488612a3c565b3373ffffffffffffffffffffffffffffffffffffffff167f000000000000000000000000000000000000000000000000000000000000000073ffffffffffffffffffffffffffffffffffffffff16636352211e836040518263ffffffff1660e01b81526004016114f89190612e89565b602060405180830381865afa158015611513573d5f5f3e3d5ffd5b505050506040513d601f19601f820116820180604052508101906115379190613fef565b73ffffffffffffffffffffffffffffffffffffffff161461158d576040517f08c379a000000000000000000000000000000000000000000000000000000000815260040161158490614064565b60405180910390fd5b7f000000000000000000000000000000000000000000000000000000000000000073ffffffffffffffffffffffffffffffffffffffff1663bd8afa46826040518263ffffffff1660e01b81526004016115e69190612e89565b602060405180830381865afa158015611601573d5f5f3e3d5ffd5b505050506040513d601f19601f82011682018060405250810190611625919061369c565b611664576040517f08c379a000000000000000000000000000000000000000000000000000000000815260040161165b906140cc565b60405180910390fd5b5f7f000000000000000000000000000000000000000000000000000000000000000073ffffffffffffffffffffffffffffffffffffffff16632b07fce3836040518263ffffffff1660e01b81526004016116be9190612e89565b5f60405180830381865afa1580156116d8573d5f5f3e3d5ffd5b505050506040513d5f823e3d601f19601f820116820180604052508101906117009190613f81565b90507f000000000000000000000000000000000000000000000000000000000000000073ffffffffffffffffffffffffffffffffffffffff166323b872dd333084606001516040518463ffffffff1660e01b815260040161176393929190613a82565b6020604051808303815f875af115801561177f573d5f5f3e3d5ffd5b505050506040513d601f19601f820116820180604052508101906117a3919061369c565b6117e2576040517f08c379a00000000000000000000000000000000000000000000000000000000081526004016117d990613b01565b60405180910390fd5b7f000000000000000000000000000000000000000000000000000000000000000073ffffffffffffffffffffffffffffffffffffffff1663bf3b818e836040518263ffffffff1660e01b815260040161183b9190612e89565b5f604051808303815f87803b158015611852575f5ffd5b505af1158015611864573d5f5f3e3d5ffd5b50505050806060015160065f82825461187d9190613bcd565b925050819055505f612710600454836060015161189a9190613c00565b6118a49190613c6e565b90507f000000000000000000000000000000000000000000000000000000000000000073ffffffffffffffffffffffffffffffffffffffff1663a9059cbb60055f9054906101000a900473ffffffffffffffffffffffffffffffffffffffff16836040518363ffffffff1660e01b8152600401611922929190613c9e565b6020604051808303815f875af115801561193e573d5f5f3e3d5ffd5b505050506040513d601f19601f82011682018060405250810190611962919061369c565b50827f6536289ac4b6210a38c0221448df668e1a60ce83e7642815d4a3642187de26e5836060015162278d00426119999190613bcd565b6040516119a7929190613ba6565b60405180910390a250506119b9612a82565b50565b6119c4612a8b565b7f000000000000000000000000000000000000000000000000000000000000000073ffffffffffffffffffffffffffffffffffffffff166370a08231306040518263ffffffff1660e01b8152600401611a1d9190613121565b602060405180830381865afa158015611a38573d5f5f3e3d5ffd5b505050506040513d601f19601f82011682018060405250810190611a5c919061365d565b811115611a9e576040517f08c379a0000000000000000000000000000000000000000000000000000000008152600401611a9590614134565b60405180910390fd5b7f000000000000000000000000000000000000000000000000000000000000000073ffffffffffffffffffffffffffffffffffffffff1663a9059cbb611ae2611c75565b836040518363ffffffff1660e01b8152600401611b00929190613c9e565b6020604051808303815f875af1158015611b1c573d5f5f3e3d5ffd5b505050506040513d601f19601f82011682018060405250810190611b40919061369c565b5050565b5f5f60149054906101000a900460ff16905090565b60055f9054906101000a900473ffffffffffffffffffffffffffffffffffffffff1681565b60075481565b62278d0081565b600c5481565b611b99612a8b565b611ba25f612b73565b565b611bac612a8b565b5f73ffffffffffffffffffffffffffffffffffffffff168173ffffffffffffffffffffffffffffffffffffffff1603611c1a576040517f08c379a0000000000000000000000000000000000000000000000000000000008152600401611c119061419c565b60405180910390fd5b8060055f6101000a81548173ffffffffffffffffffffffffffffffffffffffff021916908373ffffffffffffffffffffffffffffffffffffffff16021790555050565b611c65612a8b565b611c6d612c34565b565b60045481565b5f5f5f9054906101000a900473ffffffffffffffffffffffffffffffffffffffff16905090565b5f5f90505b8151811015611dff575f828281518110611cbe57611cbd6141ba565b5b602002602001015190507f000000000000000000000000000000000000000000000000000000000000000073ffffffffffffffffffffffffffffffffffffffff16632ac45f048262093a806040518363ffffffff1660e01b8152600401611d26929190613ba6565b602060405180830381865afa158015611d41573d5f5f3e3d5ffd5b505050506040513d601f19601f82011682018060405250810190611d65919061369c565b15611df1577f000000000000000000000000000000000000000000000000000000000000000073ffffffffffffffffffffffffffffffffffffffff16633037e4cd826040518263ffffffff1660e01b8152600401611dc39190612e89565b5f604051808303815f87803b158015611dda575f5ffd5b505af1158015611dec573d5f5f3e3d5ffd5b505050505b508080600101915050611ca1565b5050565b7f000000000000000000000000000000000000000000000000000000000000000081565b6008602052805f5260405f205f91509050805f015490806001015f9054906101000a900473ffffffffffffffffffffffffffffffffffffffff1690806002015490806003018054611e7790614214565b80601f0160208091040260200160405190810160405280929190818152602001828054611ea390614214565b8015611eee5780601f10611ec557610100808354040283529160200191611eee565b820191905f5260205f20905b815481529060010190602001808311611ed157829003601f168201915b505050505090806004018054611f0390614214565b80601f0160208091040260200160405190810160405280929190818152602001828054611f2f90614214565b8015611f7a5780601f10611f5157610100808354040283529160200191611f7a565b820191905f5260205f20905b815481529060010190602001808311611f5d57829003601f168201915b505050505090806005015f9054906101000a900460ff16908060050160019054906101000a900473ffffffffffffffffffffffffffffffffffffffff16908060060154908060070154905089565b611fd0612a8b565b6103e8811115612015576040517f08c379a000000000000000000000000000000000000000000000000000000000815260040161200c9061428e565b60405180910390fd5b806004819055507f45610d581145924dd7090a5017e5f2b1d6f42213bb2e95707ff86846bbfcb1ca8160405161204b9190612e89565b60405180910390a150565b7f000000000000000000000000000000000000000000000000000000000000000081565b6003602052805f5260405f205f915090505481565b612097612a8b565b600c548110156120dc576040517f08c379a00000000000000000000000000000000000000000000000000000000081526004016120d3906142f6565b60405180910390fd5b7f000000000000000000000000000000000000000000000000000000000000000073ffffffffffffffffffffffffffffffffffffffff166323b872dd3330846040518463ffffffff1660e01b815260040161213993929190613a82565b6020604051808303815f875af1158015612155573d5f5f3e3d5ffd5b505050506040513d601f19601f82011682018060405250810190612179919061369c565b6121b8576040517f08c379a00000000000000000000000000000000000000000000000000000000081526004016121af9061435e565b60405180910390fd5b6001600a5f8473ffffffffffffffffffffffffffffffffffffffff1673ffffffffffffffffffffffffffffffffffffffff1681526020019081526020015f205f6101000a81548160ff02191690831515021790555080600b5f8473ffffffffffffffffffffffffffffffffffffffff1673ffffffffffffffffffffffffffffffffffffffff1681526020019081526020015f20819055508173ffffffffffffffffffffffffffffffffffffffff167f8633ba63df5e646087ba21db6b3417862aa6cd886ba4b9202ff6b55237982d86826040516122959190612e89565b60405180910390a25050565b62093a8081565b5f6122b16129fb565b3373ffffffffffffffffffffffffffffffffffffffff167f000000000000000000000000000000000000000000000000000000000000000073ffffffffffffffffffffffffffffffffffffffff16636352211e876040518263ffffffff1660e01b81526004016123219190612e89565b602060405180830381865afa15801561233c573d5f5f3e3d5ffd5b505050506040513d601f19601f820116820180604052508101906123609190613fef565b73ffffffffffffffffffffffffffffffffffffffff16146123b6576040517f08c379a00000000000000000000000000000000000000000000000000000000081526004016123ad90614064565b60405180910390fd5b7f000000000000000000000000000000000000000000000000000000000000000073ffffffffffffffffffffffffffffffffffffffff1663bd8afa46866040518263ffffffff1660e01b815260040161240f9190612e89565b602060405180830381865afa15801561242a573d5f5f3e3d5ffd5b505050506040513d601f19601f8201168201806040525081019061244e919061369c565b61248d576040517f08c379a0000000000000000000000000000000000000000000000000000000008152600401612484906140cc565b60405180910390fd5b5f7f000000000000000000000000000000000000000000000000000000000000000073ffffffffffffffffffffffffffffffffffffffff16632b07fce3876040518263ffffffff1660e01b81526004016124e79190612e89565b5f60405180830381865afa158015612501573d5f5f3e3d5ffd5b505050506040513d5f823e3d601f19601f820116820180604052508101906125299190613f81565b90508060400151851115612572576040517f08c379a0000000000000000000000000000000000000000000000000000000008152600401612569906143c6565b60405180910390fd5b7f000000000000000000000000000000000000000000000000000000000000000073ffffffffffffffffffffffffffffffffffffffff16632ac45f048762093a806040518363ffffffff1660e01b81526004016125d0929190613ba6565b602060405180830381865afa1580156125eb573d5f5f3e3d5ffd5b505050506040513d601f19601f8201168201806040525081019061260f919061369c565b1561264f576040517f08c379a00000000000000000000000000000000000000000000000000000000081526004016126469061442e565b60405180910390fd5b5f60095f8154809291906126629061444c565b9190505590506040518061012001604052808881526020013373ffffffffffffffffffffffffffffffffffffffff1681526020018781526020018681526020018581526020015f60038111156126bb576126ba613333565b5b81526020015f73ffffffffffffffffffffffffffffffffffffffff1681526020014281526020015f81525060085f8381526020019081526020015f205f820151815f01556020820151816001015f6101000a81548173ffffffffffffffffffffffffffffffffffffffff021916908373ffffffffffffffffffffffffffffffffffffffff160217905550604082015181600201556060820151816003019081612764919061462a565b50608082015181600401908161277a919061462a565b5060a0820151816005015f6101000a81548160ff021916908360038111156127a5576127a4613333565b5b021790555060c08201518160050160016101000a81548173ffffffffffffffffffffffffffffffffffffffff021916908373ffffffffffffffffffffffffffffffffffffffff16021790555060e08201518160060155610100820151816007015590505086817fcf394f7701f2b1dae6f328cbc70c1f155122b124431f95bbf4a483bba68545558860405161283a9190612e89565b60405180910390a38092505050949350505050565b600a602052805f5260405f205f915054906101000a900460ff1681565b600b602052805f5260405f205f915090505481565b5f5f6002856040516128939190614733565b90815260200160405180910390205490505f81116128e6576040517f08c379a00000000000000000000000000000000000000000000000000000000081526004016128dd90614793565b60405180910390fd5b5f60035f8560038111156128fd576128fc613333565b5b600381111561290f5761290e613333565b5b81526020019081526020015f205490505f606461271061292f9190613c00565b82848861293c9190613c00565b6129469190613c00565b6129509190613c6e565b9050600c8161295f9190613c6e565b93505050509392505050565b61271081565b612979612a8b565b5f73ffffffffffffffffffffffffffffffffffffffff168173ffffffffffffffffffffffffffffffffffffffff16036129e9575f6040517f1e4fbdf70000000000000000000000000000000000000000000000000000000081526004016129e09190613121565b60405180910390fd5b6129f281612b73565b50565b60065481565b612a03611b44565b15612a3a576040517fd93c066500000000000000000000000000000000000000000000000000000000815260040160405180910390fd5b565b600260015403612a78576040517f3ee5aeb500000000000000000000000000000000000000000000000000000000815260040160405180910390fd5b6002600181905550565b60018081905550565b612a93612c96565b73ffffffffffffffffffffffffffffffffffffffff16612ab1611c75565b73ffffffffffffffffffffffffffffffffffffffff1614612b1057612ad4612c96565b6040517f118cdaa7000000000000000000000000000000000000000000000000000000008152600401612b079190613121565b60405180910390fd5b565b612b1a612c9d565b5f5f60146101000a81548160ff0219169083151502179055507f5db9ee0a495bf2e6ff9c91a7834c1ba4fdd244a5e8aa4e537bd38aeae4b073aa612b5c612c96565b604051612b699190613121565b60405180910390a1565b5f5f5f9054906101000a900473ffffffffffffffffffffffffffffffffffffffff169050815f5f6101000a81548173ffffffffffffffffffffffffffffffffffffffff021916908373ffffffffffffffffffffffffffffffffffffffff1602179055508173ffffffffffffffffffffffffffffffffffffffff168173ffffffffffffffffffffffffffffffffffffffff167f8be0079c531659141344cd1fd0a4f28419497f9722a3daafe3b4186f6b6457e060405160405180910390a35050565b612c3c6129fb565b60015f60146101000a81548160ff0219169083151502179055507f62e78cea01bee320cd4e420270b5ea74000d11b0c9f74754ebdbfc544b05a258612c7f612c96565b604051612c8c9190613121565b60405180910390a1565b5f33905090565b612ca5611b44565b612cdb576040517f8dfc202b00000000000000000000000000000000000000000000000000000000815260040160405180910390fd5b565b5f604051905090565b5f5ffd5b5f5ffd5b5f5ffd5b5f5ffd5b5f601f19601f8301169050919050565b7f4e487b71000000000000000000000000000000000000000000000000000000005f52604160045260245ffd5b612d3c82612cf6565b810181811067ffffffffffffffff82111715612d5b57612d5a612d06565b5b80604052505050565b5f612d6d612cdd565b9050612d798282612d33565b919050565b5f67ffffffffffffffff821115612d9857612d97612d06565b5b612da182612cf6565b9050602081019050919050565b828183375f83830152505050565b5f612dce612dc984612d7e565b612d64565b905082815260208101848484011115612dea57612de9612cf2565b5b612df5848285612dae565b509392505050565b5f82601f830112612e1157612e10612cee565b5b8135612e21848260208601612dbc565b91505092915050565b5f60208284031215612e3f57612e3e612ce6565b5b5f82013567ffffffffffffffff811115612e5c57612e5b612cea565b5b612e6884828501612dfd565b91505092915050565b5f819050919050565b612e8381612e71565b82525050565b5f602082019050612e9c5f830184612e7a565b92915050565b5f608082019050612eb55f830187612e7a565b612ec26020830186612e7a565b612ecf6040830185612e7a565b612edc6060830184612e7a565b95945050505050565b612eee81612e71565b8114612ef8575f5ffd5b50565b5f81359050612f0981612ee5565b92915050565b60048110612f1b575f5ffd5b50565b5f81359050612f2c81612f0f565b92915050565b5f5f5f5f60808587031215612f4a57612f49612ce6565b5b5f612f5787828801612efb565b9450506020612f6887828801612efb565b9350506040612f7987828801612efb565b9250506060612f8a87828801612f1e565b91505092959194509250565b5f73ffffffffffffffffffffffffffffffffffffffff82169050919050565b5f819050919050565b5f612fd8612fd3612fce84612f96565b612fb5565b612f96565b9050919050565b5f612fe982612fbe565b9050919050565b5f612ffa82612fdf565b9050919050565b61300a81612ff0565b82525050565b5f6020820190506130235f830184613001565b92915050565b5f8115159050919050565b61303d81613029565b8114613047575f5ffd5b50565b5f8135905061305881613034565b92915050565b5f5f5f6060848603121561307557613074612ce6565b5b5f61308286828701612efb565b93505060206130938682870161304a565b92505060406130a486828701612efb565b9150509250925092565b5f602082840312156130c3576130c2612ce6565b5b5f6130d084828501612efb565b91505092915050565b6130e281613029565b82525050565b5f6020820190506130fb5f8301846130d9565b92915050565b5f61310b82612f96565b9050919050565b61311b81613101565b82525050565b5f6020820190506131345f830184613112565b92915050565b61314381613101565b811461314d575f5ffd5b50565b5f8135905061315e8161313a565b92915050565b5f6020828403121561317957613178612ce6565b5b5f61318684828501613150565b91505092915050565b5f67ffffffffffffffff8211156131a9576131a8612d06565b5b602082029050602081019050919050565b5f5ffd5b5f6131d06131cb8461318f565b612d64565b905080838252602082019050602084028301858111156131f3576131f26131ba565b5b835b8181101561321c57806132088882612efb565b8452602084019350506020810190506131f5565b5050509392505050565b5f82601f83011261323a57613239612cee565b5b813561324a8482602086016131be565b91505092915050565b5f6020828403121561326857613267612ce6565b5b5f82013567ffffffffffffffff81111561328557613284612cea565b5b61329184828501613226565b91505092915050565b5f6132a482612fdf565b9050919050565b6132b48161329a565b82525050565b5f6020820190506132cd5f8301846132ab565b92915050565b5f81519050919050565b5f82825260208201905092915050565b8281835e5f83830152505050565b5f613305826132d3565b61330f81856132dd565b935061331f8185602086016132ed565b61332881612cf6565b840191505092915050565b7f4e487b71000000000000000000000000000000000000000000000000000000005f52602160045260245ffd5b6004811061337157613370613333565b5b50565b5f81905061338182613360565b919050565b5f61339082613374565b9050919050565b6133a081613386565b82525050565b5f610120820190506133ba5f83018c612e7a565b6133c7602083018b613112565b6133d4604083018a612e7a565b81810360608301526133e681896132fb565b905081810360808301526133fa81886132fb565b905061340960a0830187613397565b61341660c0830186613112565b61342360e0830185612e7a565b613431610100830184612e7a565b9a9950505050505050505050565b5f61344982612fdf565b9050919050565b6134598161343f565b82525050565b5f6020820190506134725f830184613450565b92915050565b5f6020828403121561348d5761348c612ce6565b5b5f61349a84828501612f1e565b91505092915050565b5f5f604083850312156134b9576134b8612ce6565b5b5f6134c685828601613150565b92505060206134d785828601612efb565b9150509250929050565b5f5f5f5f608085870312156134f9576134f8612ce6565b5b5f61350687828801612efb565b945050602061351787828801612efb565b935050604085013567ffffffffffffffff81111561353857613537612cea565b5b61354487828801612dfd565b925050606085013567ffffffffffffffff81111561356557613564612cea565b5b61357187828801612dfd565b91505092959194509250565b5f5f5f6060848603121561359457613593612ce6565b5b5f84013567ffffffffffffffff8111156135b1576135b0612cea565b5b6135bd86828701612dfd565b93505060206135ce86828701612efb565b92505060406135df86828701612f1e565b9150509250925092565b7f4e487b71000000000000000000000000000000000000000000000000000000005f52601160045260245ffd5b5f61362082612e71565b915061362b83612e71565b9250828203905081811115613643576136426135e9565b5b92915050565b5f8151905061365781612ee5565b92915050565b5f6020828403121561367257613671612ce6565b5b5f61367f84828501613649565b91505092915050565b5f8151905061369681613034565b92915050565b5f602082840312156136b1576136b0612ce6565b5b5f6136be84828501613688565b91505092915050565b7f4173736574206e6f7420696e73757261626c65000000000000000000000000005f82015250565b5f6136fb6013836132dd565b9150613706826136c7565b602082019050919050565b5f6020820190508181035f830152613728816136ef565b9050919050565b5f5ffd5b5f5ffd5b5f815190506137458161313a565b92915050565b5f61375d61375884612d7e565b612d64565b90508281526020810184848401111561377957613778612cf2565b5b6137848482856132ed565b509392505050565b5f82601f8301126137a05761379f612cee565b5b81516137b084826020860161374b565b91505092915050565b600581106137c5575f5ffd5b50565b5f815190506137d6816137b9565b92915050565b5f61018082840312156137f2576137f161372f565b5b6137fd610180612d64565b90505f61380c84828501613649565b5f83015250602061381f84828501613737565b602083015250604082015167ffffffffffffffff81111561384357613842613733565b5b61384f8482850161378c565b604083015250606082015167ffffffffffffffff81111561387357613872613733565b5b61387f8482850161378c565b606083015250608061389384828501613649565b60808301525060a082015167ffffffffffffffff8111156138b7576138b6613733565b5b6138c38482850161378c565b60a08301525060c082015167ffffffffffffffff8111156138e7576138e6613733565b5b6138f38482850161378c565b60c08301525060e0613907848285016137c8565b60e08301525061010061391c84828501613737565b6101008301525061012061393284828501613649565b6101208301525061014061394884828501613649565b6101408301525061016061395e84828501613688565b6101608301525092915050565b5f602082840312156139805761397f612ce6565b5b5f82015167ffffffffffffffff81111561399d5761399c612cea565b5b6139a9848285016137dc565b91505092915050565b7f4e6f74206173736574206f776e657200000000000000000000000000000000005f82015250565b5f6139e6600f836132dd565b91506139f1826139b2565b602082019050919050565b5f6020820190508181035f830152613a13816139da565b9050919050565b7f436f76657261676520657863656564732061737365742076616c7565000000005f82015250565b5f613a4e601c836132dd565b9150613a5982613a1a565b602082019050919050565b5f6020820190508181035f830152613a7b81613a42565b9050919050565b5f606082019050613a955f830186613112565b613aa26020830185613112565b613aaf6040830184612e7a565b949350505050565b7f5072656d69756d207061796d656e74206661696c6564000000000000000000005f82015250565b5f613aeb6016836132dd565b9150613af682613ab7565b602082019050919050565b5f6020820190508181035f830152613b1881613adf565b9050919050565b50565b5f613b2d5f836132dd565b9150613b3882613b1f565b5f82019050919050565b5f60c082019050613b555f830188613112565b613b626020830187612e7a565b613b6f6040830186612e7a565b613b7c6060830185612e7a565b613b896080830184612e7a565b81810360a0830152613b9a81613b22565b90509695505050505050565b5f604082019050613bb95f830185612e7a565b613bc66020830184612e7a565b9392505050565b5f613bd782612e71565b9150613be283612e71565b9250828201905080821115613bfa57613bf96135e9565b5b92915050565b5f613c0a82612e71565b9150613c1583612e71565b9250828202613c2381612e71565b91508282048414831517613c3a57613c396135e9565b5b5092915050565b7f4e487b71000000000000000000000000000000000000000000000000000000005f52601260045260245ffd5b5f613c7882612e71565b9150613c8383612e71565b925082613c9357613c92613c41565b5b828204905092915050565b5f604082019050613cb15f830185613112565b613cbe6020830184612e7a565b9392505050565b7f4e6f7420616e20617574686f72697a6564206173736573736f720000000000005f82015250565b5f613cf9601a836132dd565b9150613d0482613cc5565b602082019050919050565b5f6020820190508181035f830152613d2681613ced565b9050919050565b7f436c61696d20616c72656164792070726f6365737365640000000000000000005f82015250565b5f613d616017836132dd565b9150613d6c82613d2d565b602082019050919050565b5f6020820190508181035f830152613d8e81613d55565b9050919050565b7f5061796f7574206578636565647320636c61696d20616d6f756e7400000000005f82015250565b5f613dc9601b836132dd565b9150613dd482613d95565b602082019050919050565b5f6020820190508181035f830152613df681613dbd565b9050919050565b7f5061796f7574207472616e73666572206661696c6564000000000000000000005f82015250565b5f613e316016836132dd565b9150613e3c82613dfd565b602082019050919050565b5f6020820190508181035f830152613e5e81613e25565b9050919050565b60048110613e71575f5ffd5b50565b5f81519050613e8281613e65565b92915050565b5f6101208284031215613e9e57613e9d61372f565b5b613ea9610120612d64565b90505f613eb884828501613649565b5f830152506020613ecb84828501613737565b6020830152506040613edf84828501613649565b6040830152506060613ef384828501613649565b6060830152506080613f0784828501613649565b60808301525060a0613f1b84828501613649565b60a08301525060c0613f2f84828501613649565b60c08301525060e0613f4384828501613e74565b60e08301525061010082015167ffffffffffffffff811115613f6857613f67613733565b5b613f748482850161378c565b6101008301525092915050565b5f60208284031215613f9657613f95612ce6565b5b5f82015167ffffffffffffffff811115613fb357613fb2612cea565b5b613fbf84828501613e88565b91505092915050565b5f604082019050613fdb5f830185613397565b613fe86020830184612e7a565b9392505050565b5f6020828403121561400457614003612ce6565b5b5f61401184828501613737565b91505092915050565b7f4e6f7420706f6c696379206f776e6572000000000000000000000000000000005f82015250565b5f61404e6010836132dd565b91506140598261401a565b602082019050919050565b5f6020820190508181035f83015261407b81614042565b9050919050565b7f506f6c696379206e6f74206163746976650000000000000000000000000000005f82015250565b5f6140b66011836132dd565b91506140c182614082565b602082019050919050565b5f6020820190508181035f8301526140e3816140aa565b9050919050565b7f496e73756666696369656e742062616c616e63650000000000000000000000005f82015250565b5f61411e6014836132dd565b9150614129826140ea565b602082019050919050565b5f6020820190508181035f83015261414b81614112565b9050919050565b7f496e76616c6964207472656173757279206164647265737300000000000000005f82015250565b5f6141866018836132dd565b915061419182614152565b602082019050919050565b5f6020820190508181035f8301526141b38161417a565b9050919050565b7f4e487b71000000000000000000000000000000000000000000000000000000005f52603260045260245ffd5b7f4e487b71000000000000000000000000000000000000000000000000000000005f52602260045260245ffd5b5f600282049050600182168061422b57607f821691505b60208210810361423e5761423d6141e7565b5b50919050565b7f46656520746f6f206869676800000000000000000000000000000000000000005f82015250565b5f614278600c836132dd565b915061428382614244565b602082019050919050565b5f6020820190508181035f8301526142a58161426c565b9050919050565b7f496e73756666696369656e74207374616b6500000000000000000000000000005f82015250565b5f6142e06012836132dd565b91506142eb826142ac565b602082019050919050565b5f6020820190508181035f83015261430d816142d4565b9050919050565b7f5374616b65207472616e73666572206661696c656400000000000000000000005f82015250565b5f6143486015836132dd565b915061435382614314565b602082019050919050565b5f6020820190508181035f8301526143758161433c565b9050919050565b7f436c61696d206578636565647320636f766572616765000000000000000000005f82015250565b5f6143b06016836132dd565b91506143bb8261437c565b602082019050919050565b5f6020820190508181035f8301526143dd816143a4565b9050919050565b7f5072656d69756d206f76657264756500000000000000000000000000000000005f82015250565b5f614418600f836132dd565b9150614423826143e4565b602082019050919050565b5f6020820190508181035f8301526144458161440c565b9050919050565b5f61445682612e71565b91507fffffffffffffffffffffffffffffffffffffffffffffffffffffffffffffffff8203614488576144876135e9565b5b600182019050919050565b5f819050815f5260205f209050919050565b5f6020601f8301049050919050565b5f82821b905092915050565b5f600883026144ef7fffffffffffffffffffffffffffffffffffffffffffffffffffffffffffffffff826144b4565b6144f986836144b4565b95508019841693508086168417925050509392505050565b5f61452b61452661452184612e71565b612fb5565b612e71565b9050919050565b5f819050919050565b61454483614511565b61455861455082614532565b8484546144c0565b825550505050565b5f5f905090565b61456f614560565b61457a81848461453b565b505050565b5b8181101561459d576145925f82614567565b600181019050614580565b5050565b601f8211156145e2576145b381614493565b6145bc846144a5565b810160208510156145cb578190505b6145df6145d7856144a5565b83018261457f565b50505b505050565b5f82821c905092915050565b5f6146025f19846008026145e7565b1980831691505092915050565b5f61461a83836145f3565b9150826002028217905092915050565b614633826132d3565b67ffffffffffffffff81111561464c5761464b612d06565b5b6146568254614214565b6146618282856145a1565b5f60209050601f831160018114614692575f8415614680578287015190505b61468a858261460f565b8655506146f1565b601f1984166146a086614493565b5f5b828110156146c7578489015182556001820191506020850194506020810190506146a2565b868310156146e457848901516146e0601f8916826145f3565b8355505b6001600288020188555050505b505050505050565b5f81905092915050565b5f61470d826132d3565b61471781856146f9565b93506147278185602086016132ed565b80840191505092915050565b5f61473e8284614703565b915081905092915050565b7f41737365742074797065206e6f7420737570706f7274656400000000000000005f82015250565b5f61477d6018836132dd565b915061478882614749565b602082019050919050565b5f6020820190508181035f8301526147aa81614771565b905091905056fea2646970667358221220b0b0f58f6beab44acf4b4c2cc8a6a205a2606232cf70ed0836fb1d983452b03064736f6c634300081e0033","linkReferences":{}},"methodIdentifiers":{"BASIS_POINTS()":"e1f1c4a7","GRACE_PERIOD()":"c1a287e2","PREMIUM_PERIOD()":"6bab30b7","assessorStake(address)":"d677bf7f","assetRegistry()":"979d7e86","authorizeAssessor(address,uint256)":"bd4dffa1","authorizedAssessors(address)":"d5370d25","baseRiskMultiplier(string)":"01ba862e","calculatePremium(string,uint256,uint8)":"d6a9b3e4","claims(uint256)":"a888c2cd","emergencyWithdraw(uint256)":"5312ea8e","expireOverduePolicies(uint256[])":"90915ebb","getPlatformStats()":"136d8883","minimumAssessorStake()":"701a43aa","owner()":"8da5cb5b","pause()":"8456cb59","paused()":"5c975abb","payPremium(uint256)":"4364b26e","paymentToken()":"3013ce29","platformFeePercent()":"8c639a85","policyNFT()":"af02808a","processClaim(uint256,bool,uint256)":"3ab979d8","purchasePolicy(uint256,uint256,uint256,uint8)":"2fabef7e","renounceOwnership()":"715018a6","riskPremiumMultiplier(uint8)":"af8ccfc9","submitClaim(uint256,uint256,string,string)":"d291babd","totalClaimsPaid()":"6532ccf5","totalPremiumCollected()":"f7164fc7","transferOwnership(address)":"f2fde38b","treasury()":"61d027b3","unpause()":"3f4ba83a","updatePlatformFee(uint256)":"aa0b5988","updateTreasury(address)":"7f51bb1f"},"id":46}