{"abi":[{"type":"constructor","inputs":[],"stateMutability":"nonpayable"},{"type":"function","name":"addAssetType","inputs":[{"name":"assetType","type":"string","internalType":"string"},{"name":"minimumStake","type":"uint256","internalType":"uint256"}],"outputs":[],"stateMutability":"nonpayable"},{"type":"function","name":"addVerifierStake","inputs":[],"outputs":[],"stateMutability":"payable"},{"type":"function","name":"assets","inputs":[{"name":"","type":"uint256","internalType":"uint256"}],"outputs":[{"name":"id","type":"uint256","internalType":"uint256"},{"name":"owner","type":"address","internalType":"address"},{"name":"assetType","type":"string","internalType":"string"},{"name":"description","type":"string","internalType":"string"},{"name":"estimatedValue","type":"uint256","internalType":"uint256"},{"name":"documentHash","type":"string","internalType":"string"},{"name":"metadataURI","type":"string","internalType":"string"},{"name":"status","type":"uint8","internalType":"enum AssetRegistry.AssetStatus"},{"name":"verifier","type":"address","internalType":"address"},{"name":"verificationDate","type":"uint256","internalType":"uint256"},{"name":"lastAssessment","type":"uint256","internalType":"uint256"},{"name":"isInsurable","type":"bool","internalType":"bool"}],"stateMutability":"view"},{"type":"function","name":"authorizeVerifier","inputs":[{"name":"verifier","type":"address","internalType":"address"}],"outputs":[],"stateMutability":"payable"},{"type":"function","name":"authorizedVerifiers","inputs":[{"name":"","type":"address","internalType":"address"}],"outputs":[{"name":"","type":"bool","internalType":"bool"}],"stateMutability":"view"},{"type":"function","name":"canVerifyAssetType","inputs":[{"name":"verifier","type":"address","internalType":"address"},{"name":"assetType","type":"string","internalType":"string"}],"outputs":[{"name":"","type":"bool","internalType":"bool"}],"stateMutability":"view"},{"type":"function","name":"emergencyWithdraw","inputs":[],"outputs":[],"stateMutability":"nonpayable"},{"type":"function","name":"getAsset","inputs":[{"name":"assetId","type":"uint256","internalType":"uint256"}],"outputs":[{"name":"","type":"tuple","internalType":"struct AssetRegistry.Asset","components":[{"name":"id","type":"uint256","internalType":"uint256"},{"name":"owner","type":"address","internalType":"address"},{"name":"assetType","type":"string","internalType":"string"},{"name":"description","type":"string","internalType":"string"},{"name":"estimatedValue","type":"uint256","internalType":"uint256"},{"name":"documentHash","type":"string","internalType":"string"},{"name":"metadataURI","type":"string","internalType":"string"},{"name":"status","type":"uint8","internalType":"enum AssetRegistry.AssetStatus"},{"name":"verifier","type":"address","internalType":"address"},{"name":"verificationDate","type":"uint256","internalType":"uint256"},{"name":"lastAssessment","type":"uint256","internalType":"uint256"},{"name":"isInsurable","type":"bool","internalType":"bool"}]}],"stateMutability":"view"},{"type":"function","name":"getOwnerAssets","inputs":[{"name":"owner","type":"address","internalType":"address"}],"outputs":[{"name":"","type":"uint256[]","internalType":"uint256[]"}],"stateMutability":"view"},{"type":"function","name":"getVerifierStake","inputs":[{"name":"verifier","type":"address","internalType":"address"}],"outputs":[{"name":"","type":"uint256","internalType":"uint256"}],"stateMutability":"view"},{"type":"function","name":"isAssetInsurable","inputs":[{"name":"assetId","type":"uint256","internalType":"uint256"}],"outputs":[{"name":"","type":"bool","internalType":"bool"}],"stateMutability":"view"},{"type":"function","name":"markAssetClaimed","inputs":[{"name":"assetId","type":"uint256","internalType":"uint256"},{"name":"claimAmount","type":"uint256","internalType":"uint256"}],"outputs":[],"stateMutability":"nonpayable"},{"type":"function","name":"markAssetInsured","inputs":[{"name":"assetId","type":"uint256","internalType":"uint256"},{"name":"policyId","type":"uint256","internalType":"uint256"}],"outputs":[],"stateMutability":"nonpayable"},{"type":"function","name":"minimumStakeRequired","inputs":[{"name":"","type":"string","internalType":"string"}],"outputs":[{"name":"","type":"uint256","internalType":"uint256"}],"stateMutability":"view"},{"type":"function","name":"owner","inputs":[],"outputs":[{"name":"","type":"address","internalType":"address"}],"stateMutability":"view"},{"type":"function","name":"ownerAssets","inputs":[{"name":"","type":"address","internalType":"address"},{"name":"","type":"uint256","internalType":"uint256"}],"outputs":[{"name":"","type":"uint256","internalType":"uint256"}],"stateMutability":"view"},{"type":"function","name":"pause","inputs":[],"outputs":[],"stateMutability":"nonpayable"},{"type":"function","name":"paused","inputs":[],"outputs":[{"name":"","type":"bool","internalType":"bool"}],"stateMutability":"view"},{"type":"function","name":"registerAsset","inputs":[{"name":"assetType","type":"string","internalType":"string"},{"name":"description","type":"string","internalType":"string"},{"name":"estimatedValue","type":"uint256","internalType":"uint256"},{"name":"documentHash","type":"string","internalType":"string"},{"name":"metadataURI","type":"string","internalType":"string"}],"outputs":[{"name":"","type":"uint256","internalType":"uint256"}],"stateMutability":"nonpayable"},{"type":"function","name":"renounceOwnership","inputs":[],"outputs":[],"stateMutability":"nonpayable"},{"type":"function","name":"supportedAssetTypes","inputs":[{"name":"","type":"string","internalType":"string"}],"outputs":[{"name":"","type":"bool","internalType":"bool"}],"stateMutability":"view"},{"type":"function","name":"transferOwnership","inputs":[{"name":"newOwner","type":"address","internalType":"address"}],"outputs":[],"stateMutability":"nonpayable"},{"type":"function","name":"unpause","inputs":[],"outputs":[],"stateMutability":"nonpayable"},{"type":"function","name":"updateAssetValue","inputs":[{"name":"assetId","type":"uint256","internalType":"uint256"},{"name":"newValue","type":"uint256","internalType":"uint256"}],"outputs":[],"stateMutability":"nonpayable"},{"type":"function","name":"verifierStake","inputs":[{"name":"","type":"address","internalType":"address"}],"outputs":[{"name":"","type":"uint256","internalType":"uint256"}],"stateMutability":"view"},{"type":"function","name":"verifyAsset","inputs":[{"name":"assetId","type":"uint256","internalType":"uint256"},{"name":"approved","type":"bool","internalType":"bool"}],"outputs":[],"stateMutability":"nonpayable"},{"type":"function","name":"withdrawVerifierStake","inputs":[{"name":"amount","type":"uint256","internalType":"uint256"}],"outputs":[],"stateMutability":"nonpayable"},{"type":"event","name":"AssetClaimed","inputs":[{"name":"assetId","type":"uint256","indexed":true,"internalType":"uint256"},{"name":"claimAmount","type":"uint256","indexed":false,"internalType":"uint256"}],"anonymous":false},{"type":"event","name":"AssetInsured","inputs":[{"name":"assetId","type":"uint256","indexed":true,"internalType":"uint256"},{"name":"policyId","type":"uint256","indexed":false,"internalType":"uint256"}],"anonymous":false},{"type":"event","name":"AssetRegistered","inputs":[{"name":"assetId","type":"uint256","indexed":true,"internalType":"uint256"},{"name":"owner","type":"address","indexed":true,"internalType":"address"},{"name":"assetType","type":"string","indexed":false,"internalType":"string"}],"anonymous":false},{"type":"event","name":"AssetRejected","inputs":[{"name":"assetId","type":"uint256","indexed":true,"internalType":"uint256"},{"name":"verifier","type":"address","indexed":true,"internalType":"address"},{"name":"reason","type":"string","indexed":false,"internalType":"string"}],"anonymous":false},{"type":"event","name":"AssetTypeAdded","inputs":[{"name":"assetType","type":"string","indexed":false,"internalType":"string"},{"name":"minimumStake","type":"uint256","indexed":false,"internalType":"uint256"}],"anonymous":false},{"type":"event","name":"AssetVerified","inputs":[{"name":"assetId","type":"uint256","indexed":true,"internalType":"uint256"},{"name":"verifier","type":"address","indexed":true,"internalType":"address"}],"anonymous":false},{"type":"event","name":"OwnershipTransferred","inputs":[{"name":"previousOwner","type":"address","indexed":true,"internalType":"address"},{"name":"newOwner","type":"address","indexed":true,"internalType":"address"}],"anonymous":false},{"type":"event","name":"Paused","inputs":[{"name":"account","type":"address","indexed":false,"internalType":"address"}],"anonymous":false},{"type":"event","name":"Unpaused","inputs":[{"name":"account","type":"address","indexed":false,"internalType":"address"}],"anonymous":false},{"type":"event","name":"VerifierAuthorized","inputs":[{"name":"verifier","type":"address","indexed":true,"internalType":"address"},{"name":"stakeAmount","type":"uint256","indexed":false,"internalType":"uint256"}],"anonymous":false},{"type":"event","name":"VerifierStakeUpdated","inputs":[{"name":"verifier","type":"address","indexed":true,"internalType":"address"},{"name":"newStake","type":"uint256","indexed":false,"internalType":"uint256"}],"anonymous":false},{"type":"error","name":"EnforcedPause","inputs":[]},{"type":"error","name":"ExpectedPause","inputs":[]},{"type":"error","name":"OwnableInvalidOwner","inputs":[{"name":"owner","type":"address","internalType":"address"}]},{"type":"error","name":"OwnableUnauthorizedAccount","inputs":[{"name":"account","type":"address","internalType":"address"}]}],"bytecode":{"object":"0x608060405234801561000f575f5ffd5b50335f73ffffffffffffffffffffffffffffffffffffffff168173ffffffffffffffffffffffffffffffffffffffff1603610081575f6040517f1e4fbdf70000000000000000000000000000000000000000000000000000000081526004016100789190610380565b60405180910390fd5b6100908161028060201b60201c565b505f5f60146101000a81548160ff021916908315150217905550600160056040516100ba906103ed565b90815260200160405180910390205f6101000a81548160ff021916908315150217905550600160056040516100ee9061044b565b90815260200160405180910390205f6101000a81548160ff02191690831515021790555060016005604051610122906104a9565b90815260200160405180910390205f6101000a81548160ff0219169083151502179055506001600560405161015690610507565b90815260200160405180910390205f6101000a81548160ff0219169083151502179055506001600560405161018a90610565565b90815260200160405180910390205f6101000a81548160ff021916908315150217905550678ac7230489e8000060066040516101c5906103ed565b908152602001604051809103902081905550674563918244f4000060066040516101ee9061044b565b908152602001604051809103902081905550676f05b59d3b2000006006604051610217906104a9565b9081526020016040518091039020819055506729a2241af62c0000600660405161024090610507565b908152602001604051809103902081905550671bc16d674ec80000600660405161026990610565565b908152602001604051809103902081905550610579565b5f5f5f9054906101000a900473ffffffffffffffffffffffffffffffffffffffff169050815f5f6101000a81548173ffffffffffffffffffffffffffffffffffffffff021916908373ffffffffffffffffffffffffffffffffffffffff1602179055508173ffffffffffffffffffffffffffffffffffffffff168173ffffffffffffffffffffffffffffffffffffffff167f8be0079c531659141344cd1fd0a4f28419497f9722a3daafe3b4186f6b6457e060405160405180910390a35050565b5f73ffffffffffffffffffffffffffffffffffffffff82169050919050565b5f61036a82610341565b9050919050565b61037a81610360565b82525050565b5f6020820190506103935f830184610371565b92915050565b5f81905092915050565b7f7265616c5f6573746174650000000000000000000000000000000000000000005f82015250565b5f6103d7600b83610399565b91506103e2826103a3565b600b82019050919050565b5f6103f7826103cb565b9150819050919050565b7f76656869636c65000000000000000000000000000000000000000000000000005f82015250565b5f610435600783610399565b915061044082610401565b600782019050919050565b5f61045582610429565b9150819050919050565b7f617274776f726b000000000000000000000000000000000000000000000000005f82015250565b5f610493600783610399565b915061049e8261045f565b600782019050919050565b5f6104b382610487565b9150819050919050565b7f6a6577656c7279000000000000000000000000000000000000000000000000005f82015250565b5f6104f1600783610399565b91506104fc826104bd565b600782019050919050565b5f610511826104e5565b9150819050919050565b7f656c656374726f6e6963730000000000000000000000000000000000000000005f82015250565b5f61054f600b83610399565b915061055a8261051b565b600b82019050919050565b5f61056f82610543565b9150819050919050565b613cdd806105865f395ff3fe60806040526004361061019b575f3560e01c80638456cb59116100eb578063cb646c5311610089578063e376b7d911610063578063e376b7d9146105b0578063eac8f5b8146105d8578063f2fde38b14610614578063f856789b1461063c5761019b565b8063cb646c5314610517578063cf35bdd014610553578063db2e21bc1461059a5761019b565b806399e61897116100c557806399e61897146104595780639a89171614610495578063a4c8f107146104d1578063b56aac3a1461050d5761019b565b80638456cb59146103f15780638be8f633146104075780638da5cb5b1461042f5761019b565b8063455bd951116101585780636b9f299b116101325780636b9f299b1461033b5780637077a4e414610377578063715018a6146103b35780637a3dcd6b146103c95761019b565b8063455bd951146102ad5780635c975abb146102e957806360c4dce3146103135761019b565b806301d665971461019f578063073099a9146101c75780630fa137f41461020357806320ad8cab1461023f5780632d38f89b1461025b5780633f4ba83a14610297575b5f5ffd5b3480156101aa575f5ffd5b506101c560048036038101906101c091906128a1565b610664565b005b3480156101d2575f5ffd5b506101ed60048036038101906101e89190612a1b565b61080c565b6040516101fa9190612b11565b60405180910390f35b34801561020e575f5ffd5b5061022960048036038101906102249190612b84565b610bdd565b6040516102369190612b11565b60405180910390f35b61025960048036038101906102549190612b84565b610c23565b005b348015610266575f5ffd5b50610281600480360381019061027c9190612b84565b610d66565b60405161028e9190612c66565b60405180910390f35b3480156102a2575f5ffd5b506102ab610df9565b005b3480156102b8575f5ffd5b506102d360048036038101906102ce9190612c86565b610e0b565b6040516102e09190612b11565b60405180910390f35b3480156102f4575f5ffd5b506102fd610e36565b60405161030a9190612cde565b60405180910390f35b34801561031e575f5ffd5b50610339600480360381019061033491906128a1565b610e4b565b005b348015610346575f5ffd5b50610361600480360381019061035c9190612cf7565b611018565b60405161036e9190612cde565b60405180910390f35b348015610382575f5ffd5b5061039d60048036038101906103989190612d22565b6110fc565b6040516103aa9190612cde565b60405180910390f35b3480156103be575f5ffd5b506103c7611131565b005b3480156103d4575f5ffd5b506103ef60048036038101906103ea9190612d93565b611144565b005b3480156103fc575f5ffd5b506104056115e9565b005b348015610412575f5ffd5b5061042d60048036038101906104289190612cf7565b6115fb565b005b34801561043a575f5ffd5b50610443611829565b6040516104509190612de0565b60405180910390f35b348015610464575f5ffd5b5061047f600480360381019061047a9190612df9565b611850565b60405161048c9190612cde565b60405180910390f35b3480156104a0575f5ffd5b506104bb60048036038101906104b69190612b84565b61190a565b6040516104c89190612cde565b60405180910390f35b3480156104dc575f5ffd5b506104f760048036038101906104f29190612b84565b611927565b6040516105049190612b11565b60405180910390f35b61051561193c565b005b348015610522575f5ffd5b5061053d60048036038101906105389190612d22565b611ae7565b60405161054a9190612b11565b60405180910390f35b34801561055e575f5ffd5b5061057960048036038101906105749190612cf7565b611b14565b6040516105919c9b9a99989796959493929190612f26565b60405180910390f35b3480156105a5575f5ffd5b506105ae611ddf565b005b3480156105bb575f5ffd5b506105d660048036038101906105d191906128a1565b611e34565b005b3480156105e3575f5ffd5b506105fe60048036038101906105f99190612cf7565b611fdc565b60405161060b9190613185565b60405180910390f35b34801561061f575f5ffd5b5061063a60048036038101906106359190612b84565b61240f565b005b348015610647575f5ffd5b50610662600480360381019061065d91906131a5565b612493565b005b61066c612531565b5f73ffffffffffffffffffffffffffffffffffffffff1660025f8481526020019081526020015f206001015f9054906101000a900473ffffffffffffffffffffffffffffffffffffffff1673ffffffffffffffffffffffffffffffffffffffff160361070d576040517f08c379a000000000000000000000000000000000000000000000000000000000815260040161070490613249565b60405180910390fd5b6001600481111561072157610720612eb3565b5b60025f8481526020019081526020015f206007015f9054906101000a900460ff16600481111561075457610753612eb3565b5b14610794576040517f08c379a000000000000000000000000000000000000000000000000000000000815260040161078b906132b1565b60405180910390fd5b600360025f8481526020019081526020015f206007015f6101000a81548160ff021916908360048111156107cb576107ca612eb3565b5b0217905550817f8f269ca27e5bf45a2c9ef595cc0b89d649b0293b4ad9c863854e567712f169d5826040516108009190612b11565b60405180910390a25050565b5f610815612531565b6005866040516108259190613309565b90815260200160405180910390205f9054906101000a900460ff1661087f576040517f08c379a000000000000000000000000000000000000000000000000000000000815260040161087690613369565b60405180910390fd5b5f8551116108c2576040517f08c379a00000000000000000000000000000000000000000000000000000000081526004016108b9906133d1565b60405180910390fd5b5f8411610904576040517f08c379a00000000000000000000000000000000000000000000000000000000081526004016108fb9061345f565b60405180910390fd5b5f60015f815480929190610917906134aa565b9190505590506040518061018001604052808281526020013373ffffffffffffffffffffffffffffffffffffffff1681526020018881526020018781526020018681526020018581526020018481526020015f600481111561097c5761097b612eb3565b5b81526020015f73ffffffffffffffffffffffffffffffffffffffff1681526020015f81526020014281526020015f151581525060025f8381526020019081526020015f205f820151815f01556020820151816001015f6101000a81548173ffffffffffffffffffffffffffffffffffffffff021916908373ffffffffffffffffffffffffffffffffffffffff1602179055506040820151816002019081610a2391906136ee565b506060820151816003019081610a3991906136ee565b506080820151816004015560a0820151816005019081610a5991906136ee565b5060c0820151816006019081610a6f91906136ee565b5060e0820151816007015f6101000a81548160ff02191690836004811115610a9a57610a99612eb3565b5b02179055506101008201518160070160016101000a81548173ffffffffffffffffffffffffffffffffffffffff021916908373ffffffffffffffffffffffffffffffffffffffff1602179055506101208201518160080155610140820151816009015561016082015181600a015f6101000a81548160ff02191690831515021790555090505060035f3373ffffffffffffffffffffffffffffffffffffffff1673ffffffffffffffffffffffffffffffffffffffff1681526020019081526020015f2081908060018154018082558091505060019003905f5260205f20015f90919091909150553373ffffffffffffffffffffffffffffffffffffffff16817f522902797ecf25adb7fe6834ed0d749090896244923f1c3e0b7ca938687ea08f89604051610bc891906137bd565b60405180910390a38091505095945050505050565b5f60075f8373ffffffffffffffffffffffffffffffffffffffff1673ffffffffffffffffffffffffffffffffffffffff1681526020019081526020015f20549050919050565b610c2b612572565b5f3411610c6d576040517f08c379a0000000000000000000000000000000000000000000000000000000008152600401610c6490613827565b60405180910390fd5b600160045f8373ffffffffffffffffffffffffffffffffffffffff1673ffffffffffffffffffffffffffffffffffffffff1681526020019081526020015f205f6101000a81548160ff0219169083151502179055503460075f8373ffffffffffffffffffffffffffffffffffffffff1673ffffffffffffffffffffffffffffffffffffffff1681526020019081526020015f205f828254610d0e9190613845565b925050819055508073ffffffffffffffffffffffffffffffffffffffff167f24be30fa800e8c7b8606abded78e0e7865d8e62ad285bff7d7e3acb0ec4cd9ee34604051610d5b9190612b11565b60405180910390a250565b606060035f8373ffffffffffffffffffffffffffffffffffffffff1673ffffffffffffffffffffffffffffffffffffffff1681526020019081526020015f20805480602002602001604051908101604052809291908181526020018280548015610ded57602002820191905f5260205f20905b815481526020019060010190808311610dd9575b50505050509050919050565b610e01612572565b610e096125f9565b565b6003602052815f5260405f208181548110610e24575f80fd5b905f5260205f20015f91509150505481565b5f5f60149054906101000a900460ff16905090565b813373ffffffffffffffffffffffffffffffffffffffff1660025f8381526020019081526020015f206001015f9054906101000a900473ffffffffffffffffffffffffffffffffffffffff1673ffffffffffffffffffffffffffffffffffffffff1614610eed576040517f08c379a0000000000000000000000000000000000000000000000000000000008152600401610ee4906138c2565b60405180910390fd5b610ef5612531565b600480811115610f0857610f07612eb3565b5b60025f8581526020019081526020015f206007015f9054906101000a900460ff166004811115610f3b57610f3a612eb3565b5b03610f7b576040517f08c379a0000000000000000000000000000000000000000000000000000000008152600401610f729061392a565b60405180910390fd5b8160025f8581526020019081526020015f20600401819055504260025f8581526020019081526020015f20600901819055505f60025f8581526020019081526020015f206007015f6101000a81548160ff02191690836004811115610fe357610fe2612eb3565b5b02179055505f60025f8581526020019081526020015f20600a015f6101000a81548160ff021916908315150217905550505050565b5f5f73ffffffffffffffffffffffffffffffffffffffff1660025f8481526020019081526020015f206001015f9054906101000a900473ffffffffffffffffffffffffffffffffffffffff1673ffffffffffffffffffffffffffffffffffffffff16141580156110cc57506001600481111561109757611096612eb3565b5b60025f8481526020019081526020015f206007015f9054906101000a900460ff1660048111156110ca576110c9612eb3565b5b145b80156110f5575060025f8381526020019081526020015f20600a015f9054906101000a900460ff165b9050919050565b6005818051602081018201805184825260208301602085012081835280955050505050505f915054906101000a900460ff1681565b611139612572565b6111425f61265a565b565b60045f3373ffffffffffffffffffffffffffffffffffffffff1673ffffffffffffffffffffffffffffffffffffffff1681526020019081526020015f205f9054906101000a900460ff166111cd576040517f08c379a00000000000000000000000000000000000000000000000000000000081526004016111c490613992565b60405180910390fd5b6111d5612531565b5f73ffffffffffffffffffffffffffffffffffffffff1660025f8481526020019081526020015f206001015f9054906101000a900473ffffffffffffffffffffffffffffffffffffffff1673ffffffffffffffffffffffffffffffffffffffff1603611276576040517f08c379a000000000000000000000000000000000000000000000000000000000815260040161126d90613249565b60405180910390fd5b5f600481111561128957611288612eb3565b5b60025f8481526020019081526020015f206007015f9054906101000a900460ff1660048111156112bc576112bb612eb3565b5b146112fc576040517f08c379a00000000000000000000000000000000000000000000000000000000081526004016112f3906139fa565b60405180910390fd5b5f60025f8481526020019081526020015f20600201805461131c9061351e565b80601f01602080910402602001604051908101604052809291908181526020018280546113489061351e565b80156113935780601f1061136a57610100808354040283529160200191611393565b820191905f5260205f20905b81548152906001019060200180831161137657829003601f168201915b505050505090506006816040516113aa9190613309565b90815260200160405180910390205460075f3373ffffffffffffffffffffffffffffffffffffffff1673ffffffffffffffffffffffffffffffffffffffff1681526020019081526020015f20541015611438576040517f08c379a000000000000000000000000000000000000000000000000000000000815260040161142f90613a88565b60405180910390fd5b3360025f8581526020019081526020015f2060070160016101000a81548173ffffffffffffffffffffffffffffffffffffffff021916908373ffffffffffffffffffffffffffffffffffffffff1602179055504260025f8581526020019081526020015f2060080181905550811561155b57600160025f8581526020019081526020015f206007015f6101000a81548160ff021916908360048111156114e1576114e0612eb3565b5b0217905550600160025f8581526020019081526020015f20600a015f6101000a81548160ff0219169083151502179055503373ffffffffffffffffffffffffffffffffffffffff16837f5bd81a4d257100f5fe7df72a9e528a7aaf33871f8258739a331d2627a83f0aac60405160405180910390a36115e4565b6002805f8581526020019081526020015f206007015f6101000a81548160ff0219169083600481111561159157611590612eb3565b5b02179055503373ffffffffffffffffffffffffffffffffffffffff16837f87ad73c8f687ec12c9b41d48870a96118599a3073f27844ff68c8d142eea076e6040516115db90613af0565b60405180910390a35b505050565b6115f1612572565b6115f961271b565b565b60045f3373ffffffffffffffffffffffffffffffffffffffff1673ffffffffffffffffffffffffffffffffffffffff1681526020019081526020015f205f9054906101000a900460ff16611684576040517f08c379a000000000000000000000000000000000000000000000000000000000815260040161167b90613992565b60405180910390fd5b8060075f3373ffffffffffffffffffffffffffffffffffffffff1673ffffffffffffffffffffffffffffffffffffffff1681526020019081526020015f20541015611704576040517f08c379a00000000000000000000000000000000000000000000000000000000081526004016116fb90613b58565b60405180910390fd5b8060075f3373ffffffffffffffffffffffffffffffffffffffff1673ffffffffffffffffffffffffffffffffffffffff1681526020019081526020015f205f8282546117509190613b76565b925050819055503373ffffffffffffffffffffffffffffffffffffffff166108fc8290811502906040515f60405180830381858888f1935050505015801561179a573d5f5f3e3d5ffd5b503373ffffffffffffffffffffffffffffffffffffffff167f9639323af2f3bc25799bc46ee35ea6c93ad8cde27440822f34bfd37cd4a2b08560075f3373ffffffffffffffffffffffffffffffffffffffff1673ffffffffffffffffffffffffffffffffffffffff1681526020019081526020015f205460405161181e9190612b11565b60405180910390a250565b5f5f5f9054906101000a900473ffffffffffffffffffffffffffffffffffffffff16905090565b5f60045f8473ffffffffffffffffffffffffffffffffffffffff1673ffffffffffffffffffffffffffffffffffffffff1681526020019081526020015f205f9054906101000a900460ff16801561190257506006826040516118b29190613309565b90815260200160405180910390205460075f8573ffffffffffffffffffffffffffffffffffffffff1673ffffffffffffffffffffffffffffffffffffffff1681526020019081526020015f205410155b905092915050565b6004602052805f5260405f205f915054906101000a900460ff1681565b6007602052805f5260405f205f915090505481565b60045f3373ffffffffffffffffffffffffffffffffffffffff1673ffffffffffffffffffffffffffffffffffffffff1681526020019081526020015f205f9054906101000a900460ff166119c5576040517f08c379a00000000000000000000000000000000000000000000000000000000081526004016119bc90613992565b60405180910390fd5b5f3411611a07576040517f08c379a00000000000000000000000000000000000000000000000000000000081526004016119fe90613bf3565b60405180910390fd5b3460075f3373ffffffffffffffffffffffffffffffffffffffff1673ffffffffffffffffffffffffffffffffffffffff1681526020019081526020015f205f828254611a539190613845565b925050819055503373ffffffffffffffffffffffffffffffffffffffff167f9639323af2f3bc25799bc46ee35ea6c93ad8cde27440822f34bfd37cd4a2b08560075f3373ffffffffffffffffffffffffffffffffffffffff1673ffffffffffffffffffffffffffffffffffffffff1681526020019081526020015f2054604051611add9190612b11565b60405180910390a2565b6006818051602081018201805184825260208301602085012081835280955050505050505f915090505481565b6002602052805f5260405f205f91509050805f015490806001015f9054906101000a900473ffffffffffffffffffffffffffffffffffffffff1690806002018054611b5e9061351e565b80601f0160208091040260200160405190810160405280929190818152602001828054611b8a9061351e565b8015611bd55780601f10611bac57610100808354040283529160200191611bd5565b820191905f5260205f20905b815481529060010190602001808311611bb857829003601f168201915b505050505090806003018054611bea9061351e565b80601f0160208091040260200160405190810160405280929190818152602001828054611c169061351e565b8015611c615780601f10611c3857610100808354040283529160200191611c61565b820191905f5260205f20905b815481529060010190602001808311611c4457829003601f168201915b505050505090806004015490806005018054611c7c9061351e565b80601f0160208091040260200160405190810160405280929190818152602001828054611ca89061351e565b8015611cf35780601f10611cca57610100808354040283529160200191611cf3565b820191905f5260205f20905b815481529060010190602001808311611cd657829003601f168201915b505050505090806006018054611d089061351e565b80601f0160208091040260200160405190810160405280929190818152602001828054611d349061351e565b8015611d7f5780601f10611d5657610100808354040283529160200191611d7f565b820191905f5260205f20905b815481529060010190602001808311611d6257829003601f168201915b505050505090806007015f9054906101000a900460ff16908060070160019054906101000a900473ffffffffffffffffffffffffffffffffffffffff169080600801549080600901549080600a015f9054906101000a900460ff1690508c565b611de7612572565b611def611829565b73ffffffffffffffffffffffffffffffffffffffff166108fc4790811502906040515f60405180830381858888f19350505050158015611e31573d5f5f3e3d5ffd5b50565b611e3c612531565b5f73ffffffffffffffffffffffffffffffffffffffff1660025f8481526020019081526020015f206001015f9054906101000a900473ffffffffffffffffffffffffffffffffffffffff1673ffffffffffffffffffffffffffffffffffffffff1603611edd576040517f08c379a0000000000000000000000000000000000000000000000000000000008152600401611ed490613249565b60405180910390fd5b60036004811115611ef157611ef0612eb3565b5b60025f8481526020019081526020015f206007015f9054906101000a900460ff166004811115611f2457611f23612eb3565b5b14611f64576040517f08c379a0000000000000000000000000000000000000000000000000000000008152600401611f5b90613c5b565b60405180910390fd5b600460025f8481526020019081526020015f206007015f6101000a81548160ff02191690836004811115611f9b57611f9a612eb3565b5b0217905550817fe856526ffacadca46e45b477963f17ce77cebe181d24f35f77189006543a2c3682604051611fd09190612b11565b60405180910390a25050565b611fe46127c4565b5f73ffffffffffffffffffffffffffffffffffffffff1660025f8481526020019081526020015f206001015f9054906101000a900473ffffffffffffffffffffffffffffffffffffffff1673ffffffffffffffffffffffffffffffffffffffff1603612085576040517f08c379a000000000000000000000000000000000000000000000000000000000815260040161207c90613249565b60405180910390fd5b60025f8381526020019081526020015f20604051806101800160405290815f8201548152602001600182015f9054906101000a900473ffffffffffffffffffffffffffffffffffffffff1673ffffffffffffffffffffffffffffffffffffffff1673ffffffffffffffffffffffffffffffffffffffff1681526020016002820180546121109061351e565b80601f016020809104026020016040519081016040528092919081815260200182805461213c9061351e565b80156121875780601f1061215e57610100808354040283529160200191612187565b820191905f5260205f20905b81548152906001019060200180831161216a57829003601f168201915b505050505081526020016003820180546121a09061351e565b80601f01602080910402602001604051908101604052809291908181526020018280546121cc9061351e565b80156122175780601f106121ee57610100808354040283529160200191612217565b820191905f5260205f20905b8154815290600101906020018083116121fa57829003601f168201915b505050505081526020016004820154815260200160058201805461223a9061351e565b80601f01602080910402602001604051908101604052809291908181526020018280546122669061351e565b80156122b15780601f10612288576101008083540402835291602001916122b1565b820191905f5260205f20905b81548152906001019060200180831161229457829003601f168201915b505050505081526020016006820180546122ca9061351e565b80601f01602080910402602001604051908101604052809291908181526020018280546122f69061351e565b80156123415780601f1061231857610100808354040283529160200191612341565b820191905f5260205f20905b81548152906001019060200180831161232457829003601f168201915b50505050508152602001600782015f9054906101000a900460ff16600481111561236e5761236d612eb3565b5b60048111156123805761237f612eb3565b5b81526020016007820160019054906101000a900473ffffffffffffffffffffffffffffffffffffffff1673ffffffffffffffffffffffffffffffffffffffff1673ffffffffffffffffffffffffffffffffffffffff1681526020016008820154815260200160098201548152602001600a82015f9054906101000a900460ff1615151515815250509050919050565b612417612572565b5f73ffffffffffffffffffffffffffffffffffffffff168173ffffffffffffffffffffffffffffffffffffffff1603612487575f6040517f1e4fbdf700000000000000000000000000000000000000000000000000000000815260040161247e9190612de0565b60405180910390fd5b6124908161265a565b50565b61249b612572565b60016005836040516124ad9190613309565b90815260200160405180910390205f6101000a81548160ff021916908315150217905550806006836040516124e29190613309565b9081526020016040518091039020819055507f07a66bea4b5b95da56c147528a9cef6bc95e9297c6ce910eee150662de50f4e68282604051612525929190613c79565b60405180910390a15050565b612539610e36565b15612570576040517fd93c066500000000000000000000000000000000000000000000000000000000815260040160405180910390fd5b565b61257a61277d565b73ffffffffffffffffffffffffffffffffffffffff16612598611829565b73ffffffffffffffffffffffffffffffffffffffff16146125f7576125bb61277d565b6040517f118cdaa70000000000000000000000000000000000000000000000000000000081526004016125ee9190612de0565b60405180910390fd5b565b612601612784565b5f5f60146101000a81548160ff0219169083151502179055507f5db9ee0a495bf2e6ff9c91a7834c1ba4fdd244a5e8aa4e537bd38aeae4b073aa61264361277d565b6040516126509190612de0565b60405180910390a1565b5f5f5f9054906101000a900473ffffffffffffffffffffffffffffffffffffffff169050815f5f6101000a81548173ffffffffffffffffffffffffffffffffffffffff021916908373ffffffffffffffffffffffffffffffffffffffff1602179055508173ffffffffffffffffffffffffffffffffffffffff168173ffffffffffffffffffffffffffffffffffffffff167f8be0079c531659141344cd1fd0a4f28419497f9722a3daafe3b4186f6b6457e060405160405180910390a35050565b612723612531565b60015f60146101000a81548160ff0219169083151502179055507f62e78cea01bee320cd4e420270b5ea74000d11b0c9f74754ebdbfc544b05a25861276661277d565b6040516127739190612de0565b60405180910390a1565b5f33905090565b61278c610e36565b6127c2576040517f8dfc202b00000000000000000000000000000000000000000000000000000000815260040160405180910390fd5b565b6040518061018001604052805f81526020015f73ffffffffffffffffffffffffffffffffffffffff16815260200160608152602001606081526020015f815260200160608152602001606081526020015f600481111561282757612826612eb3565b5b81526020015f73ffffffffffffffffffffffffffffffffffffffff1681526020015f81526020015f81526020015f151581525090565b5f604051905090565b5f5ffd5b5f5ffd5b5f819050919050565b6128808161286e565b811461288a575f5ffd5b50565b5f8135905061289b81612877565b92915050565b5f5f604083850312156128b7576128b6612866565b5b5f6128c48582860161288d565b92505060206128d58582860161288d565b9150509250929050565b5f5ffd5b5f5ffd5b5f601f19601f8301169050919050565b7f4e487b71000000000000000000000000000000000000000000000000000000005f52604160045260245ffd5b61292d826128e7565b810181811067ffffffffffffffff8211171561294c5761294b6128f7565b5b80604052505050565b5f61295e61285d565b905061296a8282612924565b919050565b5f67ffffffffffffffff821115612989576129886128f7565b5b612992826128e7565b9050602081019050919050565b828183375f83830152505050565b5f6129bf6129ba8461296f565b612955565b9050828152602081018484840111156129db576129da6128e3565b5b6129e684828561299f565b509392505050565b5f82601f830112612a0257612a016128df565b5b8135612a128482602086016129ad565b91505092915050565b5f5f5f5f5f60a08688031215612a3457612a33612866565b5b5f86013567ffffffffffffffff811115612a5157612a5061286a565b5b612a5d888289016129ee565b955050602086013567ffffffffffffffff811115612a7e57612a7d61286a565b5b612a8a888289016129ee565b9450506040612a9b8882890161288d565b935050606086013567ffffffffffffffff811115612abc57612abb61286a565b5b612ac8888289016129ee565b925050608086013567ffffffffffffffff811115612ae957612ae861286a565b5b612af5888289016129ee565b9150509295509295909350565b612b0b8161286e565b82525050565b5f602082019050612b245f830184612b02565b92915050565b5f73ffffffffffffffffffffffffffffffffffffffff82169050919050565b5f612b5382612b2a565b9050919050565b612b6381612b49565b8114612b6d575f5ffd5b50565b5f81359050612b7e81612b5a565b92915050565b5f60208284031215612b9957612b98612866565b5b5f612ba684828501612b70565b91505092915050565b5f81519050919050565b5f82825260208201905092915050565b5f819050602082019050919050565b612be18161286e565b82525050565b5f612bf28383612bd8565b60208301905092915050565b5f602082019050919050565b5f612c1482612baf565b612c1e8185612bb9565b9350612c2983612bc9565b805f5b83811015612c59578151612c408882612be7565b9750612c4b83612bfe565b925050600181019050612c2c565b5085935050505092915050565b5f6020820190508181035f830152612c7e8184612c0a565b905092915050565b5f5f60408385031215612c9c57612c9b612866565b5b5f612ca985828601612b70565b9250506020612cba8582860161288d565b9150509250929050565b5f8115159050919050565b612cd881612cc4565b82525050565b5f602082019050612cf15f830184612ccf565b92915050565b5f60208284031215612d0c57612d0b612866565b5b5f612d198482850161288d565b91505092915050565b5f60208284031215612d3757612d36612866565b5b5f82013567ffffffffffffffff811115612d5457612d5361286a565b5b612d60848285016129ee565b91505092915050565b612d7281612cc4565b8114612d7c575f5ffd5b50565b5f81359050612d8d81612d69565b92915050565b5f5f60408385031215612da957612da8612866565b5b5f612db68582860161288d565b9250506020612dc785828601612d7f565b9150509250929050565b612dda81612b49565b82525050565b5f602082019050612df35f830184612dd1565b92915050565b5f5f60408385031215612e0f57612e0e612866565b5b5f612e1c85828601612b70565b925050602083013567ffffffffffffffff811115612e3d57612e3c61286a565b5b612e49858286016129ee565b9150509250929050565b5f81519050919050565b5f82825260208201905092915050565b8281835e5f83830152505050565b5f612e8582612e53565b612e8f8185612e5d565b9350612e9f818560208601612e6d565b612ea8816128e7565b840191505092915050565b7f4e487b71000000000000000000000000000000000000000000000000000000005f52602160045260245ffd5b60058110612ef157612ef0612eb3565b5b50565b5f819050612f0182612ee0565b919050565b5f612f1082612ef4565b9050919050565b612f2081612f06565b82525050565b5f61018082019050612f3a5f83018f612b02565b612f47602083018e612dd1565b8181036040830152612f59818d612e7b565b90508181036060830152612f6d818c612e7b565b9050612f7c608083018b612b02565b81810360a0830152612f8e818a612e7b565b905081810360c0830152612fa28189612e7b565b9050612fb160e0830188612f17565b612fbf610100830187612dd1565b612fcd610120830186612b02565b612fdb610140830185612b02565b612fe9610160830184612ccf565b9d9c50505050505050505050505050565b61300381612b49565b82525050565b5f82825260208201905092915050565b5f61302382612e53565b61302d8185613009565b935061303d818560208601612e6d565b613046816128e7565b840191505092915050565b61305a81612f06565b82525050565b61306981612cc4565b82525050565b5f61018083015f8301516130855f860182612bd8565b5060208301516130986020860182612ffa565b50604083015184820360408601526130b08282613019565b915050606083015184820360608601526130ca8282613019565b91505060808301516130df6080860182612bd8565b5060a083015184820360a08601526130f78282613019565b91505060c083015184820360c08601526131118282613019565b91505060e083015161312660e0860182613051565b5061010083015161313b610100860182612ffa565b50610120830151613150610120860182612bd8565b50610140830151613165610140860182612bd8565b5061016083015161317a610160860182613060565b508091505092915050565b5f6020820190508181035f83015261319d818461306f565b905092915050565b5f5f604083850312156131bb576131ba612866565b5b5f83013567ffffffffffffffff8111156131d8576131d761286a565b5b6131e4858286016129ee565b92505060206131f58582860161288d565b9150509250929050565b7f417373657420646f6573206e6f742065786973740000000000000000000000005f82015250565b5f613233601483612e5d565b915061323e826131ff565b602082019050919050565b5f6020820190508181035f83015261326081613227565b9050919050565b7f4173736574206e6f7420766572696669656400000000000000000000000000005f82015250565b5f61329b601283612e5d565b91506132a682613267565b602082019050919050565b5f6020820190508181035f8301526132c88161328f565b9050919050565b5f81905092915050565b5f6132e382612e53565b6132ed81856132cf565b93506132fd818560208601612e6d565b80840191505092915050565b5f61331482846132d9565b915081905092915050565b7f41737365742074797065206e6f7420737570706f7274656400000000000000005f82015250565b5f613353601883612e5d565b915061335e8261331f565b602082019050919050565b5f6020820190508181035f83015261338081613347565b9050919050565b7f4465736372697074696f6e2063616e6e6f7420626520656d70747900000000005f82015250565b5f6133bb601b83612e5d565b91506133c682613387565b602082019050919050565b5f6020820190508181035f8301526133e8816133af565b9050919050565b7f457374696d617465642076616c7565206d7573742062652067726561746572205f8201527f7468616e20300000000000000000000000000000000000000000000000000000602082015250565b5f613449602683612e5d565b9150613454826133ef565b604082019050919050565b5f6020820190508181035f8301526134768161343d565b9050919050565b7f4e487b71000000000000000000000000000000000000000000000000000000005f52601160045260245ffd5b5f6134b48261286e565b91507fffffffffffffffffffffffffffffffffffffffffffffffffffffffffffffffff82036134e6576134e561347d565b5b600182019050919050565b7f4e487b71000000000000000000000000000000000000000000000000000000005f52602260045260245ffd5b5f600282049050600182168061353557607f821691505b602082108103613548576135476134f1565b5b50919050565b5f819050815f5260205f209050919050565b5f6020601f8301049050919050565b5f82821b905092915050565b5f600883026135aa7fffffffffffffffffffffffffffffffffffffffffffffffffffffffffffffffff8261356f565b6135b4868361356f565b95508019841693508086168417925050509392505050565b5f819050919050565b5f6135ef6135ea6135e58461286e565b6135cc565b61286e565b9050919050565b5f819050919050565b613608836135d5565b61361c613614826135f6565b84845461357b565b825550505050565b5f5f905090565b613633613624565b61363e8184846135ff565b505050565b5b81811015613661576136565f8261362b565b600181019050613644565b5050565b601f8211156136a6576136778161354e565b61368084613560565b8101602085101561368f578190505b6136a361369b85613560565b830182613643565b50505b505050565b5f82821c905092915050565b5f6136c65f19846008026136ab565b1980831691505092915050565b5f6136de83836136b7565b9150826002028217905092915050565b6136f782612e53565b67ffffffffffffffff8111156137105761370f6128f7565b5b61371a825461351e565b613725828285613665565b5f60209050601f831160018114613756575f8415613744578287015190505b61374e85826136d3565b8655506137b5565b601f1984166137648661354e565b5f5b8281101561378b57848901518255600182019150602085019450602081019050613766565b868310156137a857848901516137a4601f8916826136b7565b8355505b6001600288020188555050505b505050505050565b5f6020820190508181035f8301526137d58184612e7b565b905092915050565b7f4d7573742070726f76696465207374616b6500000000000000000000000000005f82015250565b5f613811601283612e5d565b915061381c826137dd565b602082019050919050565b5f6020820190508181035f83015261383e81613805565b9050919050565b5f61384f8261286e565b915061385a8361286e565b92508282019050808211156138725761387161347d565b5b92915050565b7f4e6f7420746865206173736574206f776e6572000000000000000000000000005f82015250565b5f6138ac601383612e5d565b91506138b782613878565b602082019050919050565b5f6020820190508181035f8301526138d9816138a0565b9050919050565b7f43616e6e6f742075706461746520636c61696d656420617373657400000000005f82015250565b5f613914601b83612e5d565b915061391f826138e0565b602082019050919050565b5f6020820190508181035f83015261394181613908565b9050919050565b7f4e6f7420616e20617574686f72697a65642076657269666965720000000000005f82015250565b5f61397c601a83612e5d565b915061398782613948565b602082019050919050565b5f6020820190508181035f8301526139a981613970565b9050919050565b7f4173736574206e6f742070656e64696e6720766572696669636174696f6e00005f82015250565b5f6139e4601e83612e5d565b91506139ef826139b0565b602082019050919050565b5f6020820190508181035f830152613a11816139d8565b9050919050565b7f496e73756666696369656e74207374616b6520666f72207468697320617373655f8201527f7420747970650000000000000000000000000000000000000000000000000000602082015250565b5f613a72602683612e5d565b9150613a7d82613a18565b604082019050919050565b5f6020820190508181035f830152613a9f81613a66565b9050919050565b7f566572696669636174696f6e206661696c6564000000000000000000000000005f82015250565b5f613ada601383612e5d565b9150613ae582613aa6565b602082019050919050565b5f6020820190508181035f830152613b0781613ace565b9050919050565b7f496e73756666696369656e74207374616b6500000000000000000000000000005f82015250565b5f613b42601283612e5d565b9150613b4d82613b0e565b602082019050919050565b5f6020820190508181035f830152613b6f81613b36565b9050919050565b5f613b808261286e565b9150613b8b8361286e565b9250828203905081811115613ba357613ba261347d565b5b92915050565b7f4d7573742070726f76696465207374616b6520616d6f756e74000000000000005f82015250565b5f613bdd601983612e5d565b9150613be882613ba9565b602082019050919050565b5f6020820190508181035f830152613c0a81613bd1565b9050919050565b7f4173736574206e6f7420696e73757265640000000000000000000000000000005f82015250565b5f613c45601183612e5d565b9150613c5082613c11565b602082019050919050565b5f6020820190508181035f830152613c7281613c39565b9050919050565b5f6040820190508181035f830152613c918185612e7b565b9050613ca06020830184612b02565b939250505056fea26469706673582212200408c7af856a3f8357f8d7f3366e17d6eab00144592e230472d0729a3e621c1264736f6c634300081e0033","linkReferences":{}},"methodIdentifiers":{"addAssetType(string,uint256)":"f856789b","addVerifierStake()":"b56aac3a","assets(uint256)":"cf35bdd0","authorizeVerifier(address)":"20ad8cab","authorizedVerifiers(address)":"9a891716","canVerifyAssetType(address,string)":"99e61897","emergencyWithdraw()":"db2e21bc","getAsset(uint256)":"eac8f5b8","getOwnerAssets(address)":"2d38f89b","getVerifierStake(address)":"0fa137f4","isAssetInsurable(uint256)":"6b9f299b","markAssetClaimed(uint256,uint256)":"e376b7d9","markAssetInsured(uint256,uint256)":"01d66597","minimumStakeRequired(string)":"cb646c53","owner()":"8da5cb5b","ownerAssets(address,uint256)":"455bd951","pause()":"8456cb59","paused()":"5c975abb","registerAsset(string,string,uint256,string,string)":"073099a9","renounceOwnership()":"715018a6","supportedAssetTypes(string)":"7077a4e4","transferOwnership(address)":"f2fde38b","unpause()":"3f4ba83a","updateAssetValue(uint256,uint256)":"60c4dce3","verifierStake(address)":"a4c8f107","verifyAsset(uint256,bool)":"7a3dcd6b","withdrawVerifierStake(uint256)":"8be8f633"},"id":45}